:020000040000FA
:10000000020E0B022003FFFFFFFFFF02200BFFFF8A
:10001000FFFFFF020529FFFFFFFFFF02201BFFFF7D
:10002000FFFFFF022023FFFFFFFFFF02202BFFFF48
:10003000FFFFFF022033FFFFFFFFFF020584FFFFEA
:10004000FFFFFF022043FFFFFFFFFF02204BFFFFE8
:10005000FFFFFF022053FFFFFFFFFF02205BFFFFB8
:10006000FFFFFF022063FFFFFFFFFF02206BFFFF88
:10007000FFFFFF022073FFFFFFFFFF02207BFFFF58
:10008000FFFFFF022083FFFFFFFFFF02208B002006
:10009000000090200000932000000100000000C834
:1000A0000300380000000000260000000000FFFFF1
:1000B000FFFF0000040074F8120B687800790080DC
:1000C0001C900412120579E08A828B83F09004124E
:1000D0001202064005E4900412F01201F29004129C
:1000E000E0FE900413E06E6007C3E89CE99D40D1F8
:1000F000807174F8120B68900497E0C0E090049649
:10010000E0FED0E0C39EE0F8900497E0FEE8500ED9
:100110001202C87001E9700B780079008014120295
:10012000D950F57A007B008038E004F0439A04123D
:1001300001F2C3E89CE99D50248A828B83E0C0E0F1
:10014000900497E01205DBD0E01202F4E4900498EA
:10015000F0900497E0C3947F40CFE480CEE8FAE9C2
:10016000FB8004E8FAE9FB7F01020CBF74F8120B74
:10017000687800790090051BE0705590051CE070D0
:100180004F75F900C28FC284A28340FCA28F400445
:10019000A28350F8E5F9C28FA2835004D284803044
:1001A000C0E01201FBD0E0F090051C1202ED40DC33
:1001B000E4F080D890051B1201FBE08A828B83F06B
:1001C00090051B1202064005E490051BF01201F297
:1001D00090051BE0FE90051CE06E6007C3E89CE9FB
:1001E0009D40D1E87001E97006E4F090051BF00233
:1001F0000163E8240108E93400F922E0249BF58238
:10020000E43404F58322E0041202F8C394802274DB
:10021000F8120B6890059EE0C0E090059DE0FED0CE
:10022000E0C39EE0F890059EE0FEE8500A1202C886
:100230007001E9700D80051202D94006EC7001EDE5
:1002400070067A007B00807D8A828B83E0F5F9A3BB
:10025000AA82AB83780179008006E004F01201F2F3
:10026000C3E89CE99D501E8A828B83E0C0E0900524
:100270009E120303D0E01202F490059EE0C3947F27
:1002800040D8E480D7C28FA28340FCC284A28F40B2
:1002900004A28350F890059D120303E0F5F9C28F84
:1002A00090059DE0FA90059EE06A90059D7005120C
:1002B000030380051202ED4002E4F0A28350CED287
:1002C00084E8FAE9FB020167C39EF8E49400F9743C
:1002D000FF281874FF39F9E822C39EF8E49400F966
:1002E000747F28F8E439F9C3E89CE99D22E004F022
:1002F000C39480221202F822F08A828B83A3AA82FE
:10030000AB8322E0241DF582E43405F5832274FFDB
:10031000120D7B1203EE1206E4E970030203CB7E9A
:1003200000900390E06401700DC284740190039109
:10033000F09005B38005D2AF9005B77808120DFC98
:100340007C017D00851882851983AA82AB83120403
:10035000E5EA7001EB6012E064F8602CE06407707D
:10036000089005BB7808120DFC85080C85090D85E1
:100370000A0E850B0F9005BF7808120DB99005BBCA
:10038000780C120D9170B90E900390E06401700921
:10039000D284E4900391F08002C2AFEE602D90030E
:1003A00090E06401700C75F800C2AB539AF7D2EA82
:1003B000800C758600C2AAC28B539AFBC2E9022048
:1003C00000C2AF75C9AB75C95B80FE1204AAC2AF8B
:1003D00075C9AB75C95B80FE7A1075B60FE5B4A21E
:1003E000E750FAE5BBC39940F11AEA70ED22C082EA
:1003F000C083A29250047A0080027A8053BEFBE54B
:100400009DA2E650FA0078F8790100E824FF18E987
:1004100034FFF9E87001E970F18AC6E59E6A70FB65
:1004200043BE047408906270F0794A1203D874F5E0
:10043000900001F07403F5D575D488A2A0E492E091
:10044000900390F06401702BD28453F3F753F3EFD1
:1004500053FDF743FD10538FF753F7DF43FC204361
:10046000F10253F5DF75F82043F4F0E5F4D2FED243
:10047000AB803253FF3FE5FF85FFFF53F1FE43F3AF
:100480000CE5F353F2F3E5F275868075C4809004B1
:1004900099E4F0A3F075C2D875C50B75C402438604
:1004A00040D2AAD2E9D083D0822274F5120B6879A7
:1004B0004E1203D8900390E07002D2AF1205E5E926
:1004C00060FAE0701B9005C37808120DFC009005DF
:1004D000BF7808120DB99005BB7808120D9170ED28
:1004E0007F04020CBFC082C083900390E0700512AD
:1004F00000B6801E900391E06015A28F500DE5F9C3
:100500008A828B83F07A017B0080077A0080F81260
:10051000016C8091C082C083900390E0700512004E
:10052000F2800312020F0204A5C0E074F2120BC89D
:10053000900001E064CD70051220138037E064F56F
:100540007031E5C1C0E0900413120579D0E0F0905D
:100550000412E0FA900413E06A7006E59590041521
:10056000F09004131202ED4002E4F074C6900414FB
:10057000F08001007F01020C27E02492F582E43430
:1005800003F58322C0E074F1120BC8900001E0640F
:10059000CD700512203B803EE064F57038900496E3
:1005A000E0FA900497E06A700B539AFB7401900490
:1005B00098F08022C2E9900496E0F50874012508BD
:1005C000F0E5081205DBE0F5C1900496E0C39480E5
:1005D0004004E480DC007F02020C272416F582E44C
:1005E0003404F5832274F7120B6874FF120D7B7EBE
:1005F00000801F851882851983E064FE70067401EF
:10060000900387F0851882851983E0FA900384E0CF
:100610006AF07C017D00851882851983AA82AB83EC
:100620001204E5EA7001EB70030206D8E0C0E09026
:100630000387E0F8900385E028F8E43400F9E81235
:1006400009FCD0E0F0900387E0120CF700050406E7
:10065000F3055C06780688069E06B406E4900384DB
:10066000F0851882851983E0900386F0C39480405A
:1006700003E4808C74028088851882851983E09059
:100680000382F07403020600851882851983E090C6
:100690000383F0900386E060167404020600900362
:1006A00085E004F0FA900386E06A600302060474B1
:1006B00005020600900384E0FA851882851983E01C
:1006C0006A700D900382E0644D700512083DE9FEEA
:1006D000E4900385F0020600EEF97401120D487FE4
:1006E00002020CBF74ED120B6874FB120D7B7508CF
:1006F000047509007808120DCC7402120E27120935
:10070000EC120D48851882E064FF7004A3E064FFDA
:10071000600D851882851983E07002A3E0700302E2
:100720000831120A06120E27E0687003A3E0697010
:100730000302080075080090059F7810120DFC80D8
:100740000A9005A37810120D91604D750A01750B82
:1007500000780A120DCC7406120E27AC82AD838588
:10076000100A85110B74FF550AFA7407550BFB8AA2
:100770000C85110D85120E85130F740B780C120D5C
:1007800062A90C1209F6120D48E0F9AA08AB091289
:100790000A148A088B0980089005A77810120DFCAE
:1007A0009005AB7810120DB99005AF780C120DFCC6
:1007B000780C7910120DDD40887900120A14790046
:1007C000120A147402120E27EAF0A3EBF075080166
:1007D0007509007808120DCC7402120E27AC82AD98
:1007E000837A247B08120ADF7402120D487508040C
:1007F0007808120DCC7402120E271209EC120D4863
:10080000120A06120E27E0687003A3E069702285C1
:100810001882851983E064FF7004A3E064FF60110F
:10082000851882851983E07002A3E0600479018055
:100830000279007405120D487F0C020CBF74F3128C
:100840000B6874FC120D7B900306E0FA900307E03E
:10085000F9EAF8E428F508740839F509750A017F02
:10086000007E00900383E0120CF701038C097608E8
:10087000AF080F098C0974015509F9E87001E97096
:1008800011880C85090D7409780C120DEDA90C1254
:100890000B51750C108E0D780C120DCC7C087D035D
:1008A000AA08AB09120ADF7402120D4802098C88EB
:1008B0000C85090D7409780C120DEDE50CC39479C3
:1008C00040040F02098C750A408E0B780A120DCC79
:1008D0007C097D0374FF5508F50A74015509F50B71
:1008E0007402780A120DA6AA0AAB0B7409780812D2
:1008F0000DEDA9081209F6120D48900307E09003C8
:1009000008F0900306E0900307F0750A43807D75B8
:1009100008048E097808120DCC7402120E271209F1
:10092000EC120D487402120E27E0F8A3E0F98518C6
:1009300082851983E0687003A3E069603B120A06B0
:10094000120E27E8F0A3E9F07508017808120DCC23
:100950007402120E27AC82AD837A247B08120ADF60
:100960007402120D487508047808120DCC74021236
:100970000E271209EC120D48120A06120E27E06823
:100980007003A3E06970030E80027F07900305E007
:10099000D2E7F0EF900306F0E50A900303F0744D00
:1009A000650AF50B7404250AFB7A0380071209FC1B
:1009B000E0620B0AEAF83395E0F98B08C3E8950882
:1009C000E99400A2D265D033E840E21209FCE50BBD
:1009D000F074012AFC3395E0FD7A027B03120514C2
:1009E000EEF97404120D487F06020CBFAC82AD8391
:1009F0007A907B007904120A567402222402F5824E
:100A0000E93403F58322851882851983E0F8A3E091
:100A1000F9740222EEC0E07E0874805BFDE4700190
:100A2000ED6004D2F08002C2F0A2F0E492E0FCEAB1
:100A3000C333FAEB33FBE9A2E7500474014AFAEC42
:100A4000600874216AFA74106BFBE9C333F91EEE77
:100A500070C7D0E0FE2274F5120B688908740B127F
:100A60000E27E0FEA3E0FF740F5508F50A750B0092
:100A7000740B780A120DA62AF874803BF9E428E575
:100A80000B39F9E5C7F509A2AFE492E0F50AC2AF68
:100A9000E508C4540FC0E074F855C7FAD0E04AF531
:100AA000C7801C88828983E08C828D83F08882894C
:100AB00083A3A882A9838C828D83A3AC82AD83EEAD
:100AC000FAEFFB74FF2A1E74FF3BFFEA7001EB7024
:100AD000D28509C7E50AA2E092AF7F04020CBF7479
:100AE000F7120B687409120E27E0F508A3E0F50968
:100AF000ED900388F0EC900389F0746290038AF023
:100B0000747390038BF090038CE0541FF0E508336E
:100B10003354FC90038DF074067808120DEDE5084F
:100B200090038CF0741290038EF0744290038FF057
:100B300075D1FE75D601EA906271F0EB906272F0A9
:100B4000906270E0D2E1F0E0A2E740FB7F02020C8D
:100B5000BFC082C083E9C333906272F0906270E0DC
:100B6000D2E0F0D083D082222518C582C0E0E519FA
:100B700034FFC583C0E0E518C3958224F9F8E4C5C5
:100B8000A8858319858218C5A8E8CEF0A3E520F0D2
:100B9000A37808E608F0A3DEFAEFF0A3E58124FBD2
:100BA000F8E608F0A3E608F0A30808E608F0A3E6D4
:100BB00008F0A315811581D0E0FED0E0F81581156D
:100BC00081E8C0E0EEC0E022C0D02518C582C0E0B8
:100BD000E51934FFC583C0E0E518C3958224F310FE
:100BE000AF08858319858218800885831985821846
:100BF000D2AFC8F0A3E9F0A3EAF0A3EBF0A3790821
:100C0000E709F0A3D8FAECF0A3EDF0A3EEF0A3EF20
:100C1000F0A3D0E0F0A3D0E0F0A3D0E0F0A3E52073
:100C2000F0A3E5F0F0A322851983851882E0C0E0E7
:100C3000A3E0F9A3E0FAA3E0FBA37808E0F608A399
:100C4000DFFAE0FCA3E0FDA3E0FEA3E0FFA3E0C029
:100C5000E0A3E0C0E0A3E0F5D0A3E0F520A3E0A38B
:100C6000F5F0E4C5A8858319858218C5A8D082D07F
:100C700083D0E0F8D0E032120E36B90003020CB98E
:100C8000E4900302789E79038002F0A3D8FCD9FA9D
:100C900090059FAA82AB8390008E782979018015F8
:100CA000E493A3AC82AD838A828B83F0A3AA82AB48
:100CB000838C828D83D8E9D9E712030E120E318519
:100CC0001983851882E0A3FEE0A3F5207808E0A34D
:100CD000F608DFFAE0A3FFE0A3C0E0E0A3C0E0E095
:100CE000A3C0E0E0A3C0E0E4C5A88582188583190D
:100CF000C5A8D083D08222D083D082C5F0E493A34C
:100D0000C5F0C395F0F5F0E493A3C395F04005E575
:100D1000F0048001E475F002A42582F582E5F03547
:100D200083F583E493A3C0E0E493C0E0222518F5A3
:100D30008210AF08F518400215198008F518400216
:100D40001519D2AF85198322C0D0251810AF08F528
:100D500018500205198008F51850020519D2AFD0B5
:100D6000D0226016080808C6C313C618C613C618D2
:100D7000C613C618C613C6D5E0EA22251810AF0858
:100D8000F518400215198008F51840021519D2AF60
:100D900022E066701008A3E066700A08A3E066709F
:100DA0000408A3E06622700422600D18C6C333C68F
:100DB00008C633C6D5E0F41822E026F608A3E036CC
:100DC000F608A3E036F608A3E036F62274028000A7
:100DD000C0E0F404120D2DD0E0120E1A22C3E796E3
:100DE0000809E7960809E7960809E79622600C08C3
:100DF000C6C313C618C613C6D5E0F422E0F608A38E
:100E0000E0F608A3E0F608A3E0F62275D0007581AD
:100E100040751802751903020C77CAC0E0E6F0A30A
:100E200008DAFAD0E0FA222518F582E43519F583BC
:100E30002200000080FB790122FFFFFFFFFFFFFF80
:100E4000FFFFFFFFFFFFFFFFFFFFFFFFFFFFFFFFB2
:100E5000FFFFFFFFFFFFFFFFFFFFFFFFFFFFFFFFA2
:100E6000FFFFFFFFFFFFFFFFFFFFFFFFFFFFFFFF92
:100E7000FFFFFFFFFFFFFFFFFFFFFFFFFFFFFFFF82
:0400000500000E0BDE
:00000001FF
