:020000040000FA
:10000000021CA4022003FFFFFFFFFF02200BFFFFE3
:10001000FFFFFF022013FFFFFFFFFF02201BFFFF78
:10002000FFFFFF022023FFFFFFFFFF02202BFFFF48
:10003000FFFFFF02135FFFFFFFFFFF02203BFFFFF9
:10004000FFFFFF022043FFFFFFFFFF02204BFFFFE8
:10005000FFFFFF022053FFFFFFFFFF02205BFFFFB8
:10006000FFFFFF022063FFFFFFFFFF02206BFFFF88
:10007000FFFFFF022073FFFFFFFFFF02207BFFFF58
:10008000FFFFFF022083FFFFFFFFFF02208B002006
:10009000000090200000932000000100000000C834
:1000A00003000000000000000400FFFFFFFF00C28B
:1000B0000100000026000403090424035400650025
:1000C000780061007300200049006E007300740026
:1000D000720075006D0065006E00740073002403EB
:1000E0005400490020004300430032003500330033
:1000F000310020005500530042002000430044001E
:10010000430000033000310032003300340035007A
:10011000360037003800390030003100320033003B
:100120003400350036003700380039007419C91919
:10013000C919C919C919D11974F71218B59005B898
:10014000E07002A3E070179005BBE0F9E47001E9EC
:10015000700C9005BCE064027002A3E060047404BB
:10016000805B9005B6E0121AAF80025E017301C495
:1001700001D4019005BAE070E59005B0E060047824
:1001800001800278009005BEE8F0A3E4F09005AF8E
:10019000E0600A9005BEE04402F0A3E4F09005A4FC
:1001A000E06404601C9005B174BEF0A37405F0A374
:1001B000E4F09005B47402F0A3E4F074019005A497
:1001C000F00208B190059DE0640470929005BEE4D1
:1001D000F0A380C89005BAE0547FF50890059DE033
:1001E0006404600302015EE508C394064003020153
:1001F0005E9005BAE054806016E508120300E064E2
:100200000370047801800278009005BEE8808AE5DA
:10021000081202F6E0640370EE80E874F71218B575
:10022000E9FE9005BCE07002A3E0701290059DE02D
:10023000640460159005BAE07002A3E0600B7404DA
:100240009005A4F079010208B19005B6E0541F12A0
:100250001AAF00023E025C0264027C029005B8E024
:1002600064016004790080DEEE9005AFF0600479EF
:1002700005800279067A001217F880C89005BAE066
:10028000547FFA9005B8E070DBEAC3940650AFEAF9
:1002900090620EF09005BAE054806029EE6004741C
:1002A0001080027440906211F0EE600474038001CB
:1002B000E4C0E0EA120300D0E0F0EE6004790880C8
:1002C0002B79078027EE600474208002748090628E
:1002D00014F0EE600474038001E4C0E0EA1202F658
:1002E000D0E0F0EE6004790A800279091217F8E490
:1002F00090620E02024324A9F582E43405F58322BC
:1003000024A4F582E43405F58322790012021BE966
:1003100070031217E722790112021BE9700312170A
:10032000F622C082C0839005BAE07002A3E0701A82
:100330009005BCE07002A3E070109005B8E0548016
:10034000F8A3E0F9E87001E9600774049005A4805F
:100350001D9005B8E0906200F090059D6009E06492
:1003600002700C74038007E0640370037402F0D021
:1003700083D0822274F51218B59005B9E0121AAF35
:100380000102EB038A039D03D2031213F612054305
:10039000121B979005B4F0A3E4F00204FA9005B89C
:1003A000E0FA7900121418120543E924020909EA57
:1003B0003400FA121B97FC1919E0FAE92403090921
:1003C00009EA3400FA121B97F9EC9005B4F0A3E99E
:1003D00080C79005B8E0F91214859005B1EAF0A342
:1003E000EBF0A3E41205547B0080A59005B1E4F086
:1003F000A3F0A3F0FA0204CE750900740378081282
:100400001C63900662E02508FBA3E035098B82F5AA
:1004100083E493C0E09005B9E0F8D0E0686003029F
:1004200004CD8A0875090074037808121C6312054C
:1004300063E493C0E09005B8E0F8D0E068600302A0
:1004400004CD8A0875090074037808121C6312052C
:100450005EE493C0E09005BBE0F8D0E068706E8A7F
:100460000875090074037808121C6312055EA3E482
:1004700093C0E09005BAE0F8D0E06870508A087543
:10048000090074037808121C63900662E02508F8DE
:10049000A3E03509F988828983A3A3A3A3E493F594
:1004A00008740193F5099005B1E508F0A3E509F09A
:1004B000A37480F088828983A3A3A3A3A3A3E49356
:1004C000F8740193F99005B4E8F0A3E9F00A8A08FA
:1004D0009006621206C9758306758264E0C398F5BA
:1004E0000AA3E099F50B7403780A121C95C3E5087A
:1004F000950AE4950B50030203F89005B1E0FCA3C4
:10050000E0FDA3E0FEEC4D4E70047404802C9005D9
:10051000A4E0640460289005B41206C975830575CB
:1005200082BCC3E098A3E099500E9005BC1206C9A6
:100530009005B4E8F0A3E9F074019005A4F07F04FD
:10054000021A779005B1EAF0A3EBF0A374801205CC
:10055000547B8022F09005B1E0F9A3E0FA22120565
:1005600063A322900662E02508A3E035098B82F59B
:1005700083A32274EF1218B58A088B098A828B83B1
:10058000A3A3A3A3E49360269006661206C9E8FE1F
:10059000E98007EE2404FEEF3400FF8E828F83E4AF
:1005A00093F8740193F9EA687002EB6970E5750CD1
:1005B00000804D7490906214F074101206B97003AC
:1005C000750D40750A01750B00E50E780A121C6363
:1005D0008E828F83A3A3A393550A6006E50DD2E014
:1005E000F50DE50D906215F0EA906213F0E50E242A
:1005F000A9F582E43405F583E4F090620EF0050C71
:10060000850882850983A3A3A3A3E493FAE50CC319
:100610009A40030206B47A0079051213888A0AEA1E
:100620007001EB60D9EA2402F8EB3400F9E8FCE948
:10063000FD8C828D83E493540FF50E90620EF0755D
:100640000D008A828B83A3A3A3A3E4932407F51050
:10065000A3E4933400F51174037810121C95AA10CA
:100660008C828D8393A2E740030205B374489062A5
:1006700011F074081206B97003750D40750A017502
:100680000B00E50E780A121C638E828F83A3A3935E
:10069000550A6006E50DD2E0F50DE50D906212F009
:1006A000EA906210F0850E0AE50A24A4F582E4348B
:1006B000050205F67F0A021A77F0850A828B83A36A
:1006C000A3A3E4935403640122E0F8A3E0F922C059
:1006D00082C0839005B8E07002A3E070169005BA5E
:1006E000E07002A3E0700C9005BCE064017002A30E
:1006F000E060047404800C9005B1749EF0A374054E
:100700001208269005A4F002036F74F61218B59033
:10071000059DE06402601F9005BAE07002A3E070DE
:10072000159005BCE07002A3E0700B9005B9E0F9EC
:10073000E47001E9600974049005A4F00207C67A28
:100740000079011217F89005B8E060657A00F91297
:1007500014188A088B09AE08AF09EE7001EF6049E2
:10076000740490059DF09005B8E090059EF0750A20
:10077000008E828F83A3A3A3A3E493FAE50AC39A0E
:10078000503D850A081207CBE4F07A007904121371
:10079000888A828B83A3A3A3E493FC1207CBE06C2B
:1007A00070E8120573050A80C874049005A4F080EF
:1007B0000E90059EF0740390059DF0F9120FBD7A1E
:1007C0000079021217F87F03021A77E508249FF5D3
:1007D00082E43405F5832274F61218B590059DE085
:1007E0006404701E9005B6E0648170169005B8E050
:1007F0007002A3E0700C9005BCE064017002A3E0FD
:1008000060047404801A9005BAE0249FF508A3E000
:100810003405F5099005B1E508F0A3E509120826AD
:100820009005A4F080A0F0A3E4F09005B47401F06A
:10083000A3E4F074012274F71218B590059DE064EA
:100840000470129005B6E06401700A9005BCE07077
:1008500002A3E0600874049005A4F080549005B8E9
:10086000E0FB9005BAE0FA90059EE0F912144D8A7B
:10087000088B09AE08AF09EE7001EF60D89005BA99
:10088000E0FA79031217F89005B8E0C0E09005BAD5
:10089000E0249FF8A3E03405F988828983D0E0F052
:1008A000EEFAEFFB1205739005BAE0FA790412171D
:1008B000F87F02021A7774F81218B574FF121C1030
:1008C0007E00801F851882851983E064FE7006749F
:1008D00001900387F0851882851983E0FA900384DC
:1008E000E06AF07901851882851983AA82AB8312A8
:1008F0001121E970030209A4E0C0E0900387E0F849
:10090000900385E028F8E43400F9E8120CC4D0E044
:10091000F0900387E0121AAF0005D508C408280933
:10092000440954096A098009E4900384F085188217
:10093000851983E0900386F0C394804003E480919E
:100940007402808D851882851983E0900382F0748B
:10095000030208D1851882851983E0900383F09003
:100960000386E0601674040208D1900385E004F069
:10097000FA900386E06A60030208D574050208D184
:10098000900384E0FA851882851983E06A700D90DF
:100990000382E0644D7005120B09E9FEE4900385C3
:1009A000F00208D1EEF97401121BB17F01021A772F
:1009B00074ED1218B574FB121C107508047509004B
:1009C0007808121C2A7402121CCF120CB4121BB12C
:1009D000851882E064FF7004A3E064FF600D851851
:1009E00082851983E07002A3E07003020AFD120CF5
:1009F000CE121CCFE0687003A3E0697003020ACC3A
:100A00007508009005C07810121CB3800A9005C4C8
:100A10007810121C3B604D750A01750B00780A12A4
:100A20001C2A7406121CCFAC82AD8385100A851176
:100A30000B74FF550AFA7407550BFB8A0C85110DD0
:100A400085120E85130F740B780C121BCBA90C1298
:100A50000CBE121BB1E0F9AA08AB09120CDC8A0823
:100A60008B0980089005C87810121CB39005CC78CB
:100A700010121C509005D0780C121CB3780C791011
:100A8000121C7640887900120CDC7900120CDC74A0
:100A900002121CCFEAF0A3EBF0750801750900788B
:100AA00008121C2A7402121CCFAC82AD837A247BFC
:100AB000081216007402121BB17508047808121C83
:100AC0002A7402121CCF120CB4121BB1120CCE12DB
:100AD0001CCFE0687003A3E0697022851882851935
:100AE00083E064FF7004A3E064FF601185188285D1
:100AF0001983E07002A3E060047901800279007438
:100B000005121BB17F0C021A7774F31218B574FC2E
:100B1000121C10900306E0FA900307E0F9EAF8E4EB
:100B200028F508740839F509750A017F007E0090E0
:100B30000383E0121AAF0103580C420B7B0BDB0B53
:100B4000580C74015509F9E87001E97011880C8599
:100B5000090D7409780C121C95A90C121672750CEB
:100B6000108E0D780C121C2A7C087D03AA08AB0994
:100B70001216007402121BB1020C58880C85090D64
:100B80007409780C121C95E50CC3947940040F028B
:100B90000C58750A408E0B780A121C2A7C097D03BA
:100BA00074FF5508F50A74015509F50B7402780AAB
:100BB000121C63AA0AAB0B74097808121C95A908C9
:100BC000120CBE121BB1900307E0900308F09003D3
:100BD00006E0900307F0750A43807D7508048E09CE
:100BE0007808121C2A7402121CCF120CB4121BB10A
:100BF0007402121CCFE0F8A3E0F9851882851983EE
:100C0000E0687003A3E069603B120CCE121CCFE8D1
:100C1000F0A3E9F07508017808121C2A7402121C6E
:100C2000CFAC82AD837A247B081216007402121BAB
:100C3000B17508047808121C2A7402121CCF120C19
:100C4000B4121BB1120CCE121CCFE0687003A3E0EB
:100C50006970030E80027F07900305E0D2E7F0EF92
:100C6000900306F0E50A900303F0744D650AF50B56
:100C70007404250AFB7A038007120CC4E0620B0A95
:100C8000EAF83395E0F98B08C3E89508E99400A2E7
:100C9000D265D033E840E2120CC4E50BF074012AAF
:100CA000F97A027B0312115FEEF97404121BB17F13
:100CB00006021A77AC82AD837A907B007904121514
:100CC000777402222402F582E93403F58322851821
:100CD00082851983E0F8A3E0F9740222EEC0E07E79
:100CE0000874805BFDE47001ED6004D2F08002C204
:100CF000F0A2F0E492E0FCEAC333FAEB33FBE9A2A2
:100D0000E7500474014AFAEC600874216AFA74101E
:100D10006BFBE9C333F91EEE70C7D0E0FE22C08240
:100D2000C0837A0079011214188A828B83A3A3A34B
:100D3000A3A3A3A3E493A2E6500474018001E4906A
:100D400005B0F0E49005AFF0740390620FF0E0A2FC
:100D5000E750FB90620BE0D2E1F0D083D08222C05A
:100D600082C083740290059DF0E490059EF090058A
:100D7000A4F07903120FBD75210075220080DB7489
:100D8000F61218B590620EE0FEE4F0906211E0F504
:100D90000AA2E4501F7480F074079005A4F0E521C6
:100DA0007002E5226009852182852283121CE1E41C
:100DB0009005A4F0E50AA2E2500BE4906211F090D5
:100DC00005A4F0807C9005A4E06402705D9062163A
:100DD000E0FF9005B1121AE5EFF97A207B62120F5D
:100DE000F77403121BB18F089005B4120F90120F05
:100DF0009BE07002A3E0600474408002744890623B
:100E000011F09005B4E07002A3E07016E5217002C5
:100E1000E5226009852182852283121CE1E4900588
:100E2000A4F0EE90620EF002103DE06406700985B9
:100E30002182852283121CE19005A4E06003020F49
:100E40002AE50AA2E050DB7508B6750905750A00A7
:100E50007808121C2679087A207B62120FF7740337
:100E6000121BB17521007522009005B6E054E01206
:100E70001B12000600880E200E0F40F80E80C50ED3
:100E8000A0190FC0030FF00E9005B7E0121B12005F
:100E90000501B60E03B10E05A20E09BB0E0BC00E66
:100EA000F00E1203229005A4E06404707774608051
:100EB0007512031680EF12030A80EA12070A80E512
:100EC00012083680E09005B7E0121B12000400DC27
:100ED0000E06E10E08E60E0AEB0EF00E1201388047
:100EE000C412037480BF1206CF80BA1207D780B530
:100EF00074049005A4F080B57521E37522171217CC
:100F0000E380A27521E57522171217E580977521F8
:100F10007B75221712177B808C7521AB75221712F7
:100F200017AB80817440906211F09005A4E06401D9
:100F3000704A750A029005B4C3E09420A3E09400BF
:100F4000500A9005B4E0FF750A0A80027F209005E0
:100F5000B1121AE5EFF97A207B6212101B740312AA
:100F60001BB18F08120F9B120F90E50A906211F0CF
:100F7000EFC394204003020E22020E0CE0640560D1
:100F800003020E22852182852283121CE1020E2299
:100F9000C3E09508F0A3E09400F0229005B1E0F9D9
:100FA000A3E0FAA3E0FBE92508F9EA3400FA90058A
:100FB000B1E9F0A3EAF0A3EBF09005B42274F712C4
:100FC00018B57A008A08E50824A5F582E43405F509
:100FD00083E9F00AEAC3940540EA7A008A08E50842
:100FE00024AAF582E43405F583E9F00AEAC39405FE
:100FF00040EA7F02021A7774F61218B5EAFCEBFD9C
:10100000E9FE740A121CCF12104D600D8C828D8384
:10101000E0121BE412104270F3802274F61218B52D
:10102000EAFCEBFDE9FE740A121CCF12104D600DB4
:10103000121B978C828D83F012104270F37F030293
:101040001A77E9240109EA3400FA1EEE22E0F508D5
:10105000A3E0F509A3E0A908AA09FBEE2274F8129F
:1010600018B5A823E854046009782374FB56F612D7
:101070000D5FA823E854106009782374EF56F61228
:101080000D7FA823E8A2E05006782374FC56F69062
:10109000620EE0FA7404F0906214E0A2E05035E5CC
:1010A000A8FBC2AF906216E0FC906217E0ECFDEB8B
:1010B000A2E792AF8015906228E0C0E09003911201
:1010C0001154D0E0F0900391E004F0ED1D70E7E4DE
:1010D000906214F0EA90620EF0E0FE7404F0906208
:1010E00011E0A2E04031900493E0FA900492E06AAB
:1010F00060257A40900492121191E0906228F0905D
:101100000492E004F0FB900493E06B60041AEA7030
:10111000E37401906211F0EE90620EF07F01021A0A
:101120007774F81218B5E9FE7900801590039012D3
:101130001154E08A828B83F0900390E004121186B0
:1011400009900390E0FC900391E06C6005E9C39E78
:1011500040DA80C8E02492F582E43403F58322C0AB
:1011600082C08380188A828B83E0C0E0900493124F
:101170001191D0E0121186900493E004F0E9197007
:10118000E4D083D08222F08A828B83A3AA82AB83AD
:1011900022E02494F582E43404F5832212124912E9
:1011A00009B0E9602B1212CFE9602575AC00759A81
:1011B0000053F4FEC29043FE01E490620FF0E0A2FF
:1011C000E740FB022000C2AF75C9AB75C95B80FE6A
:1011D0009005D4780C121CB3794E121233D2AF851D
:1011E0000D099005CC780C121C5074405509F9E497
:1011F0007001E9600AA2805004C2808002D280128D
:10120000105D1208B6E960D7C280D2919005D878F7
:1012100008121CB312105D9005DC7808121C509067
:1012200005D47808121C3B70EBC2AF75C9AB75C909
:101230005B80FE7A1075B60FE5B4A2E750FAE5BB05
:10124000C39940F11AEA70ED2274F51218B553BE35
:10125000FBE59DA2E650FA0078F8790100E824FF4A
:1012600018E934FFF9E87001E970F175C6807480FF
:10127000659E70FA43BE047408906270F0D2804399
:10128000FD01C29143FE02794A12123374F59000B7
:1012900001F07403F5D575D4889005E07808121C28
:1012A000B39005947808121C86E4900598F0900598
:1012B00099F0740890059AF0120D1E7AFF7BFF12C8
:1012C000168953F4FED29043FE017F04021A77740C
:1012D000F11218B574FF121C109005E4780C121C62
:1012E000B37E00D2AF8004C291C28012105D79013A
:1012F000851882851983AA82AB83121121E96012B5
:10130000E064F86034E0640770089005D4780C124B
:101310001CB3A2925023A293501E850C08850D0980
:10132000850E0A850F0B9005DC780C121C50900579
:10133000D47808121C3B70130EC2AFD280C291EE5B
:10134000F97401121BB17F08021A77850D09742008
:101350005509F9E47001E9708ED280D291808CC079
:10136000E074F2121915900001E064CD70051220AE
:1013700033800BE064F570051216D48001007F0104
:10138000021A27D083D08222C082C083E9FCEAFD02
:101390007A007B00800790059CE01213DB90059B90
:1013A000E0F8A3E0F9900660E0687003A3E06960EC
:1013B0001C1213CF6C700D90059BE0FAA3E0FB129A
:1013C00013DB80091213CF6D70CCED60C980B4902F
:1013D000059CE0F5838882A3E49322F5838882E468
:1013E00093F890059BE028F8A3E03400F990059B62
:1013F000E8F0A3E9F022C082C0831214077A0079D2
:101400000112138802138390065EE0F8A3E0F990BE
:10141000059BE8F0A3E9F02274F71218B5E9FEEA9B
:10142000FF121407800E8A828B83A3A3A3A3A3E4D5
:10143000936E60147A007902121388EA7001EB60EF
:1014400007EE70E2EF1F70EC7F02021A7774F5125C
:1014500018B5EAFF8B087A001214187A0279041280
:101460001388EA7001EB60188A828B83A3A3E4934C
:101470006F70E88A828B83A3A3A3E493650870DB73
:101480007F04021A7774F61218B574F8121C107AD9
:10149000007B00E9121AAF00036215A314AA14B16D
:1014A00014B8147AE87B050215627AEC7B05021504
:1014B000627A107B06021562900634E06003021522
:1014C0005E7508088A097808121C2A7402121CCF5B
:1014D000AC82AD837AE87B07797F121577740212AC
:1014E0001BB17C028C0812156C7A0A7B001218540E
:1014F000EA7001EB702812156C7A057B0012185403
:10150000E8F508851882851983E5822508F582E5C6
:10151000833400F583E0FAA3E0F9EAFEE9FFEEF890
:10152000EFF97A0A7B0012185CEA2430C0E08C08DC
:10153000E5082434F582E43406F583D0E0F0EEF8D3
:10154000EFF97A0A7B0012185C88088909AE08AFA7
:10155000090C0CEC942A408C742A900634F07A34EE
:101560007B067408121BB17F03021A7774FE2508EC
:10157000F874FF3400F92274F51218B58908740B59
:10158000121CCFE0FEA3E0FF740F5508F50A750B9F
:1015900000740B780A121C632AF874803BF9E42863
:1015A000E50B39F9E5C7F509A2AFE492E0F50AC207
:1015B000AFE508C4540FC0E074F855C7FAD0E04A4C
:1015C000F5C7801C88828983E08C828D83F08882B5
:1015D0008983A3A882A9838C828D83A3AC82AD83E7
:1015E000EEFAEFFB74FF2A1E74FF3BFFEA7001EB7B
:1015F00070D28509C7E50AA2E092AF7F04021A778C
:1016000074F71218B57409121CCFE0F508A3E0F5C1
:1016100009ED900388F0EC900389F0746290038ADE
:10162000F0747390038BF090038CE0541FF0E50886
:10163000333354FC90038DF074067808121C95E542
:101640000890038CF0741290038EF0744290038F14
:10165000F075D1FE75D601EA906271F0EB9062727E
:10166000F0906270E0D2E1F0E0A2E740FB7F02027E
:101670001A77C082C083E9C333906272F0906270BF
:10168000E0D2E0F0D083D0822274F71218B575232F
:10169000007524007525008A268B27EA90620BF0DE
:1016A0008A088B0974047808121C95E50890620773
:1016B000F08A088B0974097808121C95E508543ED5
:1016C000906209F0758B00C2E843AC20439A027F18
:1016D00002021A7774F71218B5E59DA2E650FA9047
:1016E0006206E0FAA2E25035A826E890620BF0F517
:1016F0000885270974047808121C95E5089062078C
:10170000F085260885270974097808121C95E508D4
:10171000543E906209F0906201E0D2E0F07823EA52
:1017200046F6906202E0F508750900740478081224
:101730001C637823E50846F608E50946F69062043E
:10174000E0F50875090074097808121C637823080D
:10175000E50946F6EAA2E0500375250174065A60D1
:1017600003752500E58BA2E55006758BDF75250016
:1017700012181A758B00C2E80216CFC082C083907F
:1017800005B7E06422700A9005A4E0701C74028022
:1017900017E06420700D9005A4E0700D1217D57449
:1017A00002800274049005A4F08046C082C0839039
:1017B00005B7E0642170169005A4E070161217D5E5
:1017C0009005B47407F0A3E4F074018002740490EF
:1017D00005A4F0801C9005B17494F0A37405F0A3E7
:1017E000E4F02280028000C082C08374049005A4CB
:1017F000F0D083D0822280EFC082C083E9121AAF7A
:10180000010918181818181818181818181818187E
:10181000181818181818181880D722C3E498F8E474
:1018200099F912185C8026C3E49AFAE49BFBE9203C
:10183000E7E912185CE498F8E499F922C3E498F80F
:10184000E499F912185CE498F8E499F9C3E49AFA77
:10185000E49BFB22EB20E7CFE920E7E0B90010BBD7
:101860000008E88AF084F8AAF022E4FBC8FA22EB28
:1018700070227B10C833C8C933C9335007C39AC319
:10188000DBF280069A50012ADBEAC833F4C8C93378
:10189000F4C9FA2275F008E4C833C8C933C933C99A
:1018A0009AC99B5004C92AC93BD5F0ECFBC833F454
:1018B000C8E4C9FA222518C582C0E0E51934FFC57D
:1018C00083C0E0E518C3958224F9F8E4C5A88583B0
:1018D00019858218C5A8E8CEF0A3E520F0A3780802
:1018E000E608F0A3DEFAEFF0A3E58124FBF8E608B2
:1018F000F0A3E608F0A30808E608F0A3E608F0A3C2
:1019000015811581D0E0FED0E0F815811581E8C081
:10191000E0EEC0E022C0D02518C582C0E0E5193451
:10192000FFC583C0E0E518C3958224F310AF088596
:1019300083198582188008858319858218D2AFC8DB
:10194000F0A3E9F0A3EAF0A3EBF0A37908E709F02C
:10195000A3D8FAECF0A3EDF0A3EEF0A3EFF0A3D040
:10196000E0F0A3D0E0F0A3D0E0F0A3E520F0A3E501
:10197000F0F0A32212010002020000205104A81678
:101980000900010203010902430002010080190954
:1019900004000001020201000524001001042402D9
:1019A0000205240600010524010001070582034009
:1019B000004009040100020A0000000705840240FB
:1019C0000000070504024000008F190000B2190052
:1019D00000121CDEB90003021A21E479217807B84D
:1019E00000028004F709D8FCE490030278BF790371
:1019F0008002F0A3D8FCD9FA9005C0AA82AB8390EC
:101A0000008E78AB79018015E493A3AC82AD838A14
:101A1000828B83F0A3AA82AB838C828D83D8E9D991
:101A2000E712119C121CD9851983851882E0C0E049
:101A3000A3E0F9A3E0FAA3E0FBA37808E0F608A38B
:101A4000DFFAE0FCA3E0FDA3E0FEA3E0FFA3E0C01B
:101A5000E0A3E0C0E0A3E0F5D0A3E0F520A3E0A37D
:101A6000F5F0E4C5A8858319858218C5A8D082D071
:101A700083D0E0F8D0E032851983851882E0A3FE98
:101A8000E0A3F5207808E0A3F608DFFAE0A3FFE082
:101A9000A3C0E0E0A3C0E0E0A3C0E0E0A3C0E0E4B6
:101AA000C5A8858218858319C5A8D083D08222D085
:101AB00083D082C5F0E493A3C5F0C395F0F5F0E4BC
:101AC00093A3C395F04005E5F0048001E475F002AE
:101AD000A42582F582E5F03583F583E493A3C0E085
:101AE000E493C0E02274038000CCC0E0EDC0E0E5E8
:101AF00018C39CCCAD1950011D10AF068C188D1960
:101B000080068C188D19D2AF121B3CD0E0FDD0E0BE
:101B1000FC22D083D082CCC0E0E493A36006121BE9
:101B20005D1470FAE493A36006121BFA1470FAD0E5
:101B3000E0FCE493A3C0E0E493C0E022CAC0E0E08C
:101B4000A3C582CCC582C583CDC583F0A3C582CC95
:101B5000C582C583CDC583DAE6D0E0CA22C0E0E401
:101B600093A3D39C5010E493A3C39C400AD0E0D02D
:101B7000E0D0E0021B2FA3A3A3D0E0222518F5821A
:101B800010AF08F518400215198008F51840021525
:101B900019D2AF85198322BB0102E722C082C0831C
:101BA00089828A83BB0003E08002E493D083D082E1
:101BB00022C0D0251810AF08F5185002051980086A
:101BC000F51850020519D2AFD0D0226016080808C7
:101BD000C6C313C618C613C618C613C618C613C67E
:101BE000D5E0EA22BB000EC082C0838A838982F0DE
:101BF000D083D08222BB0101F722C0E0E493A36C22
:101C00007009D0E0D0E0D0E0021B2FA3A3D0E022E7
:101C1000251810AF08F518400215198008F518406E
:101C2000021519D2AF227403800474028000C0E050
:101C3000F404121B7CD0E0121CC222E06670100873
:101C4000A3E066700A08A3E066700408A3E06622B9
:101C5000E026F608A3E036F608A3E036F608A3E08F
:101C600036F622700422600D18C6C333C608C63388
:101C7000C6D5E0F41822C3E7960809E7960809E7F5
:101C8000960809E79622E6F008A3E6F008A3E6F036
:101C900008A3E6F022600C08C6C313C618C613C614
:101CA000D5E0F42275D000758140751802751903CE
:101CB0000219D1E0F608A3E0F608A3E0F608A3E0D5
:101CC000F622CAC0E0E6F0A308DAFAD0E0FA22254C
:101CD00018F582E43519F5832200000080FB7901B4
:101CE00022E473FFFFFFFFFFFFFFFFFFFFFFFFFF88
:101CF000FFFFFFFFFFFFFFFFFFFFFFFFFFFFFFFFF4
:101D0000FFFFFFFFFFFFFFFFFFFFFFFFFFFFFFFFE3
:101D1000FFFFFFFFFFFFFFFFFFFFFFFFFFFFFFFFD3
:101D2000FFFFFFFFFFFFFFFFFFFFFFFFFFFFFFFFC3
:0400000500001CA437
:00000001FF
