:020000040000FA
:06000000020A420201B2F7
:03002B00020811B7
:030033000205A71C
:030053000200ECBC
:03006B0002057D0E
:100083000201460101010503012010201020102068
:1000930010D60ED00E20103B1D00000000771C0070
:1000A3000000000C0000000C0001FF0AC801010160
:1000B30000B7040000000905E80364006400B80108
:1000C30002020008000005020701051E02051E02C8
:1000D3000A0A03B80B02803E010203320001FFFF4C
:1000E300020A1401E002020612C0E074F2120431A3
:1000F300A2AFE492E0FED2AFE5A7FAE5A1FBEA5B8B
:100103005410600812162C75A1EF802AEAA2E0C0F1
:10011300D0EBA2E092F01209A5158182F05017905E
:100123006198E0FA9005DBE0C39AA2D265D0335020
:1001330002EAF075A1FE751A00EEA2E092AF7F010C
:100143000204E1C0E074F2120431A2AFE492E0FED3
:10015300D2AF9061A4E0FA759B00E5915A54086010
:10016300087591F712166E802AE5915A54106008AB
:100173007591EF121674801BEAA2E0C0D0E591A23C
:10018300E092F01209A5158182F05007E0C2E0F079
:100193001217B89061A3E0FAE5E95A5404600E120D
:1001A300178E75E9FB906193E0A2E640F28087C069
:1001B300E074F2120431A2AFE492E0FED2AF906198
:1001C300A5E0FAE5BF5A5404600675BFFB1217D0C9
:1001D300020139C3E498F8E499F91202178026C39F
:1001E300E49AFAE49BFBE920E7E9120217E498F8A2
:1001F300E499F922C3E498F8E499F9120217E49810
:10020300F8E499F9C3E49AFAE49BFB22EB20E7CFE5
:10021300E920E7E0B90010BB0008E88AF084F8AAF7
:10022300F022E4FBC8FA22EB70227B10C833C8C962
:1002330033C9335007C39AC3DBF280069A50012AAD
:10024300DBEAC833F4C8C933F4C9FA2275F008E409
:10025300C833C8C933C933C99AC99B5004C92AC909
:100263003BD5F0ECFBC833F4C8E4C9FA220808080C
:10027300EAC0E0EBC0E086F0E7A4FA180986F0E7ED
:10028300A42AFA180986F0E7A42AFA180986F0E7DF
:10029300A42AFA1986F0E7A4FBE5F02AFA190886DE
:1002A300F0E7A42BFBE5F03AFA190886F0E7A42B54
:1002B300FBE5F03AFA18180986F0E7A4C5F02BFB22
:1002C300E43AFA1908E7C5F0C6A426F6E5F03BFBC5
:1002D300E43AFA1886F0E7A4F6E5F00826F6E43BDC
:1002E30008F6E43A08F6D0E0FBD0E0FA22E4CFC007
:1002F300E0E4CEC0E0E4CDC0E0E4CCC0E075F020A3
:10030300C3E633F608E633F608E633F608E633F6D3
:10031300181818EC33FCED33FDEE33FEEF33FFC357
:10032300EC9709ED9709EE9709EF97191919400F03
:10033300FFEC97FC09ED97FD09EE97FE191906D519
:10034300F0BEECF709EDF709EEF709EFF719191904
:10035300D0E0FCD0E0FDD0E0FED0E0FF22120A8C1A
:10036300B900030203B5E4900301783479088002ED
:10037300F0A3D8FCD9FA781A9000867A01BA000261
:100383008007E493A3F608DAF9900A34AA82AB83D0
:10039300900087786679018015E493A3AC82AD83DE
:1003A3008A828B83F0A3AA82AB838C828D83D8E964
:1003B300D9E775824B7583DB74021207F375827676
:1003C30075831A74001207F32518C582C0E0E51976
:1003D30034FFC583C0E0E518C3958224F8F8E4C56B
:1003E300A8858319858218C5A8E8CEF0A3E520F077
:1003F300A37808E608F0A3DEFAEFF0A3E58124FA78
:10040300F8E608F0A3E608F0A3E608F0A30808E678
:1004130008F0A3E608F0A315811581D0E0FED0E033
:10042300F8158115811581E8C0E0EEC0E022C0D047
:100433002518C582C0E0E51934FFC583C0E0E5187F
:10044300C3958224F310AF08858319858218800829
:10045300858319858218D2AFC8F0A3E9F0A3EAF027
:10046300A3EBF0A37908E709F0A3D8FAECF0A3ED26
:10047300F0A3EEF0A3EFF0A3D0E0F0A3D0E0F0A35D
:10048300D0E0F0A3E520F0A3E5F0F0A32275F0108F
:100493008E218F228582268583258518828519835F
:1004A300E0CEA3E0CF852682852583EBC9EAC8ED9C
:1004B300CBECCAC3E833C8E933C9EA33CAEB33CB5D
:1004C300C3EA9EF524EB9FF523B35004AB23AA2480
:1004D300EC33CCED33CDD5F0DAAE21AF2222851942
:1004E30083851882E0C0E0A3E0F9A3E0FAA3E0FB70
:1004F300A37808E0F608A3DFFAE0FCA3E0FDA3E09D
:10050300FEA3E0FFA3E0C0E0A3E0C0E0A3E0F5D0DA
:10051300A3E0F520A3E0A3F5F0E4C5A8858319853E
:100523008218C5A8D082D083D0E0F8D0E032D0833F
:10053300D082ECC0E0EDC0E0E493A3FCE493A3FD20
:10054300ED4C600D12060CEC24FFFCED34FFFD8036
:10055300EFE493A3FCE493A3FDED4C600D12071DA0
:10056300EC24FFFCED34FFFD80EFD0E0FDD0E0FC98
:10057300E493A3C0E0E493C0E022C0E074F2120469
:1005830031A2AFE492E0FED2AFE589A2E1500312BB
:10059300153C758900C2C5751A00EEA2E092AF7FC3
:1005A300010204E1C0E074F2120431A2AFE492E06C
:1005B300FED2AFE58BA2E0500312153C758B00C24F
:1005C300E880D4D083D082E9C0E0E493A3C386F06B
:1005D300C5F095F0F908E493A386F0C5F095F070A3
:1005E3000BE493A3C3994005E9048002A3E475F0E7
:1005F30002A42582F582E5F03583F583D0E0F9E4A2
:1006030093A3C0E0E493C0E022C0E0C3E493960860
:100613007401939618400FE493667008087401936D
:10062300661870007019A3A3C3E49396087401932A
:100633009618A3A3400DD0E0D0E0D0E002056DA34F
:10064300A3A3A3A3A3D0E022851983851882E0A3E3
:10065300FEE0A3F5207808E0A3F608DFFAE0A3FFA5
:10066300E0A3C0E0E0A3C0E0E0A3C0E0E0A3C0E0FB
:10067300E0A3C0E0E4C5A8858218858319C5A8D086
:1006830083D0820207F9D083D082C5F0E493A3C557
:10069300F0C395F0F5F0E493A3C395F04005E5F0BE
:1006A300048001E475F002A42582F582E5F0358328
:1006B300F583E493A3C0E0E493C0E02274048004D0
:1006C30074028000CCC0E0EDC0E0E518C39CCCAD63
:1006D3001950011D10AF068C188D1980068C188DCA
:1006E30019D2AF120794D0E0FDD0E0FC227402804F
:1006F30000CCC0E0EDC0E0E518C39CCCAD195001BF
:100703001D10AF068C188D1980068C188D19D2AF69
:10071300120772D0E0FDD0E0FC22C0E0C0F088F008
:10072300E4936670080874019366187000A8F0A338
:10073300A3700BD0F0D0E0D0E0D0E002056DA3A30E
:10074300D0F0D0E022D083D082CCC0E0E493A36089
:10075300061207D41470FAE493A360061208DE1499
:1007630070FAD0E0FCE493A3C0E0E493C0E022CAB3
:10077300C0E0E493A3C582CCC582C583CDC583F015
:10078300A3C582CCC582C583CDC583DAE5D0E0CAD3
:1007930022CAC0E0E0A3C582CCC582C583CDC58390
:1007A300F0A3C582CCC582C583CDC583DAE6D0E08C
:1007B300CA227009080808226016181818C6C3331D
:1007C300C608C633C608C633C608C633C6D5E0EA6C
:1007D30022C0E0E493A3D39C5010E493A3C39C40B2
:1007E3000AD0E0D0E0D0E0020765A3A3A3D0E022C3
:1007F300C09FF59FE473D09F22D083D082C09FE433
:1008030093C0E0740193C0E0740293F59F22C0E0AB
:10081300C0D0EAC0E0E5A8D2AFC2C7751A00A2E70C
:1008230092AFD0E0FAD0D0D0E0327404800A7403DF
:100833008006740280027401C0E0F404120848D0F8
:10084300E0120A7F222518F58210AF08F51840023E
:1008530015198008F51840021519D2AF851983229E
:10086300C0D0251810AF08F518500205198008F5F7
:100873001850020519D2AFD0D022BB0102E722C023
:1008830082C08389828A83BB0003E08002E493D021
:1008930083D082226016080808C6C313C618C6137D
:1008A300C618C613C618C613C6D5E0EA22C3E0C6E7
:1008B30096F608A3E0C696F608A3E0C696F608A344
:1008C300E0C696F622251810AF08F5184002151950
:1008D3008008F51840021519D2AF22C0E0E493A3B3
:1008E3006C7009D0E0D0E0D0E0020765A3A3D0E0AC
:1008F30022C3E09608A3E09608A3E09608A3E09637
:10090300A2D265D03322E066701008A3E066700AB5
:1009130008A3E066700408A3E06622C3E697F6081E
:1009230009E697F60809E697F60809E697F622C35B
:10093300E096F008A3E096F008A3E096F008A3E0A1
:1009430096F022E026F008A3E036F008A3E036F0A4
:1009530008A3E036F022E026F608A3E036F608A363
:10096300E036F608A3E036F622E627F60809E6376E
:10097300F60809E637F60809E637F622E657F608D9
:1009830009E657F60809E657F60809E657F622E09E
:1009930056F608A3E056F608A3E056F608A3E05679
:1009A300F622C0E0E8C0E0E58124FCF8E6A2E7D047
:1009B300E0F8D0E022700422600D18C6C333C608E5
:1009C300C633C6D5E0F41822E056F008A3E056F08B
:1009D30008A3E056F008A3E056F022E647F608091C
:1009E300E647F60809E647F60809E647F622E4C3B0
:1009F30096F608E496F608E496F608E496F622C31B
:100A0300E7960809E7960809E7960809E79622C6D4
:100A1300F4C608C6F4C608C6F4C608C6F4C622C39C
:100A2300E09608A3E09608A3E09608A3E096226068
:100A33000D08C6A2E713C618C613C6D5E0F3227580
:100A4300D00075814075180175190300020360E039
:100A5300F608A3E0F608A3E0F608A3E0F622600C8C
:100A630008C6C313C618C613C6D5E0F422E6F008B9
:100A7300A3E6F008A3E6F008A3E6F022CAC0E0E686
:100A8300F0A308DAFAD0E0FA2274F855C74401F566
:100A9300C77901222518F582E43519F58322C2AFFF
:100AA30075D69F020000221207FC5282011207FC36
:100AB300AA82011207FCC582011207FCE982011216
:100AC30007FC2483011207FC6D83011207FCB88322
:100AD300011207FC9584011207FC5085011207FCE3
:100AE3000686011207FCCD86011207FC538701120B
:100AF30007FC6587011207FC6F87011207FC9688C4
:100B0300011207FC1189011207FC5C89011207FC21
:100B1300C689011207FC268B011207FC468B0112C2
:100B230007FC9F8B011207FC268C011207FC7C8CAF
:100B3300011207FC9F8D011207FC688E011207FC4E
:100B4300C98E011207FC478F011207FC9C8F01120B
:100B530007FCD18F011207FC0391011207FCFD91E1
:100B6300011207FC5992011207FCA292011207FC21
:100B7300C492011207FC4D93011207FCDF9301128B
:100B830007FC6394011207FC7494011207FCF094B0
:100B9300011207FC9895011207FCF195011207FC5D
:100BA300CC96011207FC1597011207FC529701120C
:100BB30007FCFB98011207FC649A011207FC809B57
:100BC300011207FCA59D011207FCB09D011207FC51
:100BD300BA9D011207FCC59D011207FCCF9D0112AE
:100BE30007FCD99D011207FCE49D011207FCEF9D50
:100BF300011207FC179E011207FC3B9E011207FC22
:100C03005F9E011207FCC59E011207FC159F01128E
:100C130007FC339F011207FCBF9F011207FCFD9FD6
:100C2300011207FC4AA0011207FCDAA0011207FC1B
:100C3300ABA2011207FC47A3011207FC0BA401128C
:100C430007FC13A7011207FC68A7011207FC92A770
:100C5300011207FCD8A8011207FC23A9011207FC03
:100C63007AA9011207FC82AA011207FC46AB011202
:100C730007FCBEAB011207FC4AAC011207FCF01ED5
:100C8300001207FC3D1F001207FC2421001207FC81
:100C93006221001207FCAE21001207FC5B22001246
:100CA30007FCB522001207FCEB22001207FC5323BA
:100CB300001207FC6E24001207FC8425001207FCB7
:100CC3003F26001207FC9F29001207FC382A001256
:100CD30007FC292B001207FCBC2B001207FCDD2CA0
:100CE300001207FCEC2E001207FCA32F001207FCD6
:100CF300AD2F001207FCEE2F001207FCCC300012C0
:100D030007FC7031001207FCDC31001207FC0932CA
:100D1300001207FC2B32001207FC7534001207FC8B
:100D23005635001207FCA735001207FC16360012D1
:100D330007FCDB36001207FC1037001207FC59379B
:100D4300001207FC8E37001207FCE837001207FC7D
:100D53003F38001207FCB138001207FC1A390012A1
:100D630007FC8B39001207FC373B001207FC153CCC
:100D7300001207FC483D001207FC893F001207FCE4
:100D83004F40001207FC7A42001207FC1D43001279
:100D930007FC6443001207FC3845001207FC4C456E
:100DA300001207FC5645001207FC8345001207FC9E
:100DB3008F45001207FCAD45001207FC8246001266
:100DC30007FCB946001207FCC346001207FC7D4727
:100DD300001207FC7C48001207FC6C49001207FC58
:100DE300114A001207FC9A4A001207FCB14A00128A
:100DF30007FCEA4A001207FC084B001207FC4C4BA5
:100E0300001207FC7D4B001207FC6E4C001207FC1E
:100E1300D64C001207FC354D001207FC5E4E001243
:100E230007FC5E4F001207FCCA4F001207FC8E50EE
:100E3300001207FCB450001207FC8151001207FC9A
:100E4300D451001207FC6052001207FC1753001222
:100E530007FC4D53001207FC8253001207FCA953F1
:100E6300001207FC2554001207FC5356001207FC1E
:100E7300C356001207FC5C57001207FCD15700123F
:100E830007FC2758001207FCD3EB021207FC1EECE9
:100E9300021207FCF1AD011207FC5BAE011207FC65
:100EA300B5AE011207FC03AF011207FC1EAF01121E
:100EB30007FC54AF011207FC75AF011207FC81AFA9
:100EC300011207FCFFB0011207FC1DB1011207FC60
:100ED30086B1011207FC99B1011207FCA7B10112F7
:100EE30007FC49B2011207FC53B3011207FC6DB4AE
:100EF300011207FCE2B4011207FCECB4011207FC77
:100F030059B5011207FC70B5011207FCAFB5011208
:100F130007FCF0B5011207FC1FB6011207FC55B61A
:100F2300011207FC74B6011207FC92B6011207FC0A
:100F3300D3B6011207FCAEB7011207FCF4B70112D6
:100F430007FC1FB8011207FC81B8011207FCB4B8F3
:100F5300011207FCEDB8011207FCFBB8011207FCF4
:100F630053B9011207FC92B9011207FCD2B901125D
:100F730007FC16BA011207FC39BA011207FC44BA7E
:100F8300011207FC62BA011207FC2BBB011207FC1A
:100F930035BB011207FC74BB011207FC8ABB0112AB
:100FA30007FC93BB011207FC02BC011207FC16BC31
:100FB300011207FC25BD011207FC38BD011207FC15
:100FC3004FBD011207FC64BD011207FC15BE0112DF
:100FD30007FC87BE011207FC4CBF011207FC57BF79
:100FE300011207FC7EC0011207FC9AC0011207FC24
:100FF300F9C0011207FC37C1011207FC51C10112EC
:1010030007FC88C1011207FCC8C3011207FC3CC4DA
:10101300011207FCB1C4011207FC0DC7011207FC42
:101023001DC7011207FC20C7011207FC2CC70112C0
:1010330007FC40C7011207FC48C7011207FC7DC724
:10104300011207FC41C8011207FCB2C8011207FCD8
:1010530018C9011207FCB4C9011207FC4DCA0112D9
:1010630007FC74CA011207FC17CB011207FC23CB40
:10107300011207FC52CB011207FC55CB011207FCEE
:1010830084CB011207FC99CB011207FC09CC011296
:1010930007FC0BCD011207FCEBCD011207FC76CE4A
:1010A300011207FC9BCF011207FC52D0011207FC6F
:1010B3008BD0011207FCBCD0011207FCC5D0011272
:1010C30007FC01D1011207FCDBD1011207FC8DD211
:1010D300011207FC1FD3011207FCDCD3011207FC2A
:1010E3005BD4011207FC8DD4011207FCCCD401128E
:1010F30007FC02D5011207FCA898021207FCBA9854
:10110300021207FC2699021207FC5C99021207FCE3
:10111300B399021207FCD09B021207FCD89D02125E
:1011230007FC4EA1021207FC7DA1021207FCA1A13C
:10113300021207FC08A2021207FC3CA2021207FCDF
:1011430062A2021207FC92A2021207FCDBA20212A5
:1011530007FC28EC021207FCE1F7011207FC34F844
:10116300011207FCA4F8011207FCC3F8011207FCE3
:1011730079F9011207FC82F9011207FCD8F901126F
:1011830007FC05FA011207FC66FA011207FCFFFAD5
:10119300011207FC3CFB011207FC7BFB011207FC5D
:1011A300DDFB011207FC5EFC011207FCB8FC011217
:1011B30007FCF7FC011207FC2BFD011207FC3DFDA8
:1011C300011207FC4FFD011207FC6EFD011207FC23
:1011D30077FD011207FC3BFE011207FC75E70212C3
:1011E30007FC8FD4021207FC627A001207FC12D5A7
:1011F300021207FC6BD6021207FC64D5011207FC2E
:10120300A4D6011207FCE0D6011207FCB3D80112E1
:1012130007FCDCD8011207FC77DB011207FCBEDBFD
:10122300011207FC59DD011207FCF0DD011207FC76
:1012330058DE011207FC05DF011207FC45DF01122E
:1012430007FCAB81011207FC15E1011207FC87E2E1
:10125300011207FCD6E4011207FC04E5011207FCA6
:101263003AE5011207FC43E5011207FCA0E5011270
:1012730007FC22E6011207FC53E9011207FC75EC97
:10128300021207FC8BEC021207FC9AEC021207FC19
:1012930097BE021207FCAFBE021207FC4CBF02123C
:1012A30007FC8DBF021207FCAABF021207FCCDBFC9
:1012B300021207FC14C0021207FC4AC0021207FC08
:1012C30081C0021207FC1DC2021207FC6AC202128D
:1012D30007FCF4E8021207FC2AE9021207FC47E9BB
:1012E300021207FC8CE9021207FC9DE9021207FCBB
:1012F30081BA021207FC8ABA021207FC84BB0212EB
:1013030007FC87BB021207FCBEBB021207FCC1BB72
:10131300021207FCC4BB021207FCC7BB021207FC84
:10132300CABB021207FCCDBB021207FCD5BD0212D9
:1013330007FCD4E9011207FC2AEA011207FCD4EAEC
:10134300011207FC7FEB011207FCC9EB011207FC3A
:10135300DDEB011207FCA8ED011207FC27EE0112D9
:1013630007FC51EE011207FCF7EF011207FC12F024
:10137300011207FC52F0011207FC90F0011207FC66
:10138300E8F0011207FC03F1011207FC5CF1011202
:1013930007FCB1F1011207FCCBF2011207FC5DF56A
:1013A300011207FCF8F5011207FC21F6011207FCF4
:1013B30085F6011207FCA2F6011207FCA5F601123D
:1013C30007FCA8F6011207FC21F7011207FC3EF700
:1013D300011207FC6AF7011207FCA5F7011207FCCB
:1013E300A8F7011207FCE3EA021207FCEFEA021274
:1013F30007FC39EB021207FC0080021207FC2B806A
:10140300021207FC0481021207FC8981021207FC05
:10141300F281021207FC3E82021207FCA48202122E
:1014230007FC3B83021207FCAF83021207FCEB832A
:10143300021207FCB487021207FC3F89021207FC61
:10144300B78A021207FC458B021207FC7A8C021240
:1014530007FCE88D021207FCA28E021207FC128F12
:10146300021207FC908F021207FCF68F021207FC90
:101473006690021207FCA091021207FC4D92021221
:1014830007FCB092021207FC1494021207FCD994D1
:10149300021207FCDA95021207FC7096021207FC8F
:1014A3004F97021207FCF8FF011207FCFBFF011222
:1014B30007FC52DD021207FC81DD021207FC44DE49
:1014C300021207FCAADE021207FCCFDB021207FCA2
:1014D300A4E6021207FCB5E6021207FC5BE7021260
:1014E30007FC2CDF021207FC3ADF021207FCF0ECC8
:1014F300021207FCA7E9021207FCB7E9021207FC74
:10150300CFE9021207FC42EA021207FC7DE4021251
:1015130007FC06E5021207FC78E5021207FC64FEED
:10152300011207FC86FE011207FCECFE011207FC08
:101533000CFF011207FC50FF011207FCA9FF011267
:1015430007FCDEFF011207FCE1FF011207FCF3E0D9
:10155300021207FC08E1021207FC7CE1021207FCFD
:1015630098E1021207FCADE1021207FCBBE1021293
:1015730007FCD5E1021207FCF5E1021207FC82C267
:10158300021207FC90C2021207FC14C3021207FCEA
:10159300D0C3021207FC67C5021207FCCCC50212B6
:1015A30007FC38C6021207FCF87F001207FCD7D6E7
:1015B300021207FC42D8021207FCC6D8021207FC2B
:1015C30015D9021207FC12B1021207FC65B102120F
:1015D30007FC6DB3021207FCA5B3021207FCCAB3E2
:1015E300021207FCE3B3021207FCFCB3021207FC6E
:1015F30005B5021207FCA0B5021207FC18D90212A6
:1016030007FC5BD9021207FC6CD9021207FC9FD9B5
:10161300021207FCD5D9021207FC0BDA021207FCEF
:1016230023DA021207FC9CDA021207FCD9DA02124F
:1016330007FC20CD021207FC48CD021207FC85CD22
:10164300021207FC94CD021207FCB3CD021207FC71
:101653001DCE021207FC26CE021207FC87CE021211
:1016630007FCABCE021207FC6ECF021207FC7BCF46
:10167300021207FC8CCF021207FCB37F001207FC97
:10168300D07F001207FC9C7B001207FC017D001237
:1016930007FC0E7D001207FC247D001207FC417D30
:1016A300001207FC587D001207FC6D7D001207FC39
:1016B3003E7E001207FCC47E001207FC327F00123C
:1016C30007FC947F001207FCA47F001207FC48EA82
:1016D300021207FC6DEA021207FC96EA021207FCEB
:1016E300BEEA021207FCBACF021207FCE1CF0212D4
:1016F30007FC02D0021207FC64D0021207FC2AD2B4
:10170300021207FC43D2021207FC4FD2021207FC5B
:1017130063D2021207FC87D2021207FC93D2021291
:1017230007FCA2D2021207FCB5D2021207FC05D3B2
:10173300021207FC3FD3021207FC6FD3021207FC0D
:10174300BED3021207FC0CD4021207FC24D40212EB
:1017530007FC2ED4021207FC3FD4021207FC84D4E8
:10176300021207FC76EB021207FCC7EB021207FC1E
:1017730037A3021207FC63A3021207FC7FA3021222
:1017830007FC92A3021207FCA8A3021207FC12A4EF
:10179300021207FC45A4021207FCAFA7021207FCC2
:1017A300B2A8021207FCE2A8021207FC5BA902120C
:1017B30007FC4AAA021207FC72AA021207FC87AAB4
:1017C300021207FC97AA021207FCD8AA021207FC0E
:1017D3002DAB021207FC3DAB021207FC2CE20212F6
:1017E30007FC47E2021207FC70E2021207FC8AE2DE
:1017F300021207FCAFE2021207FCCEE2021207FC60
:10180300E7E2021207FC16E3021207FC31E30212BD
:1018130007FC41E8021207FC85E8021207FC4CC6EC
:10182300021207FC53C6021207FC60C7021207FC30
:1018330092C7021207FCB8C7021207FCDBC70212E9
:1018430007FCFDC7021207FC38C8021207FCA8C830
:10185300021207FCE5C8021207FC32C9021207FC98
:1018630060C9021207FC80C9021207FC63E302127B
:1018730007FC75E3021207FC77E4021207FC7AE423
:10188300021207FC91E5021207FC02E6021207FCB2
:1018930041E6021207FC82E6021207FC6BAB02125E
:1018A30007FCD1AB021207FCB3AC021207FCF4AC89
:1018B300021207FC25AD021207FC00AF021207FC5F
:1018C30004B0021207FC96B0021207FCD1B0021258
:1018D30007FCDEC9021207FCFAC9021207FC43CA5D
:1018E300021207FC5FCA021207FC90CA021207FC2D
:1018F300B8CA021207FCC0CB021207FCCACB021201
:1019030007FCD7CB021207FCEFCC021207FC03CD76
:10191300021207FC0CCD021207FCDFB5021207FC12
:101923000ABA021207FC0FBA021207FCC1EC021238
:1019330007FCC279001207FC8578001207FC1976B0
:10194300001207FCAE75001207FC6875001207FC55
:101953003372001207FCFF71001207FCB971001209
:1019630007FCA271001207FCBB70001207FC6B702E
:10197300001207FCB56E001207FC226E001207FC72
:101983001F6E001207FC446D001207FC106D00125D
:1019930007FC3B6C001207FC6F6A001207FC2A6A03
:1019A300001207FCFC69001207FCF969001207FC2E
:1019B3002681011207FCC880011207FC97800112DF
:1019C30007FCE669001207FCA069001207FC936993
:1019D300001207FC6C68001207FC8580011207FCEB
:1019E300F667001207FCC367001207FC6767001263
:1019F30007FC3667001207FC6F7B001207FC85DFCC
:101A0300011207FCF163001207FCEB62001207FCF2
:101A13007662001207FC4162001207FC0A620012A0
:101A230007FCFE61001207FC5961001207FC986075
:101A3300001207FCA45E001207FC1C5C001207FCEA
:101A4300DA5B001207FC985A001207FC445A001292
:101A530007FC7759001207FCD158001207FCA7585E
:101A6300001207FC507B001207FC6D58001207FCA4
:101A7300C7D40200000080FBE4738F0001007205ED
:101A830087000100900A24000200680A2500020072
:101A93006A0A260002006C0A270002006E0A280068
:101AA3000100700A29000100710A84000400720A0F
:101AB30086000100760A2A000100770A2B00010044
:101AC300780A2C0001007B0A2D0008005E052E0019
:101AD30001007C0A2F0001007D0A300001007E0A0C
:101AE300310001007F0A3200010066053300010066
:101AF300670534000100800A3600010068053800DC
:101B03000100810A390001007A0A830002008E0A6B
:101B1300630001007105640001005B0565000100BD
:101B2300790A6D0001008D0A6E0002005C05430016
:101B33000100820A44000200830A45000100850A6D
:101B430046000200860A47000800690548000100B4
:101B5300880A490001008A0A4A0002008B0A4B00E6
:101B63000100890A04000100910AA1000100940AFE
:101B730037000100930A88000100920A0000000068
:101B830000000001363601010001020100010301DA
:101B930000010401060605020000070100340801E4
:101BA300000F090401010D0100FF0E0800001702D8
:101BB3000000190100FF1A0100011B0100FE1C01B6
:101BC30000081D0200001F01000120010001210285
:101BD30000002301000F2402000026010001270159
:101BE3000008280200FF2A0100072B0102402C01F4
:101BF30000002D0100012E0100012F0100FF300123
:101C03000B1C310800003A0100083B01000F2F01B3
:101C13000000010171010101010111010101310103
:101C2300010101018001100161013B001400630106
:101C330073017201620143010001130106013D01B9
:101C4300350004011201000100010001000104013B
:101C53000401330133013C01440132013600000128
:101C630000016501000135008101000105018201C8
:101C73008301000101037103010301030103010354
:101C83000103220302030103100300030003000303
:101C930000030003000300034203000324030603BD
:101CA3000003000304031203250323032503230373
:101CB30004030403000300030003440300030003BD
:101CC3002303000365032100350381030003050398
:101CD30000030003000303027102300160021102DA
:101CE30070020102020202028002100261023A0043
:101CF3004100630273027202620243020002130292
:101D03003800000200020402120200020002000274
:101D1300000204020402370037003C0244020002BE
:101D2300390000020002650200023502810200024E
:101D33000502820283020002030071003001600089
:101D43001100700031022003500480001000610074
:101D5300000014006300730072006200430000007F
:101D63001300060000000000040012000000000041
:101D73000000000004000400370037003C02440068
:101D83000000000000000000650000003500810035
:101D9300000005000000830000003600010006007B
:101DA30000000F0000000000000000000000000021
:101DB30003FFFF00000403FFFF0000FFFF0FF40118
:101DC3000005C4040320000100000B000000000014
:101DD30000000003010F300F600F360F3C0F5A0F46
:101DE3004E0F480F660F6C0F720F7E0F420F2A0FB4
:101DF300240F0100701402001014030016140400D1
:101E03001C140500221406002E14FFFF000003EA31
:101E1300F5E5D5D5C5B5A5959585857575656555DF
:101E2300554545353525251515050A020D02CC0CFA
:101E330005DE0C07D20C0CAE0C0DC00CFF0000002D
:101E4300160F00000B150B020002220F32000006D2
:101E5300201032103810FA0E3E10F40E000F8C10C2
:101E6300AA10B01092109E1098100C0E020B040BC7
:101E73000A0708000F00383C3E363B3B352B432C0A
:101E830000011916181616152303000003494842CA
:101E93004D1817250502303017181921301B1D1F47
:101EA30030303016181920231A1C1E3074104410B9
:101EB3004A1056105010540F780FA410840F8A0F35
:101EC3000204020101010109020005150D091008B0
:101ED3000400BE040AE803040015000E00280008ED
:101EE300040C0A030908FF1E1E0F040C0574F712E5
:101EF30003CBE99003BBF0E4900370F012186C90ED
:101F030003C0E4F0A3F09003BCF0A3F0120E3A1266
:101F1300187290033FE4F0A3F09003DBE07002A398
:101F2300E060099003DB1246D1121A7B901EECE4A9
:101F330093FA790212190802389174F21203CBEA68
:101F4300FEEBFF74805FF9E47001E960679003BB07
:101F5300E0F91211888A088B09EA7001EB604C7C66
:101F63000080010CEC75F003A4A9F0242DF582E99F
:101F7300341EF583E49364FF602AE493FA850882B0
:101F83008B83E06A70DDAA08EC75F003A4242EF5B8
:101F930082E9341EF583E493C0E0740193F583D0A2
:101FA30082121A7BAA08AB0912117CEEFA74806FB5
:101FB300FB02211774205FF9E47001E9601D120D23
:101FC3005C8A088B09EA7001EB600A120CC0AA084C
:101FD300AB0912117CEEFA742080D4EEA2E0501A01
:101FE300900375E0640F700B7900120C8AE96003AB
:101FF30012211A74016EFAEF80B654207003022086
:10200300E3750A001236CD7001EB70107C027D007F
:102013007A207B009003BBE0F91212AE7C007904B6
:102023007A007B00120D388A088B098018740185A9
:102033000882850983A3A3A3A3A3A3A3A3A3F085D2
:102043000C08850D09E5087002E50960717C0079CB
:1020530004AA08AB09120D388A0C8B0D750A01E529
:10206300082404F8E50912345324FFF0A3E034FFF5
:1020730012482E7002A3E070C6850882850983A3E7
:10208300A3A3A3A3A3A3A3A3A3E06401709F8508B1
:1020930082850983A3A3A3A3A3A3E05404708E742E
:1020A30006850882850983A3A3A3A3A3A3A3A3A34C
:1020B300F07AB78508828509831222508081120D38
:1020C300087C0079017A007B00120D38EA7001EB7D
:1020D3007009E50A70057A201246777420021FF80A
:1020E30074025FF9E47001E9600A120E34EEFA74C7
:1020F30002021FB274045FF9E47001E9601212482E
:102103001512472A7901122B1FEEFA7404021FB22B
:102113007A007B00023B32900A68122A32120CA228
:1021230022C082C08374EA1208C885188285198385
:10213300AA82AB83794B1218DE7408120A977402D1
:10214300F07409120A97AA82AB8379501218DE74CD
:1021530013120A97124C591218FC74160245737421
:10216300F71203CB74E11208C8EAFEEBFFEE70012D
:10217300EF6033851882851983AC82AD83120D809D
:102183007406120A97E0601E7417120A97E0FD7432
:1021930001120A97E0FCEEFAEFFB7900121A64E9E8
:1021A300600479A48002790002388C74F61203CBA0
:1021B300EAFEEBFF8E828F83A3A3A3A3A3A3E05422
:1021C30040601B1246CD12231C60067AFF7BFF8002
:1021D3001A8E828F8312386DFAA3E0FB8003120DEF
:1021E300A474FE6A700374FF6B60431246CD124BF6
:1021F30077120DF8E98E828F836006122242E48003
:10220300051222427401F07C907D0C8E828F831222
:102213004F46121902E9F5087017EE7001EF6009D5
:102223007901EEFAEFFB120D14A90802470C7508A9
:10223300CDAA088E828F83122250E960DD80EAE006
:10224300240D12224922F8A3E0123F4822E0240C75
:10225300124A8DF9120C9C2274F61203CBE9FEEAA2
:10226300FF7A0F7B00121176EA7001EB6019740C90
:102273008A828B83F0EEA3A3F0EF8A828B83A3F091
:1022830012471579008028EEF9120D3E8A088B0952
:10229300A808A909E87001E9601374068882898394
:1022A30012540AE0F9120C54EEF9120D1A791002C5
:1022B300470CC082C083900375E0640F7016EA7008
:1022C30001EB6010900370E064086005E064047043
:1022D300031222DA02435DEAFCEBFD7A017B0090F4
:1022E30003BBE0F91212A822C082C0837900EA245A
:1022F3001DF582EB12386A1207480103040B23020F
:10230300070B230A0B230C230902435D8E828F8361
:10231300A3A3A3A3A3A3A3A3A312232022E0FAA30B
:10232300E0FB120DF8E9228E828F83A3A3A3A3A35C
:10233300A3A3A3A31223206402228E828F83A3A3C9
:10234300A3A3A3A3A3A3A3123C0F900361E068225A
:1023530074F41203CB74FD1208C88A088B098A82AD
:102363008B83A3A3E0F9120D3E8A0A8B0BAE0AAF4F
:102373000BEE7001EF7003022458850882850983F0
:10238300A3E064F16030850882850983A3E064CD0E
:102393006024850882850983A3E0641A6018850890
:1023A30082850983A3E064E9600C8508828509833B
:1023B300A3E064E170087900120D14E970688508E0
:1023C30082850983A3E0C0E07402120A97D0E01269
:1023D3004035124FC4EE240B122979AA82AB8370C5
:1023E30005120BB88003120DE07402120A97E06421
:1023F300E970338E828F83122464750A01780A127E
:102403000839750AE9780A120839E508240CF582B7
:10241300E50912296B122EA8FCA3E0FD8A828B83A7
:10242300122ECB1208638E828F83A3A3A3A3A3A32D
:10243300A3A3A3E06402701074068E828F83A3A308
:10244300A3A3A3A3A3A3A3F0850882850983A3A3BE
:10245300E0F9120D1A120D08900A6C12211D022FB9
:10246300D8E0F8A3E0F9E8FAE9FB2274F41203CB0D
:10247300EAFEEBFF7508008E828F83A3A3A3A3A3B9
:10248300E060407508088E828F83A3A3A3A3A3A350
:10249300A3A3123B207001EB601075082C8E828F72
:1024A30083A3A3A3A3A3E0D2E0F08E828F83A3A38D
:1024B300A3A3A3E05403640160030225524308115C
:1024C300022552EE24181229726030EE241A1229C2
:1024D30072700F12233D7003A3E0697072750822B6
:1024E300806DEE241BF582EF122567241A122557FF
:1024F300EE241912255F120C42805412232A700312
:1025030075080112233D7003A3E0697006E508D244
:10251300E1F508E50860158E828F83A3A3E07006BA
:10252300E508D2E58004E508D2E6F50812230F6436
:10253300017006E508D2E0F5088E828F83A3A3E03D
:10254300600D12257564016006E508C2E0F508A96F
:1025530008022FDDF582EF124746FA22F582EF12C9
:102563004746F92212476712256E22E0FCA3E0FDDD
:10257300EE22EE241D124764123887F9120DE6E9A4
:1025830022C082C08379018A828B83A3A3E0C39490
:10259300024001198A828B83A3A3A3A3E0C39402FD
:1025A300400279008A828B83A3A3A3A3A3A3A3A33B
:1025B300A3E064F87004A3E064FF60488A828B831D
:1025C300A3A3A3A3A3A3A3A3A3E064F97004A3E019
:1025D30064FF60308A828B83A3A3A3A3A3A3A3A3D3
:1025E300A3E064FA7004A3E064FF60188A828B831B
:1025F300A3A3A3A3A3A3A3A3A3E064FB7004A3E0E7
:1026030064FF700279008A828B83A3A3A3E0FC900A
:10261300035EE06C60027900901EEBE493C3948048
:102623005017E493C333C0E0EA2411F582EB12257B
:102633005AD0E0C39A5002790002435D74EC12034E
:10264300CB74DE1208C8EAFEEBFF8E828F83A3A34E
:10265300A3A3E06010900A6AE07002A3E060069012
:102663000A6A12211D7403120A97AC82AD838E820B
:102673008F83A3A3A3124752124F4AE9600F740337
:10268300120A97AA82AB83120CBAE9700879011275
:10269300187E022960EE241B123BF57410120A9770
:1026A30012472A7409120A97E06021741A120A97D2
:1026B300E0FD7404120A97E0FC8E828F83124F446C
:1026C3007901121A64E96004790280C37403120A5F
:1026D30097AA82AB83120CB4E9F50A7409120A971C
:1026E300E0702A900358E060247422550A64226043
:1026F3001C7442550A644270CF7420120A9712293F
:102703008A600A7420120A9712298370BBE9A2E631
:10271300503E7403120A97AA82AB83120CA8E97085
:10272300030226907420120A9712386D6403700C0A
:102733007420120A97124A0B640D60147403120A70
:1027430097AA82AB83120E0AE9640170030229601F
:10275300EE242C122968122CD77003A3E069701C95
:1027630075080078081208397808120839EE242E03
:1027730012255F122990122ECB1208637409120AD4
:1027830097E07003022841122990124F46120E5807
:102793008A088B09EA7001EB70030228D8740412CB
:1027A3000A97E0F88E828F83A3A3E028F8A3E0348E
:1027B30000F9740D28F582E439F583E0FA8508827F
:1027C3008B83A3A3A3E06A6020EA8508828B83A39B
:1027D300A3A3F0908043780C120A528508828B835E
:1027E300A3A3A3A3780C120A707904E9120A97121F
:1027F3004F232AFCA3E034008C82F583A3AA82AB87
:102803008312116A8A0C8B0D8C0E8D0F85088285BD
:102813000983A3A3A3A37810120A527810790C1288
:102823000A02500302296090803B780C12095985F3
:102833000882850983A3A3A3A3780C120A709003CB
:1028430070E064046008E064096003022960E50A3B
:10285300A2E54003022918EE242E122979F0EE2472
:102863002F122972C0E07401120A97D0E0F0EE240F
:1028730030122972C0E07402120A97D0E0F0741487
:10288300120A97E064017027740E120A97123BFB39
:10289300EE2412122972687003A3E0697011740C9C
:1028A300120A9712233770077414120A97E4F0EE92
:1028B30024241229681206BF7404120A97AC82AD4D
:1028C300837407120A97AA82AB83120BBE74041295
:1028D30008630229609003B5E064016003022841A4
:1028E3007420120A9712298A7009E50AA2E6500396
:1028F3000228417410120A97E064FF7004A3E06495
:10290300FF605AEEFCEFFD7403120A97AA82AB83B1
:10291300120CC68048A2E650447420120A97124A49
:1029230083701A741A120A97E064027030740312E7
:102933000A97AA82AB837900120DD48020742012E7
:102943000A971229837016741A120A97E0640470A6
:102953000C7403120A97AA82AB83120DCE7422025F
:102963004E38EE240BF582EF12476722EE2417F55B
:1029730082EF124746221247438518828519832224
:102983001246DFE0640722123887640622EE242A07
:1029930012476412256E24121247642274F4120340
:1029A300CBEAFEEBFF8C088D09900566E0600F1201
:1029B300233D7003A3E0697005120C308051790048
:1029C300124F39120C608A828B83E5827002E58391
:1029D3006035A3A3A3A3A3A3E05418602AE50824A6
:1029E3001BF582E50912296B1206C31230AE1229B8
:1029F3006B1206C3EE241812255F122A15120C72ED
:102A0300740412086380087900122A15120C360226
:102A13002FDD8E828F83A3A3A3A3A3A3A3A3A312B8
:102A2300256E240BF582EF122A2E223400F583E063
:102A3300FAA3E0FB2274F71203CB74F71208C8EA77
:102A4300FEEBFF900370E06403600DE06401600837
:102A5300E064096003022B1A8E828F83A3E0600374
:102A6300022AF67C007D007A027B00121878EE249D
:102A730002FAEF12345A123BFB90036112472A7990
:102A8300531218E47900122B1F900370E06409605D
:102A93000990036E124F46120E52740112470074CE
:102AA30004900370F07401120A97AA82AB83794AE7
:102AB3001218DE7401120A97AC82AD837A667B0327
:102AC300121896900361124F547A037B0012187800
:102AD300900364124F547A047B0012187890035BBE
:102AE300E0A2E35004D2F08002C2F01246E61221C3
:102AF3001A80218E828F83A3AE82AF83FC7D007AFE
:102B0300037B101218788E828F83E0F9122B1FE457
:102B1300900370F0120CF0740902388E90036E1259
:102B23002A32120BD022C082C08390033FE070028E
:102B3300A3E07041900370E01207480003014B2BA0
:102B4300055A2B06692B782B900347E07002A3E00C
:102B530060649003478059900343E07002A3E060F0
:102B630055900343804A900345E07002A3E060461A
:102B7300900345803B90033FE07002A3E0600512A1
:102B83002EB9700C8A828B83A3E0F9120BC48026C2
:102B930090034012480EA3A3A3E064027005120E33
:102BA3002880139003DFE07002A3E060099003DF45
:102BB3001246D1121A7B02435D74F41203CB74FBE9
:102BC3001208C88A088B097A0F7B001211768A0AC9
:102BD3008B0BAE0AAF0BEE7001EF7003022CCB74BC
:102BE300028E828F83124C5A79501218DE85088226
:102BF300850983A3E06003022CB390036EE064FFB6
:102C03007004A3E064FF603590036EE064FE70041B
:102C1300A3E064FF6027851882851983122CD7707F
:102C230003A3E069601774EA850882850983A31208
:102C33002ED47A6E7B0379501218E4807385188240
:102C430085198312511D12472A7A617B0379531226
:102C530018DE90036112474C12472A7A647B03798A
:102C63004B1218DE7A637B0379E11218DE90037549
:102C7300E0C3940F5022900363E0C0E07402120A91
:102C830097D0E0F07404120A977401F07402120AE8
:102C930097AA82AB831218F6750A00780A120839CC
:102CA300780A120839900A97E0F9122EC2120863C3
:102CB300850882850983122CD0A3F07403900370D6
:102CC300F0EEFAEFFB1247157405022FDAA3E08E3C
:102CD300828F8322125121E0682274F51203CB7490
:102CE300D81208C88A088B098A828B83A3A3A312EC
:102CF30051307415120A97AC82AD838A828B83A3F9
:102D0300A3A3A3A3A3A3A3122EA8FAA3E0FB120CCD
:102D1300F67415120A97E0706E850882850983A3FD
:102D2300A3A3A3A3A3A3A3E0C3940B405A8E828FB0
:102D330083A3A3A3A3A3A3A3A3E064027049EE24E4
:102D43000B12297264FF703F900370E06402603CD1
:102D5300E06406603790033FE07002A3E060051271
:102D63002EB96051900370E064086005E06404705C
:102D7300167417120A97E0F9741C120A97AC82AD05
:102D830083124F39120CFC74280231CC90033FE0BC
:102D93007002A3E0701F75080078081208397808DC
:102DA300120839EE241012296812514C12354812B8
:102DB3002ECB1208638E828F831249F61257561256
:102DC3003BFB7402120A9712472AEE240D12297252
:102DD300C0E07404120A97D0E0F0122965A3E0540E
:102DE30080F9E47001E96004D2F08002C2F0A2F03D
:102DF300E492E0C0E07405120A97D0E0F07419126F
:102E03000A97E0C0E07406120A97D0E0F0741B1230
:102E13000A97E0C0E07407120A97D0E0F074161224
:102E23000A97E0C0E07409120A97D0E0F074171211
:102E33000A97E0C0E07408120A97D0E0F0EE24107D
:102E4300122972C0E0740A120A97D0E0F0741A12C1
:102E53000A97E0C0E0740B120A97D0E0F0742712CF
:102E63000A97E0C0E0740C120A97D0E0F0741C12C9
:102E73000A97A982AA8389088A09750A0078081221
:102E830008317C087D007410120A97AA82AB831262
:102E93003F3D120863851882851983AA82AB83128A
:102EA3000BCA022D8AE0F98A828B83A3A3A3A3A36F
:102EB300A3A3A3A3E02290033F12316564012290F0
:102EC300036E124F58900364122A32120DB6740225
:102ED30022F07A617B037953122EDF221218E47AEF
:102EE300647B03794B1218E42274F21203CB74F857
:102EF3001208C8EAFEEBFF8C0A8D0B890C85188239
:102F0300851983AC82AD8375838075822074081222
:102F13000794F50DEEFCEFFD851882851983AA82CF
:102F2300AB831258687003750D019003BC803BEEB0
:102F3300FCEFFDE508240BFAE5093400125867603D
:102F43001E850882850983A3A3E0650C701185089B
:102F530082850983E0650A7004A3E0650B6038E5A8
:102F6300082414F582E50912296B124F12E5087043
:102F730002E5096022E50D70B6850882850983E0C4
:102F8300650A7004A3E0650B70D585088285098303
:102F9300A3A3E0650C70C8AA08AB097408023B2F11
:102FA300C082C0839003BC02435A74F71203CB90D0
:102FB30003BCE0FAA3E0800CEA241412512A121194
:102FC300F4EEFAEFFBEA7001EB70ED9003BCE4F072
:102FD300A3F002389174031208637F0402064BE0E6
:102FE3008E828F83F0A3AE82AF832274F11203CB60
:102FF300EAFEEBFF890A8C088D098E828F83E08CB1
:10300300828D831236BDAE82AF83E0124301124438
:10301300FBC41243011230C3E054038C828D83122C
:1030230044F9A2E2E492E08C828D831244F81313F4
:1030330013541F1243011244F7A2E7E492E08C8277
:103043008D83A3A3A3A31230C38E0C8F0D750E0023
:10305300780C1208317C087D00E50824071230B78C
:103063001208631230A58E0C8F0D780C1208317C78
:10307300037D00E508240F1230B7120863E50AC385
:10308300940F40148E828F83A3A3A3E0C0E0123079
:10309300AE12296BD0E080061230AE124248F00225
:1030A30037DCEE2408FEEF3400FF22E5082412F596
:1030B30082E50922FAE5093400FB12115874032250
:1030C300A3A31236C10EAF832274F01203CB74F99B
:1030D3001208C8EAFEEBFF890890033FE07002A3E1
:1030E300E0601012315E64027009EEFAEFFB120E1B
:1030F30022806390036EE06E7003A3E06F705774D9
:1031030001650860097A827B0312586870487A0067
:103113007B021236D17001EB703C900371780C1274
:103123000A52851882851983780C120A70900377E6
:10313300E0C0E07404120A97D0E0F07405120A9715
:103143007401F07406120A977402124C5A120B9A05
:10315300E96097120BA07407024E5090033F12319F
:1031630065221246D9A3A3A3A3A3A3E02274F51255
:1031730003CB8A088B098A828B83A3AE82AF83E059
:10318300F9120BE88E828F83E064EB600C85088272
:10319300850983A3E064E17009E4850882850983D6
:1031A300A3F012211A750A01780A120839850882D8
:1031B300850983A3E0F50878081208397900122EEF
:1031C300C2120863120D0880031208637F0302060C
:1031D3004BEAF0A3EBF002435D74F61203CB9003CA
:1031E300BFE0701F7C0079017A007B00120D38EA82
:1031F3007001EB600E8A828B83E07002A3E06003B0
:10320300120C9602470CC082C0831236AE4010796E
:10321300FF120D32E9FA901EE4E493C39A50047945
:10322300018002790002435D74F01203CB8A088B9C
:1032330009890B750C008A828B83A3A3A3A3A3A381
:10324300A3A3E0F9120D3E8A0E8B0FAE0EAF0F75DE
:103253000A01EE7001EF600302330C8508828509D1
:1032630083A3A3A3A3A3A3124F5485088285098331
:10327300A3A3A3A3A3A3A3124045124F46120D2653
:103283008A0C8B0DAE0CAF0DEE7001EF70030234A0
:103293004B8E828F83A3A3A3A3E4F0A3F0E50824BA
:1032A3000B123457E0C0E0122965D0E0F0120DFE96
:1032B300EE240CF582EF124B73E508240EF582E53C
:1032C30009123BF8EE240EF582EF124727750C0125
:1032D300EE2406F8EF123453547FF0A3E054FC12AB
:1032E300482E54046003023392900A7012402E74E5
:1032F3000778081209B88E828F83A3A3A3A3A3A37D
:10330300E04508F0A3E04509F08E828F83A3A3A3D1
:10331300A3A3A3E05480F508A3E05403F5097407BD
:103323007808120A61E50B607974028E828F83A399
:10333300A3A3A31244F7240D124A89A2E2500B90CF
:10334300035C12474CA3A312472AE5087003023417
:1033530019EE2406F8EF3400F9E8FAE9FB8A828BC8
:1033630083E0547FFCA3E054FCFD74FF2508F508BB
:1033730074FF3400F509740778081209B8E5084C9E
:10338300F8E5094DF98A828B8312472A0234198E94
:10339300828F83A3A3A3A3A3A3E04480F0A3E002AB
:1033A300330BE5087005750A00806B8E828F83A34B
:1033B300A3A3A3A3A3E0542060171211708A087477
:1033C3007F5508F8745F288E828F83A3A3A3A380FD
:1033D300278E828F83A3A3A3A3A3A3E05410600E1D
:1033E3001211708A08740F5508F8740A80D88E82F7
:1033F3008F83A3A3A3A37401F0A3E4F074048E82C8
:103403008F83A3A3A3A3A3A3A3A3A31236C870016B
:10341300EB70031246AC7401650C702F8E828F83A0
:10342300A3A3A3A3124CC8F9EEFAEFFB120D2CE9E8
:103433006019EE240C1229727002A3E060031234A7
:1034430062EEFAEFFB1211F4750A00A90A024E5359
:1034530012482922FAE5093400FB8A828B8322EE83
:10346300240C12476412346C22E0FAA3E0FB12111D
:10347300F42274F41203CB74F71208C87E00120D01
:103483003EEA7001EB70030235418A828B83A3A36A
:10349300A3A3A3A3A3A3A3E0640660030235418A05
:1034A300828B83A3A3A3A3A3A3A3E0FF8A828B831B
:1034B300123D34E0C0E07408120A97D0E01238805D
:1034C30012495D12472A120D5074085FF9E4700126
:1034D300E96069851882851983124F547A007B004D
:1034E300120D20EA7001EB705390036E12397D12B6
:1034F300190E7C007D007A007B00802A8E828F83E8
:1035030012386D64FF7004A3E064FF602F90036EB4
:10351300123548124F461215CCE9641A601E7C001E
:103523007D00EEFAEFFB120D208A0A8B0BAE0AAF79
:103533000BEE7001EF70C579001219147E01EEF9DC
:103543007409022FDA12354C22E0FCA3E0FD8E82CF
:103553008F832274F71203CBEA7001EB700590039B
:10356300C080068A828B83A3A31237897001EB6024
:103573002C8A828B83A3A3A3A3A3A3A3E05408F958
:10358300E47001E960DDEC7001ED60158A828B83E4
:1035930012386D6C7003A3E06D70C880047A007BF1
:1035A3000002389174F21203CBEAFEEBFF890A8C16
:1035B300088D097A107B001211EEEA7001EB603C72
:1035C300E48A828B83A3A3A3A3A3A3A3A312360D8D
:1035D300E50A12387412574C8A828B83A3A3A3A3E0
:1035E300E4F012360DA3A3F0124FC0EA240CF582C7
:1035F300EB123B1A123602A3A3F0A3F0023B32A351
:1036030012360722F08A828B8322A3123878A3A36F
:10361300A3A32274F41203CBEAFEEBFF89088C0AFE
:103623008D0BEE7001EF605C740165087014790115
:10363300120D32E9FA901EE8E493C39A500F791100
:1036430080667404650870361236AE40F18E828F40
:1036530083A3A3A3A3A3A3A3A3A3E5081236BDA394
:10366300A3A3123D408E828F83A3A3E4F0A3F09023
:1036730003C0E07002A3E09003C0601B800A7402E1
:10368300650860C979C18020124D2A7002A3E088C1
:10369300828983A3A370F1EEF0A3EF1236C8700101
:1036A300EB70031246AC7900022FDD7904120D3260
:1036B300E9FA901EEFE493C39A221236C122F08EE8
:1036C300828F83A322F01236CD227A207B009003CF
:1036D300BBE0F91212BAEA22C082C083E9FC790086
:1036E3009003C0801D8A828B83A3A3A3A3A3A3A358
:1036F300A3A3E06C600574FF6C7001098A828B835D
:10370300A3A31237897001EB70DB02435D74F712D8
:1037130003CBEA7001EB70059003C080068A828BAD
:1037230083A3A31237897001EB60248A828B83A35E
:10373300A3A3A3A3A3A3A3A3E06970E1EC60148AEA
:10374300828B83E0240D124F2DA2E240D080047AB5
:10375300007B00023891C082C0839003C080068A38
:10376300828B83A3A31237897001EB60128A828B49
:1037730083A3A3A3A3A3A3A3A3E06970E280047A12
:10378300007B0002435D122A32EA2274F11203CB5A
:103793008A0A8B0B8C0C8D0D750800750900EA7075
:1037A30001EB60319003C080068E828F83A3A31246
:1037B30037E17001EF601EAC0CAD0DEEFAEFFB8547
:1037C3000A82850B83121A7BE9640170DCEEF8EF41
:1037D300F988088909AA08AB097F0702064BE0FEAE
:1037E300A3E0FFEE2274F71203CB9003C0123BFB5E
:1037F3007C007D00800DE8FCE9FD88828983A3A31A
:10380300123BFBE87001E96030EA687002EB697013
:10381300E59003C0124F46E86A7002E96B8882891B
:1038230083A3A37008123BFB9003C08009123BFBE8
:103833008C828D83A3A312472A02389174F7120353
:10384300CBEAFEEBFFEE7001EF6016120D4A123861
:10385300967002A3E06003123462EEFAEFFB1211DA
:10386300F4023891F582EF12476712388722A3A337
:10387300A312387822123607A3A3A3A32212360772
:10388300123887221246D9E022741F1208637F017F
:1038930002064B8E828F83E0241C124A8D12346DF4
:1038A3008E828F8312346CEE240C12474322C08223
:1038B300C083EAFCEBFDEC7001ED700479058049EF
:1038C300EC24FBF582ED34FFF583E07002A3E07096
:1038D3000812390FE064FF600512117C80DE90034B
:1038E300BBE0C0E012390FD0E0F0901EE5E493F99D
:1038F3007AC27B031211A6E96401700B7A007B2064
:103903001246B079008002790402435DEC24FFF58E
:1039130082ED34FFF5832274F41203CBA2AFE49259
:10392300E0F508C2AF9003C21237E17001EF603DCA
:10393300EE24FBF582EF34FFF583E07002A3E07A17
:10394300007B209003BB60051246B38005E0F912AB
:1039530011B2750A00750B00780A120835EEFCEFF8
:10396300FD7AC27B031211A07402120863E508A258
:10397300E092AFEEFAEFFB022FDD124F588518826B
:10398300851983AA82AB832274F21203CB74FC12CF
:1039930008C8EAFEEBFF750AFE750BFF120D0EE970
:1039A30060057911023B10EE2415122972603490E0
:1039B3000A89E0C43354E0C0E0E0333354FCFAD066
:1039C300E04AC0E0EE2415122968D0E01236BD1299
:1039D3003B207001EB600C750AFF12483912473B1C
:1039E300D2E0F08E828F8312231A6006EE24121225
:1039F3003B17EE24131229727010901EEBE493C050
:103A0300E0EE2413122968D0E0F08E828F83E0A2C7
:103A1300E750045403801CEE24141229727015908D
:103A2300034DE0C0E0EE2414122968D0E0F09003C7
:103A33004DE004F0EE241112297264017016900512
:103A43005BE0600D900358E0700A8E828F83E07014
:103A530003123B148E828F83E064017016EE240BF5
:103A63001238676402700CEE240F1229724440F07E
:103A7300A3E0F0851882851983AC82AD83EEFAEF5B
:103A8300FB120D748A088B0974FE650A700474FFB7
:103A930064FF70098E828F83A3A3124F02EA700121
:103AA300EB60668E828F83E0C0E07401120A97D0C8
:103AB300E0F07402120A97124FC47401120A978538
:103AC300820C85830D780C120835EE240F122968B9
:103AD3001206C3EE240E122972F50C780C12083963
:103AE3009003611206C37407120A97E0F9AC0AAD9A
:103AF3000B120D6E7407120863E9FE74106E700BDF
:103B0300AA08AB091211F480027E10EEF974048046
:103B13001BEE2411F582EF124767E4F022A3122A69
:103B23003279FF12194AEA22A90A74031208637F41
:103B33000602064BC082C08374DE1208C88A828BD9
:103B430083A3A3A3A3123BFB740E120A97E8F0A36B
:103B5300E9123C06740C120A97123BFF240DF582FE
:103B6300EB122975C0E0741A120A97D0E0F0124ED6
:103B730058EB123BF87420120A97123BFF2415F5F9
:103B830082EB122975C0E07408120A97D0E0F0EABC
:103B9300241CF582EB123BF87412120A97123BFFB6
:103BA3002411F582EB122975C0E07409120A97D02B
:103BB300E0F074FF851882851983F07401120A9767
:103BC30074FFF07402120A9774FFF0908043120698
:103BD300BF7404120A97AC82AD837407120A97AAC2
:103BE30082AB83120BBE7404120863790074220241
:103BF3004573F582EF124767123C0F22E8F0A3E901
:103C0300F0EA22123607123C0D22A3A3E0F8A3E048
:103C1300F92274EC1203CB74EE1208C88A128B13C8
:103C2300ECFEEDFF89097426120A97124F027428DD
:103C3300120A97E0F50E7429120A97124F0A742B91
:103C4300120A97E0F510A3E0F5117508107A1E7BB0
:103C5300001211EE7402120A97124B777402120AC1
:103C630097E07002A3E07003023D2D851882851949
:103C730083AA82AB837950124579124F467402129C
:103C83000A97123D34A3124B777410120A97123D10
:103C9300407402120A97E0240B1222457402F012B8
:103CA3000A97123D347402F0120A971246D1124F4A
:103CB300C47402120A97E0241B122245E509F0742A
:103CC30002120A97E0240C122245E50EF074021248
:103CD3000A97E0241C122245E512F0A3E513F074C1
:103CE30008120A97124E48740A120A97E50EF085D5
:103CF3001082851183C082C083740D120A97AC822F
:103D0300AD83D083D0827403120794F97402120A2C
:103D130097AA82AB83120D14E9640170057508003C
:103D230080087402120A97123468A9087412024EAA
:103D3300381246D5A3A3A3A3A3A3A3A322E50AF002
:103D4300A3E50BF02274EE1203CBEAFEEBFF8C0823
:103D53008D0974088E828F83A312476CE060087408
:103D6300108E828F83A3F012296F60098E828F8356
:103D7300A3E02408F0EE241512297260088E828FC6
:103D830083A3E004F08E828F83A3A3A3A3A3A3E062
:103D930060198E828F83A3A3A3A3A3A3A3E0C3333A
:103DA3002402FA8E828F83A3E02AF0EE24111229D3
:103DB300726005750B0E8003750B008E828F83A3D3
:103DC300E0C0E0EE240D122968D0E0FAE02A250BCA
:103DD3008C828D83F0EE2411122972600512425DEC
:103DE3002AF0850882850983E0C394754009750824
:103DF30000750900023F29E0FA7B0012507E700132
:103E0300EB7003023F29EEFAEFFB120D7AEA850805
:103E130082850983124B78EE2402F8123F43124045
:103E23003D123F77F0EE24040808123F43124495F5
:103E3300A3123F77A3A3F0EE2413123F5DF0EE2409
:103E430014123F5DA3F0750A08EE2416122972605E
:103E530010EE2418124F51E5082408125142750A36
:103E63001012296F6016EE241A124F51850A0CE5C1
:103E730008250C1251427408250AF50A8E828F8395
:103E8300A3A3A3A3A3A3E06059EE2407F510EF3483
:103E930000F511851082F583E0C0E0123F3012294E
:103EA3006BD0E0123F67E0C0E0123F3012296BD0C5
:103EB300E0123F67A3123F5012083185108285112B
:103EC30083E0C333FCE433FD850A0CE508250C12BB
:103ED30030B7120863851082851183E0C333250A46
:103EE300F50AEE2415122972600BC0E0123F30125E
:103EF300296BD0E0F0122965123F50120831EE24ED
:103F03000D122972FC7D00850B0A8E828F83A3E03C
:103F1300F8E50828F8E5093400F9E50A28FAE43950
:103F2300123F3C120863AA08AB09024670850A0CCB
:103F3300E508250CF582E50922FB121158740322CA
:103F4300EF123F48223400F98882898322E0F50C7E
:103F5300A3E0F50D750E00780C22124764123F831F
:103F6300A3A3A322F0050A8E828F83A3A3A3A3A3F3
:103F7300A3A3A322A3A3F088828983A3123F83224E
:103F8300124499A3A32274F61203CB8A828B83E093
:103F9300FC90035E12402E740278081209B8E508FB
:103FA3004CFCAD09EA241212402874067808120961
:103FB300B8E5084CFCE5094DFDEA2415F582EB1242
:103FC30029756004780180027800E4C84DFDEA2475
:103FD30011F582EB122975F508880974097808121E
:103FE30009B8E5094DFDEA2416124028740B780838
:103FF3001209B8E5094DFDEA2417124028740C781C
:10400300081209B8E5094DFD8A828B83A3A3A3A3F4
:10401300A3A312402E740A78081209B8ECFAE50932
:104023004DFB02470CF582EB124767E0F508750973
:104033000022F085188285198322E085088285098C
:104043008322A3E0F98508828509832274EE120393
:10405300CB8A0A8B0BECFEEDFF750F01E9C39408C5
:10406300500579000242388E828F83E9123603129B
:1040730044A2E96003750F001244A98E828F831254
:104083004503EE124E59EF1244ECC0E0EE24111238
:104093002968D0E01244E4C0E0EE2412122968D06B
:1040A300E0F074088E828F83125157E0601412443B
:1040B3008AEE125138EF1247278E828F83A3E024B2
:1040C30008F08E828F83A3A3A3A3A3A3A3A3E0607B
:1040D3001B8E828F83A38582088583091244C9EED0
:1040E3002415F582EF1244D5E02408F08E828F83E5
:1040F300A3A3A3A3A3E0601A8E828F83A385820860
:104103008583091244B88E828F83A3A3A3A3A3122A
:10411300426FEE2419123B17EE241B123B17A31216
:10412300475CE070030241D2EE2419F8EF3400F942
:104133008E828F83A3858208858309E0FAE50A2AA4
:10414300F582E50B1229758882898312426FFAE59D
:104153000A2AF582E50B122975C0E0EE241A12290A
:1041630068D0E012427412482E605D901EEEE49314
:10417300C0E0EE2419122557D0E0C39A50057511FB
:104183000C8003E0F5118E828F83A3E0F8E50A2803
:10419300F50CE50B12423B120831E511C333FCE485
:1041A30033FD7A2D7B09123F3D120863EE241B1267
:1041B3002968742DF0A37409F0E511C333FA850857
:1041C30082850983E02A8006EE2418124245F08E88
:1041D300828F83E0C0E0A3E0FAD0E0C39A500302E9
:1041E30040658A08E50A2508F8E50B3400F9EE2452
:1041F3001D12424D1244FCC39AC0E0EE241712294B
:1042030068D0E0124730602BEE2417F8EF3400F942
:10421300880889098882F583E024F212481F240E56
:10422300FAA3E03400FB88828983124B7712425D44
:10423300C39AF0A90F0246703400F50D750E00788D
:104243000C22F582EF124767E422F582EF12425403
:10425300223400F583E8F0A3E922900359E0F91230
:1042630019F8E9FA850882850983E022124274F07D
:10427300221244DCE0042274F41203CB8A088B0973
:10428300EA124308F0EA1313543F124301A3A3A312
:10429300F0EAC41313124308A3A3F0EB1242FA1279
:1042A30043127409780A120A611242F81243117414
:1042B3000A780A120A61E50A5401C0E0EC2418F5F1
:1042C30082ED12296BD0E0124317740B780A120A9D
:1042D300611242F8A3124311740C780A120A611294
:1042E30042F8A3A3A3A3A3A3A3A3F0740D78081276
:1042F3000A61022552E50A54018C828D8322540FF0
:104303008C828D832254038C828D83A3A322A3A347
:10431300A3A3A3A3F08A0A8B0B22C082C0837900D4
:104323008A828B83A3A3A3A3A3A3E0900358600F64
:10433300E070228A828B83A3A3E07019098016E0C0
:1043430060138A828B83124F3D900361E06A70038E
:10435300A3E06B70E78003124F46D083D08202073D
:10436300F974F01203CB8A0A8B0B890C8C088D0924
:104373008A828B831244A21244A985088285098309
:10438300124503E508124E59E5091244ECC0E0E575
:10439300082411F582E50912296BD0E01244E4C028
:1043A300E01230AE12296BD0E0F0740885088285E4
:1043B3000983A3124858601012448A125136E50942
:1043C3001244D5A3E02408F0850882850983A3A3BA
:1043D300A3A3A3A3A3A3E0601B850882850983A3EA
:1043E3001244C5E5082415F582E50912425012442A
:1043F300FC2408F0850882850983A3A3A3A3A3E073
:104403006019850882850983A3AE82AF831244B8FD
:104413008508828509831244F704F0AA08AB0912C0
:104423000D8CE9F50D705B850882850983A3A3A331
:10443300A3A3A31244957016E0FA8A0EE50A250E8B
:10444300F8E50B340012471EE50CC39A802412448E
:10445300C5740E28F8E43912471E900359E0F91287
:1044630019F8E9FB8E828F83E0FAE50CC39A24F2F4
:10447300C39BC0E0E5082417F582E50912296BD038
:10448300E0F0A90D024E53E50A2408F8E50B3400C9
:10449300F92212449922E0850882850983A3221216
:1044A3002A32120D8622850A82850B83A3A3124525
:1044B30019E0F9EA22E0F8E50A28F582E50B12474C
:1044C3004622AE82AF83E0F8E50A28F8E50B340014
:1044D300F9221242541244DC22F0850882850983B2
:1044E3002212452CA3A3A3E022124767E812452515
:1044F300A3A3E022A3A3A3A3A3F08E828F83E0222E
:10450300A3A3A3A3A3A3A3A3A3124525124519A35E
:10451300A3E0F9EAF822E0FA850A82850B83A3A3D4
:10452300A322F0A3E912452C22F0850A82850B838E
:10453300A3A3A3A322C082C0837AD07B0379E21210
:1045430018DE7AD07B0302435DC082C0839003618F
:1045530002435AC082C08374FE1208C8851882853C
:104563001983AA82AB83794B124579124F467402A1
:1045730012086302435D1218DE85188285198322AF
:10458300C082C083794A1218DE02435D74F61203B7
:10459300CB9003D8E0FE04F0EEF9120D3EEA700171
:1045A300EB70EEEE60EBF902470C74EE1203CBEA0C
:1045B300FEEBFF8C088D09890A7412120A97E0F545
:1045C3000C7413120A97E0F50D750B00750E0012AB
:1045D3000E58EA7001EB7014E50D7048A90AAC0897
:1045E300AD09EEFAEFFB120E70024670E50A602386
:1045F300EA2402F582EB122975F8850A08E50828F2
:10460300F8E4340013E813F0700974018A828B8391
:10461300A3A3F0E50D6056E50C7009E48A828B8351
:10462300F0750E017401650D701FE50C60169003A3
:10463300E1E004F0C0E0900A71E0FAD0E0C39A40F0
:1046430008750B01E49003E1F0E50E7004E50B60DF
:104653001CE50B6018900364E06E7003A3E06F70B9
:104663000CEEFAEFFB7901120BE21246757F0A0298
:10467300064B7A017B009003BBE0F91212B422C00F
:1046830082C08374016A7001EB70077A011246AE2F
:104693008014900A68124B77EA7001EB60051222CE
:1046A300DA800312467502435D7A207B009003BBD8
:1046B300E0F91211AC22C082C083900A6A0231D49D
:1046C300C082C083900A6C0231D48E828F831246DB
:1046D300D5221246D922E0F81246DF22A3E0F58361
:1046E300888222A2F0E492E01246F479521218E48E
:1046F30022851882851983F0AA82AB83221246F49D
:1047030079421218E4221208637F0202064BAA08B8
:10471300AB099003BBE0F912118222F9E508241DCD
:10472300F582E509124767E8F0A3E9F0221236C1E2
:10473300A3A3A3A3A3E022A3F0EE241512474322CD
:10474300F582EF3400F583E022E0F812475222A30A
:10475300E0F98E828F83A3A322F0EE24181247641C
:1047630022F582EF3400F58322F0EE24161247641B
:1047730022A374FEF0A374FFF02274F41203CBEAB5
:10478300FEEBFF7A007B0412467912481512472A82
:104793007409900370F0120D988A088B09AC08AD68
:1047A30009EE2413122968124F46125868640170E7
:1047B3004C7A0F1248037001EB604274028A828BB9
:1047C3008312481FFAA3E0FB8A828B83A3E0FC8A4F
:1047D300828B83A3A3E0FBEC850882850983A3A3D3
:1047E300F0A3EB12482EF8A312480E12403D1247D5
:1047F3003AFAA3E0FB794A1218E4124711022FDDBB
:104803007B001211768A088B09EA221246E0A3A3E1
:10481300A322900341123C0F900A6C22F0EE241D58
:10482300F8EF12482922123F48E022F08882898358
:10483300E02212485022EE240F1247434404F0A30F
:10484300E0221244DCA3A3A3A322F582EF3400F5F4
:10485300837401F022124845A3A3A3E022124C6201
:10486300120DEC22EE241712484D120D98EE241A65
:10487300124764EAF0A3EBF02274F41203CB74F34F
:104883001208C88908EAFEEBFF7C0D7D00790085DC
:104893001882851983AA82AB83121164EE241D1238
:1048A30029681246D1A3E0FA741F5A600A790112EB
:1048B300187E7900024957EAA2E55008740C120ADF
:1048C300977401F0EAA2E75008740B120A97740177
:1048D300F0EAA2E6740A5008120A977401F08008FD
:1048E300120A97E064017005EE24138003EE241589
:1048F300124F517402120A97AA82AB8312189612AE
:10490300296512495C12472A740A120A97E0640166
:10491300703312230F703B120DA48A0A8B0BA80A63
:10492300A90BEE240B122972687003A3E0697022AD
:10493300120D98EAFCEBFD7402120A97AA82AB836C
:10494300125868600D851882851983AA82AB831279
:104953000BDCA908740D022FDAE012496122F8A3D7
:10496300E0F98518828519832274F61203CB74F358
:104973001208C88A088B09ECFEEDFF7C0D7D0079D7
:1049830000851882851983AA82AB83125345A3A39A
:10499300A3A3A3A3A3A3A31249F61249FFFAA2E573
:1049A3005008740B120A977401F0EAA2E7500874D6
:1049B3000A120A977401F0EAA2E6EE500424138067
:1049C300022415124F517402120A971249E8A3A345
:1049D300E0C0E0740C120A97D0E0124C5A120BD6C6
:1049E300740D024709AA82AB831218968508828543
:1049F300098322E0124961E8F0A3E922F0EE241DC5
:104A0300124743F8124A0B221246DFA3E02274F73F
:104A13001203CB74E11208C8EAFEEBFF8E828F8388
:104A2300123161A2E050568E828F831224668A82ED
:104A33008B83A3A3A3A3A3A3E054FEF0A3E0124A92
:104A4300928A828B83E0241B124A89F98A828B83A0
:104A5300E0241CFAA3E012345A124F46120D92E9D5
:104A6300701B741D120A97124A8370118518828570
:104A73001983AC82AD83EEFAEFFB120DDA02388CA8
:104A8300123887640422124A8D22122249E022122C
:104A93004035AC82AD8322E9FA790074046A600A76
:104AA300740A6A600574036A7001090207F974F6EF
:104AB3001203CB74208A828B83F07401A3A3F012B8
:104AC3000B8E8A088B09AE08AF09EE7001EF600701
:104AD30074018E828F83F09003AEE07003124867F7
:104AE300EEFAEFFB02470CC082C08374019003C44B
:104AF300F0E9A2E350037403F0E9A2E15004E0D229
:104B0300E2F002435D74F61203CB79007C008A085D
:104B13008B0978081205C6F8FF073B4B394B394B15
:104B2300394B394B324B364B3B4B2F4B0C80097C6B
:104B33000480050C80F67C089003C4E05C600309E4
:104B43008003EC60010902470C74F61203CB8A82DE
:104B53008B83E07014A3E07002A3E0600C8A828B65
:104B630083124F451219D480047A007B0002470C4C
:104B73003400F583EAF0A3EBF02274F51203CB744F
:104B8300F31208C88A088B09ECFEEDFF750A12EAD6
:104B93007001EB70057900024C54900361E06508E5
:104BA3007004A3E065097017120D98EAFCEBFDEEA3
:104BB300FAEF1258677005750A018003750A00E45D
:104BC300851882851983F07401120A97E508F0A30A
:104BD300E509124C5A120ACEE9602A7403120A97A5
:104BE300AA82AB83120AB6E964017019750A0174CB
:104BF30003120A97AC82AD83EEFAEF125867602175
:104C0300750A00801C7412650A70169003ADE06487
:104C130002700EEEFCEFFDAA08AB09120AE6E9707A
:104C2300DFEEFCEFFDAA08AB09120E5EE9FA740A87
:104C33006A7005750A01801774A06A7012EEFCEFA2
:104C4300FDAA08AB09120E6AAA08AB09120E7CA9C9
:104C53000A740D0231CCE4124C5E22124C6222F033
:104C6300851882851983AA82AB832274F71203CB3A
:104C7300EAFEEBFF7508008E828F83A3A3A3A3A391
:104C8300A3A3A3E06014EE2415122968122A2212AA
:104C93000E04E9640170037508018E828F83A3A358
:104CA300A3A3A3A3A3E06018EE2413122968124C54
:104CB300C8FAA3E0FB120E04E9640170037508014E
:104CC300A90802389112354CA3A3A3A3A3A3A3A3BA
:104CD300A3E02274F21203CB74FD1208C88A088B76
:104CE30009ECFEEDFF890B750A017401120A977432
:104CF3000412513D7001EB602B124E58EB123BF83E
:104D0300740388828983123D42EE88828983A3A338
:104D1300F0EF88828983A3A312360212574C120B39
:104D230088E9F50A023B2B123C0F88828983A3A3EF
:104D3300E02274EC1203CB74F51208C88A0C8B0DB5
:104D4300890A8C0E8D0F741F120A97E0F50B7420DD
:104D5300120A97E0F510A3E0F5117E01EE120A970F
:104D6300740AF0E97007E50BC333240AF08518824F
:104D7300851983AA82AB83120DEC8A088B09EA702A
:104D830001EB7003024E34EA240B12512A74098E8C
:104D9300828F83124F1A450B122FE7AC0EAD0FEE25
:104DA300FAEFFB1218961230A5E50A702D7C0080ED
:104DB30023ECC333F8E433F9E51028F8E51139F9A6
:104DC30088828983122FE288828983122CD0F0A3F0
:104DD3000EAF830CECC3950B40D7E5082417F5827F
:104DE300E509124835120D98E508241AF582E509FC
:104DF300124B737403120A97AC82AD83AA0CAB0DEA
:104E0300120ABCE96019E5082416F582E509124E79
:104E130040120A97A882A983E5082418124723851C
:104E23000882850983124E46AA08AB09120B88E94A
:104E3300FEEEF9740B1208637F0C02064B12485006
:104E4300740322A3A3E50CF0A3E50DF0221208637B
:104E53007F0802064BEA240BF5822274EE1203CB81
:104E63008A0C8B0D890E8C088D097412120A97E037
:104E7300F50F7413120A97124F029004CCE07002DC
:104E8300A3E06078E50FC333F8E433F9740E28FA2E
:104E9300E439FB1211768A108B11AE10AF11EE704C
:104EA30001EF605874D48E828F83F0124E468E8247
:104EB3008F83A3A3A3A3E50EF0AC08AD09EE2405ED
:104EC300FAEF125145EE240D122968E50FF0850A19
:104ED30008850B09750A007808120831E50FC333FA
:104EE300FCE433FDEE240EFAEF1230BA120863EE3F
:104EF300FAEFFB9004CC1246D1121A7B024670E003
:104F0300F50AA3E0F50B22E0F50CA3E0F50D22E092
:104F1300F508A3E0F50922F0A3E50AC43354E0221F
:104F2300E0FA8E828F83A3A3E022FEA3E03400FF86
:104F33008E828F83E0228E828F83A3A3A3A3A3A356
:104F4300A3A3A3122A3222122A32120D802212475D
:104F530064124F5822E0FCA3E0FD2274F61203CB47
:104F6300EAFEEBFF9003C5801388828983E06E70AD
:104F730003A3E06F603F88828983A3A3124FBB70B2
:104F830001E970E57A047B001211EE8A088B09A807
:104F930008A909E87001E9601C88828983124FC45B
:104FA3009003C5124F4688828983A3A3124B77903F
:104FB30003C512472A02470C123C0FE8228A828B50
:104FC30083EEF0A3EFF02274F41203CB7E00900380
:104FD300C580070E88828983A3A3124FBB7001E9A2
:104FE30070F1EEC333FAE433FB12507E7001EB70C1
:104FF300030250787F009003C5802488828983123E
:105003004F54EFC333FAE433FBE5082AF582E5098D
:105013003BF583ECF0A3EDF00F88828983A3A31201
:105023004FBB7001E970D49003B612234A7003A3F7
:10503300E06978087019120835EEF50A780A120843
:10504300397C827D0379009003B6125087801A124F
:105053000835EEF50A780A1208397C827D03790057
:105063009003B6124F46120E167403120863AA0871
:10507300AB091211F4120BA0022FDD1211EE8A08F4
:105083008B09EA22122A32120E1C22C082C08380AC
:10509300128A828B83A3A3123BFB9003C512472A78
:1050A3001211F49003C51237897001EB70E30243C8
:1050B3005D74F61203CB90036E1251309003D91234
:1050C300511D12472A7AD97B0379501218E49003B1
:1050D300D912256AFAEFFB120E769003D9125130DA
:1050E3009004CEE07002A3E0602D7A067B001211DB
:1050F30076EA7001EB602074D58A828B83F0E4A397
:10510300A3F074018A828B83123871124FC4900406
:10511300CE1246D1121A7B02470C12512122E0F81B
:10512300A3E0F990036E22F582EB124767E0FEA33A
:10513300E0FF22E5082413F58222124860EA22FAEE
:10514300E5093400FB12189622124753A3A3A3A325
:10515300A3A3A322A312515C22F08E828F83A3A365
:10516300A3A3A3A3A322F0901EE612517122E493FA
:10517300F874012808E43400F97A027B002274F7FA
:105183001203CB7E0080041251B20E901EE3E4930F
:10519300FAEEC39A40F17E00EE1251C3124774E453
:1051A30088828983F00EEEC3940340EC023891EEBB
:1051B30075F017A424B9FAE5F03407FB120E4C225C
:1051C30075F003A424C7F8E5F03403F988828983D2
:1051D3002274F71203CB78007900800312530290F4
:1051E3001EE3E493FEC3E89EE994005069E8FEE9F8
:1051F300FFEE75F017A4FE85F00875F017EFA425F0
:1052030008FFEE12562BEF1258116A7003A3E06BDE
:1052130070CAE8FEE9FFEE75F017A4FE75F017EF0C
:10522300A42508FFEE24C3F582EF3407F583E06C71
:105233007003A3E06D600A74FF6C700374FF6D70FC
:105243009BE875F017A4F8AAF075F017E9A42AF9FA
:10525300E812530F80047A007B0002389174F6122F
:1052630003CB7CFF7DFF7AFE7BFF120E40EA7001C9
:10527300EB60030252FF7E007F008072EEF8EFF9CD
:10528300E875F017A4F8ACF075F017E9A42CF9E869
:1052930024C8F582E93407F583E0601EEEF8EFF9E0
:1052A300E875F017A4F875F017E9A42CF9E824C7FA
:1052B300F582E93407F583E0702CEEF8EFF9E87531
:1052C300F017A4F8AAF075F017E9A42AF9E824B9AD
:1052D300F508E93407F509850882F583124F46126C
:1052E3000C78AA08AB09EE24010EEF3400FF901EE0
:1052F300E3E493F8C3EE98EF9400408002470CE890
:10530300240108E93400F92275F017A424B9FAE955
:105313003407FB2274F71203CBEAFEEBFFEE7001B6
:10532300EF601612533F1247758E828F83A3A3A398
:10533300A3A3A3A3A3A31247740238917C177D00F0
:1053430079001211648E828F832274F71203CBEAE1
:10535300FEEBFF7508008018A808E875F017A4A9EC
:10536300F01257C37003A3E06F60031257C9050817
:10537300901EE3E493FAE508C39A40DC0238917483
:10538300F61203CB120E408A088B09A808A909E874
:105393007001E9600AE8240DFAE93400FB80047A1D
:1053A300007B0002470C74F41203CB8A0A8B0BECCC
:1053B300FEEDFF7508007509008039E50975F017E2
:1053C300A424BBFAE5F03407FB120AB6E96023A86C
:1053D30009125808650A7004A3E0650B7003750889
:1053E3000AEEFCEFFDE875F017A412586160034361
:1053F30008A00509901EE3E493FAE509C39A500453
:10540300E50860B7022552A3A3A3A3A3A3A3125441
:105413001AA3A3A3A3A322A3A3F088828983A3A38C
:10542300A32274F21203CB8A088B09ECFEEDFF74FE
:105433000E120A97124F02750C007C007D0180103A
:10544300121170E50CF5F0EA84ACF0750C007D00E8
:105453007800790080031253021256364003025437
:10546300F6E8FAE9FBEA75F017A4FA85F00D75F092
:1054730017EBA4250D12561B7004A3E064FF60D63E
:1054830012560065087004A3E0650960C91256004E
:105493006E7003A3E06F60BE125600650A7004A32A
:1054A300E0650B60B1E8FAE9FBEA75F017A4FA7559
:1054B300F017EBA4250DFBEA24C7F582EB3407F5BF
:1054C30083E014C39406508E74016D050C6087E568
:1054D3000CC39C4081E875F017A4F8AAF075F01787
:1054E300E9A42AF9E812562BE93407F583124F464B
:1054F3000255D278007900800312530212564340BA
:10550300030255B9E8FAE9FBEA75F012A4FA85F04B
:105513000D1255DF64FE7004A3E064FF60DB1255D7
:10552300D565087004A3E0650960CE1255D56E7089
:1055330003A3E06F60C31255D5650A7004A3E06549
:105543000B60B6E8FAE9FBEA75F012A4FA75F012FB
:10555300EBA4250DFBEA2448F582EB3406F583E042
:1055630014C394065093E8FAE9FBEA75F012A4FA1F
:1055730075F012EBA4250D1255F364017003025468
:10558300FCE0640270030254FC74016D050C7003AB
:105593000254FCE50CC39C50030254FCE875F01262
:1055A300A4F8AAF075F012E9A42AF9E8243FF582D9
:1055B300E934060254EEE50C6011EC700E740165DB
:1055C3000C60030254437C0102544E7AFE7BFF02BB
:1055D3003B32E8FAE9FBEA75F012A4FA75F012EB34
:1055E300A4250DFBEA243FF582EB3406F583E02284
:1055F300FBEA2443F582EB3406F583E022E8FAE97B
:10560300FBEA75F017A4FA75F017EBA4250DFBEA76
:1056130012562BEB12581122FBEA12562BEB1256A1
:10562300302275F017A4A9F024B9F582221258117B
:1056330064FE22901EE3E493FAC3E89AE9940022FD
:10564300901EDCE493FA740193FBC3E89AE99B226E
:1056530074F41203CB8A0A8B0BECFEEDFF75080082
:10566300750900800CE5082401F508E5093400F507
:1056730009901EE3E493F8C3E50898E50994005004
:105683003CEEFCEFFDE50875F017A4F8AAF075F001
:1056930017E509A42AF9E812586160C9E50875F00D
:1056A30017A4F508AAF075F017E509A42AF509E58A
:1056B3000812562BE5093407F583123D40022FDD0E
:1056C30074F01203CB8A0C8B0D8C088D09890A1296
:1056D3000E468A0E8B0FAE0EAF0FEE7001EF6054C5
:1056E30012533FE50CF0A3E50D12575612574DE543
:1056F3000A600AEE240F122968E50A800312574351
:10570300F09003DDE07002A3E0601A9003B5E0645B
:10571300017008EE240E1242458010EE240E122969
:105723006874078006EE240E12574612516912025E
:105733000F12573A024E53EE240D124764E8F0223B
:10574300EE240F124764740122A3A3E508F0A3E536
:1057530009F02212515CA3A32274F51203CB8A0829
:105763008B09ECFEEDFF750A008014E875F017A4B1
:105773001257C37003A3E06F60031257C9050A9061
:105783001EE3E493FAE50AC39A5024A80AE875F0E5
:1057930017A4A9F01257B5E065087004A3E06509E2
:1057A30070C9E875F017A41257B5124FC480CE0222
:1057B30031CF1257B92224C3F582E93407F5832286
:1057C3001257B9E06E22E812530B120E4C2274F7F3
:1057D3001203CBEAFEEBFF750800801AA8081258E3
:1057E300086E7003A3E06F700BE81258177005E59D
:1057F300081251B30508901EE3E493FAE508C39A2F
:1058030040DA023891E8125625E91258112234077A
:10581300F583E02275F017A424BBFAE93407FB12E1
:105823000AB6E922C082C08374F81208C8851882B8
:10583300851983AC82AD83758380758228740812C1
:105843000794851882851983AC82AD8312586864E6
:10585300017004790080027901740802457324BB46
:10586300FAE93407FB121890E92274F71203CBE923
:10587300FE120AFEEE900A35F090030C744CF0A36E
:10588300741AF090030E7446F0A3741AF090031088
:105893007440F0A3741AF0900312743AF0A3741ACC
:1058A300F0026D0B74F71203CBE9FEE4900302F0F0
:1058B300EE900301F07C697D057A037B0312189651
:1058C300900A88E090030BF0121A16026D0B74F421
:1058D3001203CB8A088B0974805509F9E47001E936
:1058E3007021EA5402605B7401900A34F07402651B
:1058F30008FA806CE06402700312197AEEFAEFFB87
:1059030012117C9003011275417001EF602B8E829E
:105913008F83E0640170DD12739A1206BF1259651A
:10592300120835EE240B125BC81206C3127550120F
:105933001110740812086380C3AA0874806509FBF8
:10594300801EEA54046004740480A4EA5408600CC2
:10595300121A1074086508FAAB0980047A007B00F8
:10596300800DEE240FF50AEF3400F50B780A227F41
:105973000402064B74F41203CB8A088B098A828BC8
:1059830083A3A3A3E02410126D88FA1273FC7001A1
:10599300EF7003025A2974028E828F83F0E4A312FC
:1059A30073EAA3A3A3A3E8F0A3E9127132A3A3A309
:1059B300A3A3A3A3A3F0E5082403F8E5091269A5AB
:1059C3002410126BF68E828F83A3A3A3A3F0EE247D
:1059D30009FA125A2C126DD0F5838882E0A2E550A1
:1059E3000474018001E48E828F83A3A3A3A3A3F095
:1059F300E5082403F888828983126D83127822EBE9
:105A0300125BCB125A3712083112781CEB126E025A
:105A13008E828F83A3A31273A7120863EEFAEFFBA0
:105A2300900301127413025972EF3400FB8E828FBC
:105A330083A3A322E0F508A3E0F509750A0078081B
:105A43002274F21203CB8A088B09ECFAEDFB740E75
:105A5300120A97E0FC120B2E8A0C8B0DAE0CAF0DC5
:105A6300EE7001EF6023AC08AD09120B1CE960195D
:105A7300AC08AD09EEFAEFFB120B22E97007EEFA60
:105A8300EFFB120B167900800279B48003120863CE
:105A93007F0602064B74EE1203CB74F71208C88A12
:105AA3000A8B0BECFEEDFF750FB3750E00750C0042
:105AB300750D00800CE50C2401F50CE50D3400F5A3
:105AC3000D901EDAE493F8740193F9C3E50C98E59D
:105AD3000D994003025BB9AA0CAB0D120B7C8A082B
:105AE3008B09EA7001EB60CD8A828B83A3A3A3A306
:105AF300A3E0250EF50EF510C3E50A9510E50B940A
:105B03000050B27C157D007900EEFAEFFB1271773D
:105B1300A3A3A3A3E50AC3950EFAE02AC333F8E4CB
:105B230033F9E50828F582E50939F583A3A3A3A38F
:105B3300A3A312747AA3126DA9EAFCEBFDEEFAEFAC
