:020000040000FA
:06000000020A420201B1F8
:03002B00020811B7
:030033000205A71C
:030053000200EBBD
:03006B0002057D0E
:100083000201450101010503012010201020102069
:1000930010D60ED00E2010471D00000000831C0058
:1000A3000000000C0000000C0001FF1027010100FC
:1000B300B8040000000A05E80364006400B8010204
:1000C300020008000005020701051E02051E020AC0
:1000D3000A03B80B02803E010203320001FFFF0254
:1000E3000A1401E002020612C0E074F2120430A204
:1000F300AFE492E0FED2AFE5A7FAE5A1FBEA5B54D9
:1001030010600812163875A1EF802AEAA2E0C0D069
:10011300EBA2E092F01209A5158182F050179061CD
:1001230098E0FA9005DCE0C39AA2D265D03350027E
:10013300EAF075A1FE751A00EEA2E092AF7F01020C
:1001430004E1C0E074F2120430A2AFE492E0FED204
:10015300AF9061A4E0FA759B00E5915A54086008DA
:100163007591F712167A802AE5915A541060087532
:1001730091EF121680801BEAA2E0C0D0E591A2E0C5
:1001830092F01209A5158182F05007E0C2E0F01247
:1001930017C49061A3E0FAE5E95A5404600E1217FC
:1001A3009A75E9FB906193E0A2E640F28087C0E094
:1001B30074F2120430A2AFE492E0FED2AF9061A5D4
:1001C300E0FAE5BF5A5404600675BFFB1217DC0260
:1001D3000138C3E498F8E499F91202168026C3E4BF
:1001E3009AFAE49BFBE920E7E9120216E498F8E4A3
:1001F30099F922C3E498F8E499F9120216E498F8FD
:10020300E499F9C3E49AFAE49BFB22EB20E7CFE9F4
:1002130020E7E0B90010BB0008E88AF084F8AAF0F0
:1002230022E4FBC8FA22EB70227B10C833C8C9331F
:10023300C9335007C39AC3DBF280069A50012ADB05
:10024300EAC833F4C8C933F4C9FA2275F008E4C81C
:1002530033C8C933C933C99AC99B5004C92AC93B96
:10026300D5F0ECFBC833F4C8E4C9FA22080808EA5D
:10027300C0E0EBC0E086F0E7A4FA180986F0E7A433
:100283002AFA180986F0E7A42AFA180986F0E7A4DF
:100293002AFA1986F0E7A4FBE5F02AFA190886F092
:1002A300E7A42BFBE5F03AFA190886F0E7A42BFB49
:1002B300E5F03AFA18180986F0E7A4C5F02BFBE439
:1002C3003AFA1908E7C5F0C6A426F6E5F03BFBE4C5
:1002D3003AFA1886F0E7A4F6E5F00826F6E43B08B8
:1002E300F6E43A08F6D0E0FBD0E0FA22E4CFC0E02F
:1002F300E4CEC0E0E4CDC0E0E4CCC0E075F020C3C0
:10030300E633F608E633F608E633F608E633F6187E
:100313001818EC33FCED33FDEE33FEEF33FFC3EC83
:100323009709ED9709EE9709EF97191919400FFFF0
:10033300EC97FC09ED97FD09EE97FE191906D5F028
:10034300BEECF709EDF709EEF709EFF7191919D024
:10035300E0FCD0E0FDD0E0FED0E0FF22120A8CB931
:1003630000030203B4E4900301783579088002F0B6
:10037300A3D8FCD9FA781A9000867A01BA000280D1
:1003830007E493A3F608DAF9900A35AA82AB8390BF
:100393000087786579018015E493A3AC82AD838AE5
:1003A300828B83F0A3AA82AB838C828D83D8E9D915
:1003B300E77582DF7583DB74021207F3758282753A
:1003C300831A74001207F32518C582C0E0E51934B7
:1003D300FFC583C0E0E518C3958224F8F8E4C5A8F7
:1003E300858319858218C5A8E8CEF0A3E520F0A37C
:1003F3007808E608F0A3DEFAEFF0A3E58124FAF823
:10040300E608F0A3E608F0A3E608F0A30808E60868
:10041300F0A3E608F0A315811581D0E0FED0E0F843
:10042300158115811581E8C0E0EEC0E022C0D0251A
:1004330018C582C0E0E51934FFC583C0E0E518C3E1
:10044300958224F310AF0885831985821880088567
:100453008319858218D2AFC8F0A3E9F0A3EAF0A309
:10046300EBF0A37908E709F0A3D8FAECF0A3EDF0D9
:10047300A3EEF0A3EFF0A3D0E0F0A3D0E0F0A3D07D
:10048300E0F0A3E520F0A3E5F0F0A3220875F01057
:100493008E218F228582268583258518828519835F
:1004A300E0CEA3E0CF852682852583EBC9EAC8ED9C
:1004B300CBECCAC3E833C8E933C9EA33CAEB33CB5D
:1004C300C3EA9EF524EB9FF523B35004AB23AA2480
:1004D300EC33CCED33CDD5F0DAAE21AF2222851942
:1004E30083851882E0C0E0A3E0F9A3E0FAA3E0FB70
:1004F300A37808E0F608A3DFFAE0FCA3E0FDA3E09D
:10050300FEA3E0FFA3E0C0E0A3E0C0E0A3E0F5D0DA
:10051300A3E0F520A3E0A3F5F0E4C5A8858319853E
:100523008218C5A8D082D083D0E0F8D0E032D0833F
:10053300D082ECC0E0EDC0E0E493A3FCE493A3FD20
:10054300ED4C600D12060CEC24FFFCED34FFFD8036
:10055300EFE493A3FCE493A3FDED4C600D12071DA0
:10056300EC24FFFCED34FFFD80EFD0E0FDD0E0FC98
:10057300E493A3C0E0E493C0E022C0E074F2120469
:1005830030A2AFE492E0FED2AFE589A2E1500312BC
:100593001548758900C2C5751A00EEA2E092AF7FB7
:1005A300010204E1C0E074F2120430A2AFE492E06D
:1005B300FED2AFE58BA2E05003121548758B00C243
:1005C300E880D4D083D082E9C0E0E493A3C386F06B
:1005D300C5F095F0F908E493A386F0C5F095F070A3
:1005E3000BE493A3C3994005E9048002A3E475F0E7
:1005F30002A42582F582E5F03583F583D0E0F9E4A2
:1006030093A3C0E0E493C0E022C0E0C3E493960860
:100613007401939618400FE493667008087401936D
:10062300661870007019A3A3C3E49396087401932A
:100633009618A3A3400DD0E0D0E0D0E002056DA34F
:10064300A3A3A3A3A3D0E022851983851882E0A3E3
:10065300FEE0A3F5207808E0A3F608DFFAE0A3FFA5
:10066300E0A3C0E0E0A3C0E0E0A3C0E0E0A3C0E0FB
:10067300E0A3C0E0E4C5A8858218858319C5A8D086
:1006830083D0820207F9D083D082C5F0E493A3C557
:10069300F0C395F0F5F0E493A3C395F04005E5F0BE
:1006A300048001E475F002A42582F582E5F0358328
:1006B300F583E493A3C0E0E493C0E02274048004D0
:1006C30074028000CCC0E0EDC0E0E518C39CCCAD63
:1006D3001950011D10AF068C188D1980068C188DCA
:1006E30019D2AF120794D0E0FDD0E0FC227402804F
:1006F30000CCC0E0EDC0E0E518C39CCCAD195001BF
:100703001D10AF068C188D1980068C188D19D2AF69
:10071300120772D0E0FDD0E0FC22C0E0C0F088F008
:10072300E4936670080874019366187000A8F0A338
:10073300A3700BD0F0D0E0D0E0D0E002056DA3A30E
:10074300D0F0D0E022D083D082CCC0E0E493A36089
:10075300061207D41470FAE493A360061208DE1499
:1007630070FAD0E0FCE493A3C0E0E493C0E022CAB3
:10077300C0E0E493A3C582CCC582C583CDC583F015
:10078300A3C582CCC582C583CDC583DAE5D0E0CAD3
:1007930022CAC0E0E0A3C582CCC582C583CDC58390
:1007A300F0A3C582CCC582C583CDC583DAE6D0E08C
:1007B300CA227009080808226016181818C6C3331D
:1007C300C608C633C608C633C608C633C6D5E0EA6C
:1007D30022C0E0E493A3D39C5010E493A3C39C40B2
:1007E3000AD0E0D0E0D0E0020765A3A3A3D0E022C3
:1007F300C09FF59FE473D09F22D083D082C09FE433
:1008030093C0E0740193C0E0740293F59F22C0E0AB
:10081300C0D0EAC0E0E5A8D2AFC2C7751A00A2E70C
:1008230092AFD0E0FAD0D0D0E0327404800A7403DF
:100833008006740280027401C0E0F404120848D0F8
:10084300E0120A7F222518F58210AF08F51840023E
:1008530015198008F51840021519D2AF851983229E
:10086300C0D0251810AF08F518500205198008F5F7
:100873001850020519D2AFD0D022BB0102E722C023
:1008830082C08389828A83BB0003E08002E493D021
:1008930083D082226016080808C6C313C618C6137D
:1008A300C618C613C618C613C6D5E0EA22C3E0C6E7
:1008B30096F608A3E0C696F608A3E0C696F608A344
:1008C300E0C696F622251810AF08F5184002151950
:1008D3008008F51840021519D2AF22C0E0E493A3B3
:1008E3006C7009D0E0D0E0D0E0020765A3A3D0E0AC
:1008F30022C3E09608A3E09608A3E09608A3E09637
:10090300A2D265D03322E066701008A3E066700AB5
:1009130008A3E066700408A3E06622C3E697F6081E
:1009230009E697F60809E697F60809E697F622C35B
:10093300E096F008A3E096F008A3E096F008A3E0A1
:1009430096F022E026F008A3E036F008A3E036F0A4
:1009530008A3E036F022E026F608A3E036F608A363
:10096300E036F608A3E036F622E627F60809E6376E
:10097300F60809E637F60809E637F622E657F608D9
:1009830009E657F60809E657F60809E657F622E09E
:1009930056F608A3E056F608A3E056F608A3E05679
:1009A300F622C0E0E8C0E0E58124FCF8E6A2E7D047
:1009B300E0F8D0E022700422600D18C6C333C608E5
:1009C300C633C6D5E0F41822E056F008A3E056F08B
:1009D30008A3E056F008A3E056F022E647F608091C
:1009E300E647F60809E647F60809E647F622E4C3B0
:1009F30096F608E496F608E496F608E496F622C31B
:100A0300E7960809E7960809E7960809E79622C6D4
:100A1300F4C608C6F4C608C6F4C608C6F4C622C39C
:100A2300E09608A3E09608A3E09608A3E096226068
:100A33000D08C6A2E713C618C613C6D5E0F3227580
:100A4300D0007581407518017519030002035FE03A
:100A5300F608A3E0F608A3E0F608A3E0F622600C8C
:100A630008C6C313C618C613C6D5E0F422E6F008B9
:100A7300A3E6F008A3E6F008A3E6F022CAC0E0E686
:100A8300F0A308DAFAD0E0FA2274F855C74401F566
:100A9300C77901222518F582E43519F58322C2AFFF
:100AA30075D69F020000221207FC5482011207FC34
:100AB300AC82011207FCC782011207FCEB82011210
:100AC30007FC2683011207FC6F83011207FCBA831C
:100AD300011207FC9784011207FC5285011207FCDF
:100AE3000886011207FCCF86011207FC5587011205
:100AF30007FC6787011207FC7187011207FC9888BE
:100B0300011207FC1389011207FC5E89011207FC1D
:100B1300C889011207FC288B011207FC488B0112BC
:100B230007FCA18B011207FC288C011207FC7E8CA9
:100B3300011207FCA18D011207FC6A8E011207FC4A
:100B4300CB8E011207FC498F011207FC9E8F011205
:100B530007FCD38F011207FC0591011207FCFF91DB
:100B6300011207FC5B92011207FCA492011207FC1D
:100B7300C692011207FC4F93011207FCE193011285
:100B830007FC6594011207FC7694011207FCF294AA
:100B9300011207FC9A95011207FCF395011207FC59
:100BA300CE96011207FC1797011207FC5497011206
:100BB30007FCFD98011207FC669A011207FC829B51
:100BC300011207FCA79D011207FCB29D011207FC4D
:100BD300BC9D011207FCC79D011207FCD19D0112A8
:100BE30007FCDB9D011207FCE69D011207FCF19D4A
:100BF300011207FC199E011207FC3D9E011207FC1E
:100C0300619E011207FCC79E011207FC179F011288
:100C130007FC359F011207FCC19F011207FCFF9FD0
:100C2300011207FC4CA0011207FCDCA0011207FC17
:100C3300ADA2011207FC49A3011207FC0DA4011286
:100C430007FC15A7011207FC6AA7011207FC94A76A
:100C5300011207FCDAA8011207FC25A9011207FCFF
:100C63007CA9011207FC84AA011207FC48AB0112FC
:100C730007FCC0AB011207FC4CAC011207FCFB1EC6
:100C8300001207FC481F001207FC2F21001207FC6B
:100C93006D21001207FCB921001207FC6622001225
:100CA30007FCC022001207FCF622001207FC5E2399
:100CB300001207FC7924001207FC8F25001207FCA1
:100CC3004A26001207FCAA29001207FC432A001235
:100CD30007FC342B001207FCC72B001207FCE82C7F
:100CE300001207FCF72E001207FCAE2F001207FCC0
:100CF300B82F001207FCF92F001207FCD73000129F
:100D030007FC7B31001207FCE731001207FC1432A9
:100D1300001207FC3632001207FC8034001207FC75
:100D23006135001207FCB235001207FC21360012B0
:100D330007FCE636001207FC1B37001207FC64377A
:100D4300001207FC9937001207FCF337001207FC67
:100D53004A38001207FCBC38001207FC2539001280
:100D630007FC9639001207FC423B001207FC203CAB
:100D7300001207FC533D001207FC943F001207FCCE
:100D83005A40001207FC8542001207FC2843001258
:100D930007FC6F43001207FC4345001207FC57454D
:100DA300001207FC6145001207FC8E45001207FC88
:100DB3009A45001207FCB845001207FC8D46001245
:100DC30007FCC446001207FCCE46001207FC884706
:100DD300001207FC8748001207FC7749001207FC42
:100DE3001C4A001207FCA54A001207FCBC4A001269
:100DF30007FCF54A001207FC134B001207FC574B84
:100E0300001207FC884B001207FC794C001207FC08
:100E1300E14C001207FC404D001207FC694E001222
:100E230007FC694F001207FCD54F001207FC9950CD
:100E3300001207FCBF50001207FC8C51001207FC84
:100E4300DF51001207FC6B52001207FC2253001201
:100E530007FC5853001207FC8D53001207FCB453D0
:100E6300001207FC3054001207FC5E56001207FC08
:100E7300CE56001207FC6757001207FCDC5700121E
:100E830007FC3258001207FC67EC021207FCB2ECB5
:100E9300021207FCF3AD011207FC5DAE011207FC61
:100EA300B7AE011207FC05AF011207FC20AF011218
:100EB30007FC56AF011207FC77AF011207FC83AFA3
:100EC300011207FC01B1011207FC1FB1011207FC5B
:100ED30088B1011207FC9BB1011207FCA9B10112F1
:100EE30007FC4BB2011207FC55B3011207FC6FB4A8
:100EF300011207FCE4B4011207FCEEB4011207FC73
:100F03005BB5011207FC72B5011207FCB1B5011202
:100F130007FCF2B5011207FC21B6011207FC57B614
:100F2300011207FC76B6011207FC94B6011207FC06
:100F3300D5B6011207FCB0B7011207FCF6B70112D0
:100F430007FC21B8011207FC83B8011207FCB6B8ED
:100F5300011207FCEFB8011207FCFDB8011207FCF0
:100F630055B9011207FC94B9011207FCD4B9011257
:100F730007FC18BA011207FC3BBA011207FC46BA78
:100F8300011207FC64BA011207FC2DBB011207FC16
:100F930037BB011207FC76BB011207FC8CBB0112A5
:100FA30007FC95BB011207FC04BC011207FC18BC2B
:100FB300011207FC27BD011207FC3ABD011207FC11
:100FC30051BD011207FC66BD011207FC17BE0112D9
:100FD30007FC89BE011207FC4EBF011207FC59BF73
:100FE300011207FC80C0011207FC9CC0011207FC20
:100FF300FBC0011207FC39C1011207FC53C10112E6
:1010030007FC8AC1011207FCCAC3011207FC3EC4D4
:10101300011207FCB3C4011207FC0FC7011207FC3E
:101023001FC7011207FC22C7011207FC2EC70112BA
:1010330007FC42C7011207FC4AC7011207FC7FC71E
:10104300011207FC43C8011207FCB4C8011207FCD4
:101053001AC9011207FCB6C9011207FC4FCA0112D3
:1010630007FC76CA011207FC19CB011207FC25CB3A
:10107300011207FC54CB011207FC57CB011207FCEA
:1010830086CB011207FC9BCB011207FC0BCC011290
:1010930007FC0DCD011207FCEDCD011207FC78CE44
:1010A300011207FC9DCF011207FC54D0011207FC6B
:1010B3008DD0011207FCBED0011207FCC7D001126C
:1010C30007FC03D1011207FCDDD1011207FC8FD20B
:1010D300011207FC21D3011207FCDED3011207FC26
:1010E3005DD4011207FC8FD4011207FCCED4011288
:1010F30007FC04D5011207FCA898021207FCBA9852
:10110300021207FC2699021207FC5C99021207FCE3
:10111300B399021207FCD09B021207FCD89D02125E
:1011230007FC4EA1021207FC7DA1021207FCA1A13C
:10113300021207FC08A2021207FC3CA2021207FCDF
:1011430062A2021207FC92A2021207FCDBA20212A5
:1011530007FCBCEC021207FCE3F7011207FC36F8AC
:10116300011207FCA6F8011207FCC5F8011207FCDF
:101173007BF9011207FC84F9011207FCDAF9011269
:1011830007FC07FA011207FC68FA011207FC01FBCE
:10119300011207FC3EFB011207FC7DFB011207FC59
:1011A300DFFB011207FC60FC011207FCBAFC011211
:1011B30007FCF9FC011207FC2DFD011207FC3FFDA2
:1011C300011207FC51FD011207FC70FD011207FC1F
:1011D30079FD011207FC3DFE011207FC09E802122A
:1011E30007FC23D5021207FC5BD5021207FC6D7ABC
:1011F300001207FCFFD6021207FC66D5011207FC9A
:10120300A6D6011207FCE2D6011207FCB5D80112DB
:1012130007FCDED8011207FC79DB011207FCC0DBF7
:10122300011207FC5BDD011207FCF2DD011207FC72
:101233005ADE011207FC07DF011207FC47DF011228
:1012430007FC87DF011207FCAD81011207FC89E26D
:10125300011207FCD8E4011207FC06E5011207FCA2
:101263003CE5011207FC45E5011207FCA2E501126A
:1012730007FC24E6011207FC55E9011207FC09EDFE
:10128300021207FC1FED021207FC2EED021207FCEF
:101293002BBF021207FC43BF021207FCE0BF02127E
:1012A30007FC21C0021207FC3EC0021207FC61C00A
:1012B300021207FCA8C0021207FCDEC0021207FCE0
:1012C30015C1021207FCB1C2021207FCFEC20212D0
:1012D30007FC88E9021207FCBEE9021207FCDBE9FE
:1012E300021207FC20EA021207FC31EA021207FC91
:1012F300DFB5021207FCF6B5021207FC02B60212B2
:1013030007FCFFB6021207FC02B7021207FC2BB759
:10131300021207FC2EB7021207FC31B7021207FCB8
:1013230034B7021207FC37B7021207FC3AB70212AE
:1013330007FC44B9021207FCC7B9021207FCD6E93D
:10134300011207FC2CEA011207FCD6EA011207FC82
:1013530081EB011207FCCBEB011207FCDFEB01125F
:1013630007FCAAED011207FC29EE011207FC53EE5C
:10137300011207FCF9EF011207FC14F0011207FC3C
:1013830054F0011207FC92F0011207FCEAF001127B
:1013930007FC05F1011207FC5EF1011207FCB3F132
:1013A300011207FCCDF2011207FC5FF5011207FCE5
:1013B300FAF5011207FC23F6011207FC87F6011266
:1013C30007FCA4F6011207FCA7F6011207FCAAF614
:1013D300011207FC23F7011207FC40F7011207FC77
:1013E3006CF7011207FCA7F7011207FCAAF7011219
:1013F30007FC77EB021207FC83EB021207FCCDEB31
:10140300021207FC0080021207FC2B80021207FC69
:101413000481021207FC8981021207FCF281021285
:1014230007FC3E82021207FCA482021207FC3B83E4
:10143300021207FCAF83021207FCEB83021207FCC4
:10144300B487021207FC3F89021207FCB78A021213
:1014530007FC458B021207FC7A8C021207FCE88D0D
:10146300021207FCA28E021207FC128F021207FC63
:10147300908F021207FCF68F021207FC669002128D
:1014830007FCA091021207FC4D92021207FCB092D6
:10149300021207FC1494021207FCD994021207FCEF
:1014A300DA95021207FC7096021207FC4F9702129C
:1014B30007FC9FED021207FCA2ED021207FCE6DD1A
:1014C300021207FC15DE021207FCD8DE021207FC2B
:1014D3003EDF021207FC63DC021207FC38E702124C
:1014E30007FC49E7021207FCEFE7021207FCC0DF23
:1014F300021207FCCEDF021207FCECFF011207FC0D
:101503003BEA021207FC4BEA021207FC63EA0212EF
:1015130007FCD6EA021207FC11E5021207FC9AE562
:10152300021207FC0CE6021207FC66FE011207FC1E
:1015330088FE011207FCEEFE011207FC0EFF0112EA
:1015430007FC52FF011207FCABFF011207FCE0FF8F
:10155300011207FCE3FF011207FC87E1021207FCFB
:101563009CE1021207FC10E2021207FC2CE20212B9
:1015730007FC41E2021207FC4FE2021207FC69E298
:10158300021207FC89E2021207FC16C3021207FCCF
:1015930024C3021207FCA8C3021207FC64C402128C
:1015A30007FCFBC5021207FC60C6021207FCCCC68F
:1015B300021207FCF87F001207FC6BD7021207FC2C
:1015C300D6D8021207FC5AD9021207FCA9D9021273
:1015D30007FC12B1021207FC65B1021207FC6DB3DE
:1015E300021207FCA5B3021207FCCAB3021207FCDE
:1015F300E3B3021207FCFCB3021207FC05B50212A7
:1016030007FCA0B5021207FCACD9021207FCEFD904
:10161300021207FC00DA021207FC33DA021207FC9B
:1016230069DA021207FC9FDA021207FCB7DA021228
:1016330007FC30DB021207FC6DDB021207FCB4CDA2
:10164300021207FCDCCD021207FC19CE021207FCC2
:1016530028CE021207FC47CE021207FCB1CE0212BB
:1016630007FCBACE021207FC1BCF021207FC3FCFC6
:10167300021207FC02D0021207FC0FD0021207FC71
:1016830020D0021207FC55ED021207FC72ED021284
:1016930007FCA77B001207FC0C7D001207FC197DD9
:1016A300001207FC2F7D001207FC4C7D001207FC83
:1016B300637D001207FC787D001207FC497E00124F
:1016C30007FCCF7E001207FC3D7F001207FC9F7FC3
:1016D300001207FCAF7F001207FCDCEA021207FCD2
:1016E30001EB021207FC2AEB021207FC52EB021277
:1016F30007FC4ED0021207FC75D0021207FC96D0ED
:10170300021207FCF8D0021207FCBED2021207FC39
:10171300D7D2021207FCE3D2021207FCF7D202125D
:1017230007FC1BD3021207FC27D3021207FC36D394
:10173300021207FC49D3021207FC99D3021207FCD9
:10174300D3D3021207FC03D4021207FC52D40212B1
:1017530007FCA0D4021207FCB8D4021207FCC2D4BF
:10176300021207FCD3D4021207FC18D5021207FC9D
:101773000AEC021207FC5BEC021207FC37A302120D
:1017830007FC63A3021207FC7FA3021207FC92A3C8
:10179300021207FCA8A3021207FC12A4021207FC00
:1017A30045A4021207FCAFA7021207FCB2A802125B
:1017B30007FCE2A8021207FC5BA9021207FC4AAA73
:1017C300021207FC72AA021207FC87AA021207FC84
:1017D30097AA021207FCD8AA021207FC2DAB021229
:1017E30007FC3DAB021207FCC0E2021207FCDBE27E
:1017F300021207FC04E3021207FC1EE3021207FCB9
:1018030043E3021207FC62E3021207FC7BE30212CA
:1018130007FCAAE3021207FCC5E3021207FCD5E8A2
:10182300021207FC19E9021207FCE0C6021207FCC8
:10183300E7C6021207FCF4C7021207FC26C802120D
:1018430007FC4CC8021207FC6FC8021207FC91C8C0
:10185300021207FCCCC8021207FC3CC9021207FCA7
:1018630079C9021207FCC6C9021207FCF4C90212A5
:1018730007FC14CA021207FCF7E3021207FC09E48F
:10188300021207FC0BE5021207FC0EE5021207FC2D
:1018930025E6021207FC96E6021207FCD5E60212C1
:1018A30007FC16E7021207FC6BAB021207FCD1AB75
:1018B300021207FCB3AC021207FCF4AC021207FCE1
:1018C30025AD021207FC00AF021207FC04B002129E
:1018D30007FC96B0021207FCD1B0021207FC72CAD1
:1018E300021207FC8ECA021207FCD7CA021207FCB7
:1018F300F3CA021207FC24CB021207FC4CCB0212E0
:1019030007FC54CC021207FC5ECC021207FC6BCC22
:10191300021207FC83CD021207FC97CD021207FCCB
:10192300A0CD021207FC89BA021207FCB4BE021250
:1019330007FCB9BE021207FCBE7F001207FCCD797B
:10194300001207FC9078001207FC2476001207FCB3
:10195300B975001207FC7375001207FC3E72001282
:1019630007FC0A72001207FCC471001207FCAD7178
:10197300001207FCC670001207FC7670001207FC09
:10198300C06E001207FC2D6E001207FC2A6E0012B7
:1019930007FC4F6D001207FC1B6D001207FC466C21
:1019A300001207FC7A6A001207FC356A001207FC72
:1019B300076A001207FC046A001207FC288101125F
:1019C30007FCCA80011207FC9980011207FCF16928
:1019D300001207FCAB69001207FC9E69001207FCAA
:1019E3007768001207FC8780011207FC0168001268
:1019F30007FCCE67001207FC7267001207FC416701
:101A0300001207FC7A7B001207FC17E1011207FCA6
:101A1300FC63001207FCF662001207FC81620012ED
:101A230007FC4C62001207FC1562001207FC0962F6
:101A3300001207FC6461001207FCA360001207FC9C
:101A4300AF5E001207FC275C001207FCE55B001287
:101A530007FCA35A001207FC4F5A001207FC8259D5
:101A6300001207FCDC58001207FCB258001207FCF6
:101A73005B7B001207FC7858001207FCA6D5020016
:101A8300000080FBE4738F000100730587000100F1
:101A9300900A24000200680A250002006A0A260050
:101AA30002006C0A270002006E0A28000100700A77
:101AB30029000100710A84000400720A86000100F3
:101AC300760A2A000100770A2B000100780A2C000D
:101AD30001007B0A2D0008005F052E0001007C0A2F
:101AE3002F0001007D0A300001007E0A3100010051
:101AF3007F0A3200010067053300010068053400E6
:101B03000100800A36000100690538000100810ADE
:101B1300390001007A0A830002008E0A6300010083
:101B23007205640001005C0565000100790A6D001F
:101B330001008D0A6E0002005D0543000100820A68
:101B430044000200830A45000100850A46000200A2
:101B5300860A470008006A0548000100880A490010
:101B630001008A0A4A0002008B0A4B000100890A1D
:101B730004000100910AA1000100940A370001004A
:101B8300930A88000100920A00000000000000018F
:101B930036360101000102010001030100010401C5
:101BA300060605020000070100340801000F0904BE
:101BB30001010D0100FF0E080000170200001901CA
:101BC30000FF1A0100011B0100FE1C0100081D0299
:101BD30000001F0100012001000121020000230178
:101BE300000F24020000260100012701000828023B
:101BF30000FF2A0100072B0102402C0100002D01E8
:101C030000012E0100012F0100FF30010B1C3108E0
:101C130000003A0100083B01000F2F010000010101
:101C230071010101010111010101310101010101F1
:101C33008001100161013B00140063017301720113
:101C4300620143010001130106013D013500040156
:101C5300120100010001000100010401040133012C
:101C630033013C01440132013600000100016501EA
:101C7300000135008101000105018201830100019A
:101C830001037103010301030103010301032203A0
:101C93000203010310030003000300030003000316
:101CA30000030003420300032403060300030003AD
:101CB300040312032503230325032303040304035B
:101CC3000003000300034403000300032303000392
:101CD30065032100350381030003050300030003AB
:101CE300000303027102300160021102700201025B
:101CF300020202028002100261023A004100630202
:101D030073027202620243020002130238000002ED
:101D13000002040212020002000200020002040296
:101D23000402370037003C0244020002390000027B
:101D330000026502000235028102000205028202EE
:101D43008302000203007100300160001100700083
:101D530031022003500480001000610000001400D1
:101D6300630073007200620043000000130006006A
:101D7300000000000400120000000000000000004A
:101D830004000400370037003C0244000000000058
:101D93000000000065000000350081000000050020
:101DA30000008300000036000100060000000F0061
:101DB30000000000000000000000000003FFFF001F
:101DC300000403FFFF0000FFFF0FF4010005C4043C
:101DD3000320000100000B000000000000000003CE
:101DE300010F300F600F360F3C0F5A0F4E0F480F85
:101DF300660F6C0F720F7E0F420F2A0F240F010024
:101E03007C1402001C14030022140400281405008F
:101E13002E1406003A14FFFF000003EAF5E5D5D5BA
:101E2300C5B5A5959585857575656555554545353F
:101E33003525251515050A020D02CC0C05DE0C0708
:101E4300D20C0CAE0C0DC00CFF000000160F0000EE
:101E53000B150B020002220F320000062010321075
:101E63003810FA0E3E10F40E000F8C10AA10B010AA
:101E730092109E1098100C0E020B040B0A07080018
:101E83000F00383C3E363B3B352B432C00011916E3
:101E93001816161523030000034948424D18172549
:101EA3000502303017181921301B1D1F3030301632
:101EB300181920231A1C1E30741044104A1056108F
:101EC3005010540F780FA410840F8A0F02040201DC
:101ED30001010109020005150D0910080400BE04E3
:101EE3000AE803040015000E002800040C0A030985
:101EF30008FF1E1E0F040C0574F71203CAE99003B2
:101F0300BBF0E4900370F01218789003C0E4F0A3E0
:101F1300F09003BCF0A3F0120E3A12187E90033F28
:101F2300E4F0A3F09003DBE07002A3E06009900308
:101F3300DB1246DC121A87901EF7E493FA79021239
:101F4300191402389C74F21203CAEAFEEBFF748080
:101F53005FF9E47001E960679003BBE0F91211884F
:101F63008A088B09EA7001EB604C7C0080010CEC61
:101F730075F003A4A9F02439F582E9341EF583E44E
:101F83009364FF602AE493FA8508828B83E06A7086
:101F9300DDAA08EC75F003A4243AF582E9341EF5B2
:101FA30083E493C0E0740193F583D082121A87AA65
:101FB30008AB0912117CEEFA74806FFB02212274C4
:101FC300205FF9E47001E9601D120D5C8A088B093A
:101FD300EA7001EB600A120CC0AA08AB0912117C6B
:101FE300EEFA742080D4EEA2E0501A900375E064F8
:101FF3000F700B7900120C8AE9600312212574011A
:102003006EFAEF80B6542070030220EE750A0012B8
:1020130036D87001EB70107C027D007A207B009033
:1020230003BBE0F91212AE7C0079047A007B001244
:102033000D388A088B098018740185088285098305
:10204300A3A3A3A3A3A3A3A3A3F0850C08850D09AE
:10205300E5087002E50960717C007904AA08AB0900
:10206300120D388A0C8B0D750A01E5082404F8E576
:102073000912345E24FFF0A3E034FF1248397002E2
:10208300A3E070C6850882850983A3A3A3A3A3A3A2
:10209300A3A3A3A3E06401709F850882850983A39A
:1020A300A3A3A3A3A3E05404708E740685088285BA
:1020B3000983A3A3A3A3A3A3A3A3A3F07AB7850828
:1020C3008285098312225B8081120D087C007901CD
:1020D3007A007B00120D38EA7001EB7009E50A7093
:1020E300057A20124682742002200374025FF9E409
:1020F3007001E9600A120E34EEFA7402021FBD7415
:10210300045FF9E47001E96012124820124735793F
:1021130001122B2AEEFA7404021FBD7A007B00021F
:102123003B3D900A68122A3D120CA222C082C08352
:1021330074EA1208C8851882851983AA82AB837949
:102143004B1218EA7408120A977402F07409120AFF
:1021530097AA82AB8379501218EA7413120A971262
:102163004C64121908741602457E74F71203CA747C
:10217300E11208C8EAFEEBFFEE7001EF6033851849
:1021830082851983AC82AD83120D807406120A977F
:10219300E0601E7417120A97E0FD7401120A97E0BB
:1021A300FCEEFAEFFB7900121A70E9600479A4805F
:1021B30002790002389774F61203CAEAFEEBFF8E27
:1021C300828F83A3A3A3A3A3A3E05440601B12465F
:1021D300D812232760067AFF7BFF801A8E828F83B3
:1021E300123878FAA3E0FB8003120DA474FE6A7020
:1021F3000374FF6B60431246D8124B82120DF8E949
:102203008E828F83600612224DE4800512224D7464
:1022130001F07C907D0C8E828F83124F5112190E28
:10222300E9F5087017EE7001EF60097901EEFAEF36
:10223300FB120D14A9080247177508CDAA088E8250
:102243008F8312225BE960DD80EAE0240D122254C1
:1022530022F8A3E0123F5322E0240C124A98F91209
:102263000C9C2274F61203CAE9FEEAFF7A0F7B0084
:10227300121176EA7001EB6019740C8A828B83F079
:10228300EEA3A3F0EF8A828B83A3F0124720790099
:102293008028EEF9120D3E8A088B09A808A909E8DF
:1022A3007001E96013740688828983125415E0F97A
:1022B300120C54EEF9120D1A7910024717C082C09E
:1022C30083900375E0640F7016EA7001EB60109061
:1022D3000370E064086005E0640470031222E50201
:1022E3004368EAFCEBFD7A017B009003BBE0F91243
:1022F30012A822C082C0837900EA241DF582EB1262
:1023030038751207480103041623020716230A1619
:10231300231723090243688E828F83A3A3A3A3A356
:10232300A3A3A3A312232B22E0FAA3E0FB120DF82D
:10233300E9228E828F83A3A3A3A3A3A3A3A3A312A0
:10234300232B6402228E828F83A3A3A3A3A3A3A31D
:10235300A3A3123C1A900361E0682274F41203CA27
:1023630074FD1208C88A088B098A828B83A3A3E0B1
:10237300F9120D3E8A0A8B0BAE0AAF0BEE7001EF1A
:102383007003022463850882850983A3E064F160F6
:1023930030850882850983A3E064CD6024850882A3
:1023A300850983A3E0641A6018850882850983A3DD
:1023B300E064E9600C850882850983A3E064E17029
:1023C300087900120D14E97068850882850983A3D2
:1023D300E0C0E07402120A97D0E0124040124FCFDF
:1023E300EE240B122984AA82AB837005120BB880EA
:1023F30003120DE07402120A97E064E970338E82CF
:102403008F8312246F750A01780A120839750AE955
:10241300780A120839E508240CF582E509122976B1
:10242300122EB3FCA3E0FD8A828B83122ED61208F0
:10243300638E828F83A3A3A3A3A3A3A3A3A3E06415
:1024430002701074068E828F83A3A3A3A3A3A3A3F6
:10245300A3A3F0850882850983A3A3E0F9120D1ACB
:10246300120D08900A6C122128022FE3E0F8A3E072
:10247300F9E8FAE9FB2274F41203CAEAFEEBFF75EA
:1024830008008E828F83A3A3A3A3A3E060407508F3
:10249300088E828F83A3A3A3A3A3A3A3A3123B2B7F
:1024A3007001EB601075082C8E828F83A3A3A3A306
:1024B300A3E0D2E0F08E828F83A3A3A3A3A3E0546F
:1024C300036401600302255D43081102255DEE24C8
:1024D3001812297D6030EE241A12297D700F122301
:1024E300487003A3E0697072750822806DEE241BA7
:1024F300F582EF122572241A122562EE2419122591
:102503006A120C428054122335700375080112239A
:10251300487003A3E0697006E508D2E1F508E50811
:1025230060158E828F83A3A3E07006E508D2E58051
:1025330004E508D2E6F50812231A64017006E508DB
:10254300D2E0F5088E828F83A3A3E0600D1225806D
:1025530064016006E508C2E0F508A908022FE8F562
:1025630082EF124751FA22F582EF124751F92212F4
:10257300477212257922E0FCA3E0FDEE22EE241D32
:1025830012476F123892F9120DE6E922C082C08316
:1025930079018A828B83A3A3E0C394024001198A41
:1025A300828B83A3A3A3A3E0C39402400279008A8E
:1025B300828B83A3A3A3A3A3A3A3A3A3E064F87021
:1025C30004A3E064FF60488A828B83A3A3A3A3A32D
:1025D300A3A3A3A3E064F97004A3E064FF60308ABB
:1025E300828B83A3A3A3A3A3A3A3A3A3E064FA70EF
:1025F30004A3E064FF60188A828B83A3A3A3A3A32D
:10260300A3A3A3A3E064FB7004A3E064FF700279B7
:10261300008A828B83A3A3A3E0FC90035EE06C603B
:10262300027900901EF6E493C394805017E493C399
:1026330033C0E0EA2411F582EB122565D0E0C39A9A
:102643005002790002436874EC1203CA74DE120864
:10265300C8EAFEEBFF8E828F83A3A3A3A3E06010DF
:10266300900A6AE07002A3E06006900A6A122128C9
:102673007403120A97AC82AD838E828F83A3A3A3C4
:1026830012475D124F55E9600F7403120A97AA822D
:10269300AB83120CBAE97008790112188A02296B0C
:1026A300EE241B123C007410120A9712473574096A
:1026B300120A97E06021741A120A97E0FD7404125B
:1026C3000A97E0FC8E828F83124F4F7901121A70A2
:1026D300E96004790280C37403120A97AA82AB8368
:1026E300120CB4E9F50A7409120A97E0702A9003F0
:1026F30058E060247422550A6422601C7442550A0F
:10270300644270CF7420120A97122995600A7420CC
:10271300120A9712298E70BBE9A2E6503E74031287
:102723000A97AA82AB83120CA8E9700302269B7452
:1027330020120A971238786403700C7420120A97D7
:10274300124A16640D60147403120A97AA82AB83AB
:10275300120E0AE96401700302296BEE242C12297C
:1027630073122CE27003A3E069701C7508007808EB
:102773001208397808120839EE242E12256A122914
:102783009B122ED61208637409120A97E070030293
:10279300284C12299B124F51120E588A088B09EAB2
:1027A3007001EB70030228E37404120A97E0F88EB9
:1027B300828F83A3A3E028F8A3E03400F9740D28E3
:1027C300F582E439F583E0FA8508828B83A3A3A31A
:1027D300E06A6020EA8508828B83A3A3A3F090803C
:1027E30049780C120A528508828B83A3A3A3A3788A
:1027F3000C120A707904E9120A97124F2E2AFCA3CD
:10280300E034008C82F583A3AA82AB8312116A8A17
:102813000C8B0D8C0E8D0F850882850983A3A3A3D2
:10282300A37810120A527810790C120A025003028C
:10283300296B908045780C12095985088285098394
:10284300A3A3A3A3780C120A70900370E06404603E
:1028530008E06409600302296BE50AA2E54003026C
:102863002923EE242E122984F0EE242F12297DC071
:10287300E07401120A97D0E0F0EE243012297DC0F3
:10288300E07402120A97D0E0F07414120A97E0641D
:10289300017027740E120A97123C06EE24121229B5
:1028A3007D687003A3E0697011740C120A971223F8
:1028B3004270077414120A97E4F0EE242412297369
:1028C3001206BF7404120A97AC82AD837407120A0E
:1028D30097AA82AB83120BBE740412086302296B9E
:1028E3009003B5E06401600302284C7420120A9738
:1028F3001229957009E50AA2E6500302284C7410C8
:10290300120A97E064FF7004A3E064FF605AEEFCD0
:10291300EFFD7403120A97AA82AB83120CC6804898
:10292300A2E650447420120A97124A8E701A741A3F
:10293300120A97E0640270307403120A97AA82ABFA
:10294300837900120DD480207420120A9712298EE5
:102953007016741A120A97E06404700C7403120A56
:1029630097AA82AB83120DCE7422024E43EE240B40
:10297300F582EF12477222EE2417F582EF124751C8
:102983002212474E851882851983221246EAE06493
:102993000722123892640622EE242A12476F122568
:1029A30079241212476F2274F41203CAEAFEEBFF72
:1029B3008C088D09900567E0600F1223487003A30C
:1029C300E0697005120C3080517900124F44120CEB
:1029D300608A828B83E5827002E5836035A3A3A3BB
:1029E300A3A3A3E05418602AE508241BF582E50994
:1029F3001229761206C31230B91229761206C3EED3
:102A0300241812256A122A20120C72740412086305
:102A130080087900122A20120C36022FE88E828F4A
:102A230083A3A3A3A3A3A3A3A3A3122579240BF591
:102A330082EF122A39223400F583E0FAA3E0FB2265
:102A430074F71203CA74F71208C8EAFEEBFF900387
:102A530070E06403600DE064016008E064096003F2
:102A6300022B258E828F83A3E06003022B017C005F
:102A73007D007A027B00121884EE2402FAEF1234EE
:102A830065123C0690036112473579531218F079A9
:102A930000122B2A900370E06409600990036E1200
:102AA3004F51120E52740112470B7404900370F0CD
:102AB3007401120A97AA82AB83794A1218EA740145
:102AC300120A97AC82AD837A667B031218A2900335
:102AD30061124F5F7A037B00121884900364124FD4
:102AE3005F7A047B0012188490035BE0A2E3500436
:102AF300D2F08002C2F01246F112212580218E828B
:102B03008F83A3AE82AF83FC7D007A037B10121800
:102B1300848E828F83E0F9122B2AE4900370F012E3
:102B23000CF0740902389990036E122A3D120BD0EF
:102B330022C082C08390033FE07002A3E070419003
:102B43000370E0120748000301562B05652B06743A
:102B53002B832B900347E07002A3E060649003474C
:102B63008059900343E07002A3E0605590034380D3
:102B73004A900345E07002A3E06046900345803B22
:102B830090033FE07002A3E06005122EC4700C8A2C
:102B9300828B83A3E0F9120BC48026900340124872
:102BA30019A3A3A3E064027005120E2880139003F7
:102BB300DFE07002A3E060099003DF1246DC121A23
:102BC3008702436874F41203CA74FB1208C88A08A4
:102BD3008B097A0F7B001211768A0A8B0BAE0AAF30
:102BE3000BEE7001EF7003022CD674028E828F837A
:102BF300124C6579501218EA850882850983A3E08F
:102C03006003022CBE90036EE064FF7004A3E064D3
:102C1300FF603590036EE064FE7004A3E064FF6020
:102C230027851882851983122CE27003A3E069605B
:102C33001774EA850882850983A3122EDF7A6E7BD7
:102C43000379501218F08073851882851983125105
:102C5300281247357A617B0379531218EA9003618E
:102C63001247571247357A647B03794B1218EA7A75
:102C7300637B0379E11218EA900375E0C3940F5064
:102C830022900363E0C0E07402120A97D0E0F0746C
:102C930004120A977401F07402120A97AA82AB8392
:102CA300121902750A00780A120839780A120839CB
:102CB300900A97E0F9122ECD1208638508828509E0
:102CC30083122CDBA3F07403900370F0EEFAEFFB96
:102CD3001247207405022FE5A3E08E828F83221210
:102CE300512CE0682274F51203CA74D81208C88AFA
:102CF300088B098A828B83A3A3A312513B741512F9
:102D03000A97AC82AD838A828B83A3A3A3A3A3A3D5
:102D1300A3A3122EB3FAA3E0FB120CF67415120A46
:102D230097E0706E850882850983A3A3A3A3A3A359
:102D3300A3A3E0C3940B405A8E828F83A3A3A3A3C0
:102D4300A3A3A3A3E064027049EE240B12297D64BC
:102D5300FF703F900370E06402603CE064066037FC
:102D630090033FE07002A3E06005122EC46051900F
:102D73000370E064086005E0640470167417120AB7
:102D830097E0F9741C120A97AC82AD83124F441278
:102D93000CFC74280231D790033FE07002A3E0706B
:102DA3001F75080078081208397808120839EE24CC
:102DB30010122973125157123553122ED61208636B
:102DC3008E828F83124A01125761123C06740212DB
:102DD3000A97124735EE240D12297DC0E0740412C0
:102DE3000A97D0E0F0122970A3E05480F9E470014F
:102DF300E96004D2F08002C2F0A2F0E492E0C0E005
:102E03007405120A97D0E0F07419120A97E0C0E033
:102E13007406120A97D0E0F0741B120A97E0C0E020
:102E23007407120A97D0E0F07416120A97E0C0E014
:102E33007409120A97D0E0F07417120A97E0C0E001
:102E43007408120A97D0E0F0EE241012297DC0E036
:102E5300740A120A97D0E0F0741A120A97E0C0E0DD
:102E6300740B120A97D0E0F07427120A97E0C0E0BF
:102E7300740C120A97D0E0F0741C120A97A982AA64
:102E83008389088A09750A0078081208317C087D4D
:102E9300007410120A97AA82AB83123F4812086388
:102EA300851882851983AA82AB83120BCA022D95DA
:102EB300E0F98A828B83A3A3A3A3A3A3A3A3A3E081
:102EC3002290033F12317064012290036E124F630C
:102ED300900364122A3D120DB6740222F07A617BCC
:102EE300037953122EEA221218F07A647B03794B8A
:102EF3001218F02274F21203CA74F81208C8EAFE18
:102F0300EBFF8C0A8D0B890C851882851983AC82A3
:102F1300AD837583807582207408120794F50DEED6
:102F2300FCEFFD851882851983AA82AB831258733F
:102F33007003750D019003BC803BEEFCEFFDE508CB
:102F4300240BFAE5093400125872601E8508828545
:102F53000983A3A3E0650C7011850882850983E0CA
:102F6300650A7004A3E0650B6038E5082414F58254
:102F7300E509122976124F1DE5087002E509602262
:102F8300E50D70B6850882850983E0650A7004A3A0
:102F9300E0650B70D5850882850983A3A3E0650CE2
:102FA30070C8AA08AB097408023B3AC082C0839078
:102FB30003BC02436574F71203CA9003BCE0FAA38F
:102FC300E0800CEA24141251351211F4EEFAEFFBEF
:102FD300EA7001EB70ED9003BCE4F0A3F002389CBF
:102FE30074031208637F0402064BE08E828F83F022
:102FF300A3AE82AF832274F11203CAEAFEEBFF8908
:103003000A8C088D098E828F83E08C828D83123621
:10301300C8AE82AF83E012430C124506C412430CC0
:103023001230CEE054038C828D83124504A2E2E475
:1030330092E08C828D83124503131313541F1243A2
:103043000C124502A2E7E492E08C828D83A3A3A332
:10305300A31230CE8E0C8F0D750E00780C12083132
:103063007C087D00E50824071230C2120863123081
:10307300B08E0C8F0D780C1208317C037D00E508AF
:10308300240F1230C2120863E50AC3940F40148E52
:10309300828F83A3A3A3E0C0E01230B9122976D0B4
:1030A300E080061230B9124253F00237E7EE2408EB
:1030B300FEEF3400FF22E5082412F582E50922FA27
:1030C300E5093400FB121158740322A3A31236CC72
:1030D3000EAF832274F01203CA74F91208C8EAFE11
:1030E300EBFF890890033FE07002A3E06010123108
:1030F3006964027009EEFAEFFB120E2280639003FB
:103103006EE06E7003A3E06F705774016508600989
:103113007A827B0312587370487A007B021236DC82
:103123007001EB703C900371780C120A528518827F
:10313300851983780C120A70900377E0C0E0740459
:10314300120A97D0E0F07405120A977401F074061E
:10315300120A977402124C65120B9AE96097120BCC
:10316300A07407024E5B90033F123170221246E4B3
:10317300A3A3A3A3A3A3E02274F51203CA8A088B13
:10318300098A828B83A3AE82AF83E0F9120BE88EA8
:10319300828F83E064EB600C850882850983A3E05A
:1031A30064E17009E4850882850983A3F01221256F
:1031B300750A01780A120839850882850983A3E014
:1031C300F50878081208397900122ECD1208631217
:1031D3000D0880031208637F0302064BEAF0A3EB9A
:1031E300F002436874F61203CA9003BFE0701F7CB9
:1031F3000079017A007B00120D38EA7001EB600E52
:103203008A828B83E07002A3E06003120C9602476C
:1032130017C082C0831236B9401079FF120D32E90C
:10322300FA901EEFE493C39A500479018002790067
:1032330002436874F01203CA8A088B09890B750C60
:10324300008A828B83A3A3A3A3A3A3A3A3E0F9125E
:103253000D3E8A0E8B0FAE0EAF0F750A01EE700195
:10326300EF6003023317850882850983A3A3A3A311
:10327300A3A3124F5F850882850983A3A3A3A3A3F6
:10328300A3A3124050124F51120D268A0C8B0DAE80
:103293000CAF0DEE7001EF70030234568E828F83F4
:1032A300A3A3A3A3E4F0A3F0E508240B123462E084
:1032B300C0E0122970D0E0F0120DFEEE240CF5826E
:1032C300EF124B7EE508240EF582E509123C03EE6E
:1032D300240EF582EF124732750C01EE2406F8EF47
:1032E30012345E547FF0A3E054FC12483954046056
:1032F3000302339D900A701240397407780812094B
:10330300B88E828F83A3A3A3A3A3A3E04508F0A34E
:10331300E04509F08E828F83A3A3A3A3A3A3E05464
:1033230080F508A3E05403F50974077808120A61CD
:10333300E50B607974028E828F83A3A3A3A3124546
:1033430002240D124A94A2E2500B90035C124757D9
:10335300A3A3124735E5087003023424EE2406F8CC
:10336300EF3400F9E8FAE9FB8A828B83E0547FFCAF
:10337300A3E054FCFD74FF2508F50874FF3400F541
:1033830009740778081209B8E5084CF8E5094DF9FE
:103393008A828B831247350234248E828F83A3A3C0
:1033A300A3A3A3A3E04480F0A3E0023316E50870CF
:1033B30005750A00806B8E828F83A3A3A3A3A3A3A7
:1033C300E0542060171211708A08747F5508F8744E
:1033D3005F288E828F83A3A3A3A380278E828F83EC
:1033E300A3A3A3A3A3A3E05410600E1211708A0831
:1033F300740F5508F8740A80D88E828F83A3A3A311
:10340300A37401F0A3E4F074048E828F83A3A3A3B7
:10341300A3A3A3A3A3A31236D37001EB7003124695
:10342300B77401650C702F8E828F83A3A3A3A3129D
:103433004CD3F9EEFAEFFB120D2CE96019EE240CD4
:1034430012297D7002A3E0600312346DEEFAEFFBE4
:103453001211F4750A00A90A024E5E12483422FAC8
:10346300E5093400FB8A828B8322EE240C12476F1A
:1034730012347722E0FAA3E0FB1211F42274F4125F
:1034830003CA74F71208C87E00120D3EEA7001EBFE
:10349300700302354C8A828B83A3A3A3A3A3A3A3A4
:1034A300A3A3E06406600302354C8A828B83A3A343
:1034B300A3A3A3A3A3E0FF8A828B83123D3FE0C0B3
:1034C300E07408120A97D0E012388B124968124749
:1034D30035120D5074085FF9E47001E960698518CD
:1034E30082851983124F5F7A007B00120D20EA70E8
:1034F30001EB705390036E12398812191A7C007D08
:10350300007A007B00802A8E828F8312387864FFD2
:103513007004A3E064FF602F90036E123553124FC3
:10352300511215D8E9641A601E7C007D00EEFAEF93
:10353300FB120D208A0A8B0BAE0AAF0BEE7001EF64
:1035430070C579001219207E01EEF97409022FE586
:1035530012355722E0FCA3E0FD8E828F832274F79D
:103563001203CAEA7001EB70059003C080068A82D9
:103573008B83A3A31237947001EB602C8A828B8315
:10358300A3A3A3A3A3A3A3E05408F9E47001E960F0
:10359300DDEC7001ED60158A828B831238786C70D4
:1035A30003A3E06D70C880047A007B0002389C742A
:1035B300F21203CAEAFEEBFF890A8C088D097A101E
:1035C3007B00121A7CEA7001EB603CE48A828B83F5
:1035D300A3A3A3A3A3A3A3A3123618E50A12387FB8
:1035E3001257578A828B83A3A3A3A3E4F01236183E
:1035F300A3A3F0124FCBEA240CF582EB123B251266
:10360300360DA3A3F0A3F0023B3DA312361222F022
:103613008A828B8322A3123883A3A3A3A32274F4E5
:103623001203CAEAFEEBFF89088C0A8D0BEE7001C8
:10363300EF605C7401650870147901120D32E9FAC8
:10364300901EF3E493C39A500F7911806674046556
:103653000870361236B940F18E828F83A3A3A3A3D9
:10366300A3A3A3A3A3E5081236C8A3A3A3123D4BA8
:103673008E828F83A3A3E4F0A3F09003C0E07002D3
:10368300A3E09003C0601B800A7402650860C979D7
:10369300C18020124D357002A3E088828983A3A3E1
:1036A30070F1EEF0A3EF1236D37001EB7003124604
:1036B300B77900022FE87904120D32E9FA901EFA65
:1036C300E493C39A221236CC22F08E828F83A322F4
:1036D300F01236D8227A207B009003BBE0F9121255
:1036E300BAEA22C082C083E9FC79009003C0801D3E
:1036F3008A828B83A3A3A3A3A3A3A3A3A3E06C6046
:103703000574FF6C7001098A828B83A3A31237941B
:103713007001EB70DB02436874F71203CAEA7001AD
:10372300EB70059003C080068A828B83A3A31237B4
:10373300947001EB60248A828B83A3A3A3A3A3A326
:10374300A3A3A3E06970E1EC60148A828B83E02475
:103753000D124F38A2E240D080047A007B00023879
:103763009CC082C0839003C080068A828B83A3A3FC
:103773001237947001EB60128A828B83A3A3A3A3F5
:10378300A3A3A3A3E06970E280047A007B00024351
:1037930068122A3DEA2274F11203CA8A0A8B0B8C3F
:1037A3000C8D0D750800750900EA7001EB6031900E
:1037B30003C080068E828F83A3A31237EC7001EFC0
:1037C300601EAC0CAD0DEEFAEFFB850A82850B8310
:1037D300121A87E9640170DCEEF8EFF988088909A9
:1037E300AA08AB097F0702064BE0FEA3E0FFEE2227
:1037F30074F71203CA9003C0123C067C007D00805C
:103803000DE8FCE9FD88828983A3A3123C06E870D6
:1038130001E96030EA687002EB6970E59003C01259
:103823004F51E86A7002E96B88828983A3A3700809
:10383300123C069003C08009123C068C828D83A340
:10384300A312473502389C74F71203CAEAFEEBFF52
:10385300EE7001EF6016120D4A1238A17002A3E058
:10386300600312346DEEFAEFFB1211F402389CF58B
:1038730082EF12477212389222A3A3A31238832233
:10388300123612A3A3A3A3221236121238922212C3
:1038930046E4E022741F1208637F0102064B8E8206
:1038A3008F83E0241C124A981234788E828F8312FD
:1038B3003477EE240C12474E22C082C083EAFCEB1D
:1038C300FDEC7001ED700479058049EC24FBF58271
:1038D300ED34FFF583E07002A3E0700812391AE0BB
:1038E30064FF600512117C80DE9003BBE0C0E01230
:1038F300391AD0E0F0901EF0E493F97AC27B0312F8
:1039030011A6E96401700B7A007B201246BB790093
:1039130080027904024368EC24FFF582ED34FFF55D
:10392300832274F41203CAA2AFE492E0F508C2AF93
:103933009003C21237EC7001EF603DEE24FBF58279
:10394300EF34FFF583E07002A3E07A007B2090035D
:10395300BB60051246BE8005E0F91211B2750A007C
:10396300750B00780A120835EEFCEFFD7AC27B0373
:103973001211A07402120863E508A2E092AFEEFAF6
:10398300EFFB022FE8124F63851882851983AA8201
:10399300AB832274F21203CA74FC1208C8EAFEEB6A
:1039A300FF750AFE750BFF120D0EE9600579110212
:1039B3003B1BEE241512297D6034900A89E0C43341
:1039C30054E0C0E0E0333354FCFAD0E04AC0E0EE08
:1039D3002415122973D0E01236C8123B2B7001EB69
:1039E300600C750AFF124844124746D2E0F08E82FB
:1039F3008F831223256006EE2412123B22EE24133A
:103A030012297D7010901EF6E493C0E0EE24131289
:103A13002973D0E0F08E828F83E0A2E75004540331
:103A2300801CEE241412297D701590034DE0C0E034
:103A3300EE2414122973D0E0F090034DE004F0EE6D
:103A4300241112297D6401701690055CE0600D90CD
:103A53000358E0700A8E828F83E07003123B1F8E3F
:103A6300828F83E064017016EE240B1238726402B5
:103A7300700CEE240F12297D4440F0A3E0F085186A
:103A830082851983AC82AD83EEFAEFFB120D748A43
:103A9300088B0974FE650A700474FF64FF70098E55
:103AA300828F83A3A3124F0DEA7001EB60668E82AF
:103AB3008F83E0C0E07401120A97D0E0F074021221
:103AC3000A97124FCF7401120A9785820C85830DD2
:103AD300780C120835EE240F1229731206C3EE2454
:103AE3000E12297DF50C780C120839900361120629
:103AF300C37407120A97E0F9AC0AAD0B120D6E748A
:103B030007120863E9FE74106E700BAA08AB091262
:103B130011F480027E10EEF97404801BEE2411F57B
:103B230082EF124772E4F022A3122A3D79FF1219A1
:103B330056EA22A90A74031208637F0602064BC0E1
:103B430082C08374DE1208C88A828B83A3A3A3A3D3
:103B5300123C06740E120A97E8F0A3E9123C1174A2
:103B63000C120A97123C0A240DF582EB122980C02D
:103B7300E0741A120A97D0E0F0124E63EB123C0382
:103B83007420120A97123C0A2415F582EB1229803D
:103B9300C0E07408120A97D0E0F0EA241CF582EB27
:103BA300123C037412120A97123C0A2411F582EB99
:103BB300122980C0E07409120A97D0E0F074FF85DF
:103BC3001882851983F07401120A9774FFF0740246
:103BD300120A9774FFF09080491206BF7404120A08
:103BE30097AC82AD837407120A97AA82AB83120B38
:103BF300BE74041208637900742202457EF582EFD5
:103C0300124772123C1A22E8F0A3E9F0EA221236B4
:103C130012123C1822A3A3E0F8A3E0F92274EC12D9
:103C230003CA74EE1208C88A128B13ECFEEDFF89E7
:103C3300097426120A97124F0D7428120A97E0F599
:103C43000E7429120A97124F15742B120A97E0F576
:103C530010A3E0F5117508107A1E7B00121A7C740C
:103C630002120A97124B827402120A97E07002A39F
:103C7300E07003023D38851882851983AA82AB83DD
:103C83007950124584124F517402120A97123D3F24
:103C9300A3124B827410120A97123D4B7402120A3C
:103CA30097E0240B1222507402F0120A97123D3F40
:103CB3007402F0120A971246DC124FCF7402120AF2
:103CC30097E0241B122250E509F07402120A97E0D0
:103CD300240C122250E50EF07402120A97E0241C01
:103CE300122250E512F0A3E513F07408120A97129A
:103CF3004E53740A120A97E50EF0851082851183DC
:103D0300C082C083740D120A97AC82AD83D083D076
:103D1300827403120794F97402120A97AA82AB837E
:103D2300120D14E96401700575080080087402120D
:103D33000A97123473A9087412024E431246E0A381
:103D4300A3A3A3A3A3A3A322E50AF0A3E50BF02255
:103D530074EE1203CAEAFEEBFF8C088D0974088E19
:103D6300828F83A3124777E0600874108E828F835B
:103D7300A3F012297A60098E828F83A3E02408F0CE
:103D8300EE241512297D60088E828F83A3E004F050
:103D93008E828F83A3A3A3A3A3A3E060198E828F34
:103DA30083A3A3A3A3A3A3A3E0C3332402FA8E8212
:103DB3008F83A3E02AF0EE241112297D6005750B91
:103DC3000E8003750B008E828F83A3E0C0E0EE2488
:103DD3000D122973D0E0FAE02A250B8C828D83F033
:103DE300EE241112297D60051242682AF0850882AB
:103DF300850983E0C39475400975080075090002BD
:103E03003F34E0FA7B001250897001EB7003023FEC
:103E130034EEFAEFFB120D7AEA85088285098312E4
:103E23004B83EE2402F8123F4E124048123F82F0B9
:103E3300EE24040808123F4E1244A0A3123F82A3AB
:103E4300A3F0EE2413123F68F0EE2414123F68A38C
:103E5300F0750A08EE241612297D6010EE2418125C
:103E63004F5CE508240812514D750A1012297A6037
:103E730016EE241A124F5C850A0CE508250C125124
:103E83004D7408250AF50A8E828F83A3A3A3A3A3E7
:103E9300A3E06059EE2407F510EF3400F511851007
:103EA30082F583E0C0E0123F3B122976D0E0123F57
:103EB30072E0C0E0123F3B122976D0E0123F72A3BA
:103EC300123F5B120831851082851183E0C333FCF6
:103ED300E433FD850A0CE508250C1230C212086391
:103EE300851082851183E0C333250AF50AEE241574
:103EF30012297D600BC0E0123F3B122976D0E0F01F
:103F0300122970123F5B120831EE240D12297DFC39
:103F13007D00850B0A8E828F83A3E0F8E50828F8DD
:103F2300E5093400F9E50A28FAE439123F47120893
:103F330063AA08AB0902467B850A0CE508250CF544
:103F430082E50922FB121158740322EF123F532218
:103F53003400F98882898322E0F50CA3E0F50D751E
:103F63000E00780C2212476F123F8EA3A3A322F0F8
:103F7300050A8E828F83A3A3A3A3A3A3A3A322A330
:103F8300A3F088828983A3123F8E221244A4A3A3A1
:103F93002274F61203CA8A828B83E0FC90035E12BA
:103FA3004039740278081209B8E5084CFCAD09EAF7
:103FB3002412124033740678081209B8E5084CFC41
:103FC300E5094DFDEA2415F582EB1229806004789A
:103FD3000180027800E4C84DFDEA2411F582EB125A
:103FE3002980F5088809740978081209B8E5094D8C
:103FF300FDEA2416124033740B78081209B8E50958
:104003004DFDEA2417124033740C78081209B8E501
:10401300094DFD8A828B83A3A3A3A3A3A3124039D3
:10402300740A78081209B8ECFAE5094DFB02471740
:10403300F582EB124772E0F50875090022F0851846
:104043008285198322E085088285098322A3E0F90A
:104053008508828509832274EE1203CA8A0A8B0BB0
:10406300ECFEEDFF750F01E9C394085005790002DA
:1040730042438E828F83E912360E1244ADE9600308
:10408300750F001244B48E828F8312450EEE124ECA
:1040930064EF1244F7C0E0EE2411122973D0E0124A
:1040A30044EFC0E0EE2412122973D0E0F074088EBE
:1040B300828F83125162E06014124495EE125143D1
:1040C300EF1247328E828F83A3E02408F08E828F13
:1040D30083A3A3A3A3A3A3A3A3E0601B8E828F83C5
:1040E300A38582088583091244D4EE2415F582EF53
:1040F3001244E0E02408F08E828F83A3A3A3A3A33A
:10410300E0601A8E828F83A3858208858309124417
:10411300C38E828F83A3A3A3A3A312427AEE24198F
:10412300123B22EE241B123B22A3124767E07003CB
:104133000241DDEE2419F8EF3400F98E828F83A358
:10414300858208858309E0FAE50A2AF582E50B12E0
:1041530029808882898312427AFAE50A2AF582E560
:104163000B122980C0E0EE241A122973D0E0124208
:104173007F124839605D901EF9E493C0E0EE241984
:10418300122562D0E0C39A500575110C8003E0F547
:10419300118E828F83A3E0F8E50A28F50CE50B1254
:1041A3004246120831E511C333FCE433FD7A2E7B1A
:1041B30009123F48120863EE241B122973742EF070
:1041C300A37409F0E511C333FA850882850983E0F6
:1041D3002A8006EE2418124250F08E828F83E0C0AC
:1041E300E0A3E0FAD0E0C39A50030240708A08E5E6
:1041F3000A2508F8E50B3400F9EE241D1242581283
:104203004507C39AC0E0EE2417122973D0E0124782
:104213003B602BEE2417F8EF3400F98808890988EE
:1042230082F583E024F212482A240EFAA3E0340034
:10423300FB88828983124B82124268C39AF0A90FCA
:1042430002467B3400F50D750E00780C22F582EFE3
:10425300124772E422F582EF12425F223400F583A3
:10426300E8F0A3E922900359E0F9121A04E9FA8568
:104273000882850983E02212427FF0221244E7E09C
:10428300042274F41203CA8A088B09EA124313F056
:10429300EA1313543F12430CA3A3A3F0EAC413136A
:1042A300124313A3A3F0EB12430512431D740978C1
:1042B3000A120A6112430312431C740A780A120A8F
:1042C30061E50A5401C0E0EC2418F582ED12297669
:1042D300D0E0124322740B780A120A61124303A33B
:1042E30012431C740C780A120A61124303A3A3A39A
:1042F300A3A3A3A3A3F0740D7808120A6102255D9A
:10430300E50A54018C828D8322540F8C828D832283
:1043130054038C828D83A3A322A3A3A3A3A3A3F0FB
:104323008A0A8B0B22C082C08379008A828B83A383
:10433300A3A3A3A3A3E0900358600FE070228A8293
:104343008B83A3A3E07019098016E060138A828B24
:1043530083124F48900361E06A7003A3E06B70E738
:104363008003124F51D083D0820207F974F01203F5
:10437300CA8A0A8B0B890C8C088D098A828B83125B
:1043830044AD1244B485088285098312450EE508BD
:10439300124E64E5091244F7C0E0E5082411F582E2
:1043A300E509122976D0E01244EFC0E01230B912C9
:1043B3002976D0E0F07408850882850983A3124822
:1043C300636010124495125141E5091244E0A3E0E1
:1043D3002408F0850882850983A3A3A3A3A3A3A329
:1043E300A3E0601B850882850983A31244D0E508F6
:1043F3002415F582E50912425B1245072408F0856E
:104403000882850983A3A3A3A3A3E0601985088277
:10441300850983A3AE82AF831244C38508828509CD
:104423008312450204F0AA08AB09120D8CE9F50DBD
:10443300705B850882850983A3A3A3A3A3A3124466
:10444300A07016E0FA8A0EE50A250EF8E50B340093
:10445300124729E50CC39A80241244D0740E28F81D
:10446300E439124729900359E0F9121A04E9FB8E43
:10447300828F83E0FAE50CC39A24F2C39BC0E0E584
:10448300082417F582E509122976D0E0F0A90D0278
:104493004E5EE50A2408F8E50B3400F9221244A421
:1044A30022E0850882850983A322122A3D120D8604
:1044B30022850A82850B83A3A3124524E0F9EA220D
:1044C300E0F8E50A28F582E50B12475122AE82AFE8
:1044D30083E0F8E50A28F8E50B3400F92212425F7D
:1044E3001244E722F085088285098322124537A307
:1044F300A3A3E022124772E8124530A3A3E022A34C
:10450300A3A3A3A3F08E828F83E022A3A3A3A3A3D9
:10451300A3A3A3A3124530124524A3A3E0F9EAF809
:1045230022E0FA850A82850B83A3A3A322F0A3E9E1
:1045330012453722F0850A82850B83A3A3A3A32206
:10454300C082C0837AD07B0379E21218EA7AD07BE7
:1045530003024368C082C083900361024365C08243
:10456300C08374FE1208C8851882851983AA82AB9A
:1045730083794B124584124F51740212086302432C
:10458300681218EA85188285198322C082C083794C
:104593004A1218EA02436874F61203CA9003D8E079
:1045A300FE04F0EEF9120D3EEA7001EB70EEEE60E0
:1045B300EBF902471774EE1203CAEAFEEBFF8C080D
:1045C3008D09890A7412120A97E0F50C7413120A02
:1045D30097E0F50D750B00750E00120E58EA700189
:1045E300EB7014E50D7048A90AAC08AD09EEFAEFBB
:1045F300FB120E7002467BE50A6023EA2402F58271
:10460300EB122980F8850A08E50828F8E43400133A
:10461300E813F0700974018A828B83A3A3F0E50D7C
:104623006056E50C7009E48A828B83F0750E017481
:1046330001650D701FE50C60169003E1E004F0C006
:10464300E0900A71E0FAD0E0C39A4008750B01E4E8
:104653009003E1F0E50E7004E50B601CE50B6018B8
:10466300900364E06E7003A3E06F700CEEFAEFFB4F
:104673007901120BE21246807F0A02064B7A017B14
:10468300009003BBE0F91212B422C082C08374010C
:104693006A7001EB70077A011246B98014900A68B8
:1046A300124B82EA7001EB60051222E58003124689
:1046B300800243687A207B009003BBE0F91211ACBF
:1046C30022C082C083900A6A0231DFC082C0839015
:1046D3000A6C0231DF8E828F831246E0221246E497
:1046E30022E0F81246EA22A3E0F583888222A2F0B0
:1046F300E492E01246FF79521218F022851882855F
:104703001983F0AA82AB83221246FF79421218F072
:10471300221208637F0202064BAA08AB099003BB6F
:10472300E0F912118222F9E508241DF582E5091248
:104733004772E8F0A3E9F0221236CCA3A3A3A3A304
:10474300E022A3F0EE241512474E22F582EF340047
:10475300F583E022E0F812475D22A3E0F98E828F11
:1047630083A3A322F0EE241812476F22F582EF34BD
:1047730000F58322F0EE241612476F22A374FEF095
:10478300A374FFF02274F41203CAEAFEEBFF7A006B
:104793007B04124684124820124735740990037033
:1047A300F0120D988A088B09AC08AD09EE24131298
:1047B3002973124F511258736401704C7A0F1248C7
:1047C3000E7001EB604274028A828B8312482AFACC
:1047D300A3E0FB8A828B83A3E0FC8A828B83A3A35F
:1047E300E0FBEC850882850983A3A3F0A3EB1248C1
:1047F30039F8A3124819124048124745FAA3E0FBBF
:10480300794A1218F012471C022FE87B0012117626
:104813008A088B09EA221246EBA3A3A32290034141
:10482300123C1A900A6C22F0EE241DF8EF12483461
:1048330022123F53E022F088828983E02212485BF0
:1048430022EE240F12474E4404F0A3E0221244E761
:10485300A3A3A3A322F582EF3400F5837401F0220E
:10486300124850A3A3A3E022124C6D120DEC22EECA
:104873002417124858120D98EE241A12476FEAF0C3
:10488300A3EBF02274F41203CA74F31208C8890864
:10489300EAFEEBFF7C0D7D00790085188285198384
:1048A300AA82AB83121164EE241D1229731246DC13
:1048B300A3E0FA741F5A600A790112188A79000278
:1048C3004962EAA2E55008740C120A977401F0EAEF
:1048D300A2E75008740B120A977401F0EAA2E67477
:1048E3000A5008120A977401F08008120A97E064CC
:1048F300017005EE24138003EE2415124F5C74023D
:10490300120A97AA82AB831218A21229701249675E
:10491300124735740A120A97E06401703312231A9E
:10492300703B120DA48A0A8B0BA80AA90BEE240B69
:1049330012297D687003A3E0697022120D98EAFCC6
:10494300EBFD7402120A97AA82AB83125873600DAF
:10495300851882851983AA82AB83120BDCA908749C
:104963000D022FE5E012496C22F8A3E0F9851882C5
:104973008519832274F61203CA74F31208C88A08CD
:104983008B09ECFEEDFF7C0D7D0079008518828597
:104993001983AA82AB83125350A3A3A3A3A3A3A3F4
:1049A300A3A3124A01124A0AFAA2E55008740B1291
:1049B3000A977401F0EAA2E75008740A120A97747E
:1049C30001F0EAA2E6EE5004241380022415124FEC
:1049D3005C7402120A971249F3A3A3E0C0E0740CBB
:1049E300120A97D0E0124C65120BD6740D024714CD
:1049F300AA82AB831218A285088285098322E0125A
:104A0300496CE8F0A3E922F0EE241D12474EF81298
:104A13004A16221246EAA3E02274F71203CA74E18B
:104A23001208C8EAFEEBFF8E828F8312316CA2E07C
:104A330050568E828F831224718A828B83A3A3A301
:104A4300A3A3A3E054FEF0A3E0124A9D8A828B83C2
:104A5300E0241B124A94F98A828B83E0241CFAA374
:104A6300E0123465124F51120D92E9701B741D123E
:104A73000A97124A8E7011851882851983AC82AD0C
:104A830083EEFAEFFB120DDA0238971238926404C0
:104A930022124A9822122254E022124040AC82ADE4
:104AA3008322E9FA790074046A600A740A6A600569
:104AB30074036A7001090207F974F61203CA7420B9
:104AC3008A828B83F07401A3A3F0120B8E8A088B66
:104AD30009AE08AF09EE7001EF600774018E828F93
:104AE30083F09003AEE07003124872EEFAEFFB021C
:104AF3004717C082C08374019003C4F0E9A2E35056
:104B0300037403F0E9A2E15004E0D2E2F002436847
:104B130074F61203CA79007C008A088B097808129C
:104B230005C6F8FF07464B444B444B444B444B3DAF
:104B33004B414B464B3A4B0C80097C0480050C805F
:104B4300F67C089003C4E05C6003098003EC600119
:104B53000902471774F61203CA8A828B83E0701422
:104B6300A3E07002A3E0600C8A828B83124F501281
:104B730019E080047A007B000247173400F583EACA
:104B8300F0A3EBF02274F51203CA74F31208C88A77
:104B9300088B09ECFEEDFF750A12EA7001EB700554
:104BA3007900024C5F900361E065087004A3E0653F
:104BB300097017120D98EAFCEBFDEEFAEF1258722A
:104BC3007005750A018003750A00E485188285194A
:104BD30083F07401120A97E508F0A3E509124C6506
:104BE300120ACEE9602A7403120A97AA82AB8312CF
:104BF3000AB6E964017019750A017403120A97ACC5
:104C030082AD83EEFAEF1258726021750A00801CA0
:104C13007412650A70169003ADE06402700EEEFC28
:104C2300EFFDAA08AB09120AE6E970DFEEFCEFFD1F
:104C3300AA08AB09120E5EE9FA740A6A7005750ACE
:104C430001801774A06A7012EEFCEFFDAA08AB098D
:104C5300120E6AAA08AB09120E7CA90A740D02315E
:104C6300D7E4124C6922124C6D22F0851882851903
:104C730083AA82AB832274F71203CAEAFEEBFF75A1
:104C830008008E828F83A3A3A3A3A3A3A3A3E0609F
:104C930014EE2415122973122A2D120E04E964014D
:104CA30070037508018E828F83A3A3A3A3A3A3A379
:104CB300E06018EE2413122973124CD3FAA3E0FB1D
:104CC300120E04E964017003750801A90802389CF7
:104CD300123557A3A3A3A3A3A3A3A3A3E02274F210
:104CE3001203CA74FD1208C88A088B09ECFEEDFF93
:104CF300890B750A017401120A97740412514870E2
:104D030001EB602B124E63EB123C03740388828920
:104D130083123D4DEE88828983A3A3F0EF888289B5
:104D230083A3A312360D125757120B88E9F50A0213
:104D33003B36123C1A88828983A3A3E02274EC12C7
:104D430003CA74F51208C88A0C8B0D890A8C0E8D60
:104D53000F741F120A97E0F50B7420120A97E0F5FF
:104D630010A3E0F5117E01EE120A97740AF0E970C0
:104D730007E50BC333240AF0851882851983AA82B9
:104D8300AB83120DEC8A088B09EA7001EB70030206
:104D93004E3FEA240B12513574098E828F83124FD2
:104DA30025450B122FF2AC0EAD0FEEFAEFFB1218E6
:104DB300A21230B0E50A702D7C008023ECC333F8D7
:104DC300E433F9E51028F8E51139F988828983126B
:104DD3002FED88828983122CDBF0A30EAF830CECBA
:104DE300C3950B40D7E5082417F582E5091248401F
:104DF300120D98E508241AF582E509124B7E740317
:104E0300120A97AC82AD83AA0CAB0D120ABCE960FF
:104E130019E5082416F582E509124E4B120A97A8E4
:104E230082A983E508241812472E85088285098301
:104E3300124E51AA08AB09120B88E9FEEEF9740B66
:104E43001208637F0C02064B12485B740322A3A370
:104E5300E50CF0A3E50DF0221208637F0802064B70
:104E6300EA240BF5822274EE1203CA8A0C8B0D8995
:104E73000E8C088D097412120A97E0F50F74131241
:104E83000A97124F0D9004CDE07002A3E06078E51D
:104E93000FC333F8E433F9740E28FAE439FB121123
:104EA300768A108B11AE10AF11EE7001EF6058745B
:104EB300D48E828F83F0124E518E828F83A3A3A34D
:104EC300A3E50EF0AC08AD09EE2405FAEF1251503C
:104ED300EE240D122973E50FF0850A08850B097579
:104EE3000A007808120831E50FC333FCE433FDEE02
:104EF300240EFAEF1230C5120863EEFAEFFB9004AA
:104F0300CD1246DC121A8702467BE0F50AA3E0F5D0
:104F13000B22E0F50CA3E0F50D22E0F508A3E0F584
:104F23000922F0A3E50AC43354E022E0FA8E828F0B
:104F330083A3A3E022FEA3E03400FF8E828F83E0ED
:104F4300228E828F83A3A3A3A3A3A3A3A3A3122A23
:104F53003D22122A3D120D802212476F124F632207
:104F6300E0FCA3E0FD2274F61203CAEAFEEBFF9015
:104F730003C5801388828983E06E7003A3E06F60AA
:104F83003F88828983A3A3124FC67001E970E57A33
:104F9300047B00121A7C8A088B09A808A909E87007
:104FA30001E9601C88828983124FCF9003C5124F99
:104FB3005188828983A3A3124B829003C51247357C
:104FC300024717123C1AE8228A828B83EEF0A3EF82
:104FD300F02274F41203CA7E009003C580070E8882
:104FE300828983A3A3124FC67001E970F1EEC33324
:104FF300FAE433FB1250897001EB70030250837F94
:10500300009003C5802488828983124F5FEFC333E6
:10501300FAE433FBE5082AF582E5093BF583ECF076
:10502300A3EDF00F88828983A3A3124FC67001E911
:1050330070D49003B61223557003A3E06978087007
:1050430019120835EEF50A780A1208397C827D03B5
:1050530079009003B6125092801A120835EEF50AC1
:10506300780A1208397C827D0379009003B6124FC7
:1050730051120E167403120863AA08AB091211F435
:10508300120BA0022FE8121A7C8A088B09EA22125B
:105093002A3D120E1C22C082C08380128A828B8317
:1050A300A3A3123C069003C51247351211F49003D3
:1050B300C51237947001EB70E302436874F6120370
:1050C300CA90036E12513B9003D9125128124735EF
:1050D3007AD97B0379501218F09003D9122575FA07
:1050E300EFFB120E769003D912513B9004CFE07080
:1050F30002A3E0602D7A067B00121176EA7001EBC1
:10510300602074D58A828B83F0E4A3A3F074018AB0
:10511300828B8312387C124FCF9004CF1246DC125D
:105123001A8702471712512C22E0F8A3E0F99003E3
:105133006E22F582EB124772E0FEA3E0FF22E50840
:105143002413F5822212486BEA22FAE5093400FBA4
:105153001218A22212475EA3A3A3A3A3A3A322A36D
:1051630012516722F08E828F83A3A3A3A3A3A3A3C9
:1051730022F0901EF112517C22E493F87401280866
:10518300E43400F97A027B002274F71203CA7E002A
:1051930080041251BD0E901EEEE493FAEEC39A40C2
:1051A300F17E00EE1251CE12477FE488828983F0AC
:1051B3000EEEC3940340EC02389CEE75F017A42462
:1051C300BAFAE5F03407FB120E4C2275F003A4245F
:1051D300C7F8E5F03403F9888289832274F7120350
:1051E300CA78007900800312530D901EEEE493FEFB
:1051F300C3E89EE994005069E8FEE9FFEE75F017F5
:10520300A4FE85F00875F017EFA42508FFEE1256EB
:1052130036EF12581C6A7003A3E06B70CAE8FEE90C
:10522300FFEE75F017A4FE75F017EFA42508FFEE47
:1052330024C4F582EF3407F583E06C7003A3E06DBB
:10524300600A74FF6C700374FF6D709BE875F01750
:10525300A4F8AAF075F017E9A42AF9E812531A8002
:10526300047A007B0002389C74F61203CA7CFF7D2B
:10527300FF7AFE7BFF120E40EA7001EB60030253DC
:105283000A7E007F008072EEF8EFF9E875F017A44C
:10529300F8ACF075F017E9A42CF9E824C9F582E914
:1052A3003407F583E0601EEEF8EFF9E875F017A414
:1052B300F875F017E9A42CF9E824C8F582E9340756
:1052C300F583E0702CEEF8EFF9E875F017A4F8AA6F
:1052D300F075F017E9A42AF9E824BAF508E93407C8
:1052E300F509850882F583124F51120C78AA08AB91
:1052F30009EE24010EEF3400FF901EEEE493F8C391
:10530300EE98EF94004080024717E8240108E9343F
:1053130000F92275F017A424BAFAE93407FB2274C2
:10532300F71203CAEAFEEBFFEE7001EF60161253A9
:105333004A1247808E828F83A3A3A3A3A3A3A3A30D
:10534300A312477F02389C7C177D007900121164F9
:105353008E828F832274F71203CAEAFEEBFF75086D
:10536300008018A808E875F017A4A9F01257CE70AA
:1053730003A3E06F60031257D40508901EEEE49375
:10538300FAE508C39A40DC02389C74F61203CA1289
:105393000E408A088B09A808A909E87001E9600A88
:1053A300E8240DFAE93400FB80047A007B0002470D
:1053B3001774F41203CA8A0A8B0BECFEEDFF75080F
:1053C300007509008039E50975F017A424BCFAE5D6
:1053D300F03407FB120AB6E96023A80912581365D3
:1053E3000A7004A3E0650B700375080AEEFCEFFD79
:1053F300E875F017A412586C60034308A0050990E0
:105403001EEEE493FAE509C39A5004E50860B70277
:10541300255DA3A3A3A3A3A3A3125425A3A3A3A37B
:10542300A322A3A3F088828983A3A3A32274F212E5
:1054330003CA8A088B09ECFEEDFF740E120A971259
:105443004F0D750C007C007D018010121170E50C6E
:10545300F5F0EA84ACF0750C007D007800790080EB
:105463000312530D1256414003025501E8FAE9FBBA
:10547300EA75F017A4FA85F00D75F017EBA4250D66
:105483001256267004A3E064FF60D612560B65081B
:105493007004A3E0650960C912560B6E7003A3E0A4
:1054A3006F60BE12560B650A7004A3E0650B60B112
:1054B300E8FAE9FBEA75F017A4FA75F017EBA425EF
:1054C3000DFBEA24C8F582EB3407F583E014C3949B
:1054D30006508E74016D050C6087E50CC39C4081FA
:1054E300E875F017A4F8AAF075F017E9A42AF9E80B
:1054F300125636E93407F583124F510255DD780011
:105503007900800312530D12564E40030255C4E82E
:10551300FAE9FBEA75F012A4FA85F00D1255EA6474
:10552300FE7004A3E064FF60DB1255E065087004BD
:10553300A3E0650960CE1255E06E7003A3E06F60CF
:10554300C31255E0650A7004A3E0650B60B6E8FA80
:10555300E9FBEA75F012A4FA75F012EBA4250DFB32
:10556300EA2449F582EB3406F583E014C39406502C
:1055730093E8FAE9FBEA75F012A4FA75F012EBA4CA
:10558300250D1255FE64017003025507E064027095
:105593000302550774016D050C7003025507E50CF2
:1055A300C39C5003025507E875F012A4F8AAF075DE
:1055B300F012E9A42AF9E82440F582E934060254FA
:1055C300F9E50C6011EC700E7401650C6003025474
:1055D3004E7C010254597AFE7BFF023B3DE8FAE917
:1055E300FBEA75F012A4FA75F012EBA4250DFBEAA1
:1055F3002440F582EB3406F583E022FBEA2444F5EC
:1056030082EB3406F583E022E8FAE9FBEA75F0174A
:10561300A4FA75F017EBA4250DFBEA125636EB122C
:10562300581C22FBEA125636EB12563B2275F01732
:10563300A4A9F024BAF5822212581C64FE22901EFB
:10564300EEE493FAC3E89AE9940022901EE8E49307
:10565300FA740193FBC3E89AE99B2274F41203CA18
:105663008A0A8B0BECFEEDFF750800750900800CB0
:10567300E5082401F508E5093400F509901EEEE478
:1056830093F8C3E50898E5099400503CEEFCEFFD60
:10569300E50875F017A4F8AAF075F017E509A42A30
:1056A300F9E812586C60C9E50875F017A4F508AA63
:1056B300F075F017E509A42AF509E508125636E551
:1056C300093407F583123D4B022FE874F01203CA25
:1056D3008A0C8B0D8C088D09890A120E468A0E8B53
:1056E3000FAE0EAF0FEE7001EF605412534AE50C8C
:1056F300F0A3E50D125761125758E50A600AEE242C
:105703000F122973E50A800312574EF09003DDE070
:105713007002A3E0601A9003B5E064017008EE2400
:105723000E1242508010EE240E1229737407800665
:10573300EE240E12575112517412020E12574502E3
:105743004E5EEE240D12476FE8F022EE240F12474F
:105753006F740122A3A3E508F0A3E509F022125117
:1057630067A3A32274F51203CA8A088B09ECFEED22
:10577300FF750A008014E875F017A41257CE700362
:10578300A3E06F60031257D4050A901EEEE493FA68
:10579300E50AC39A5024A80AE875F017A4A9F012E1
:1057A30057C0E065087004A3E0650970C9E875F0A7
:1057B30017A41257C0124FCF80CE0231DA1257C44A
:1057C3002224C4F582E93407F583221257C4E06E1C
:1057D30022E8125316120E4C2274F71203CAEAFE81
:1057E300EBFF750800801AA8081258136E7003A304
:1057F300E06F700BE81258227005E5081251BE05E0
:1058030008901EEEE493FAE508C39A40DA02389C46
:10581300E8125630E912581C223407F583E022754A
:10582300F017A424BCFAE93407FB120AB6E922C034
:1058330082C08374F81208C8851882851983AC82E4
:10584300AD83758380758228740812079485188246
:10585300851983AC82AD8312587364017004790097
:1058630080027901740802457E24BCFAE93407FBFF
:1058730012189CE92274F71203CAE9FE120AFEEE1B
:10588300900A36F090030C7458F0A3741AF0900346
:105893000E7452F0A3741AF0900310744CF0A374B6
:1058A3001AF09003127446F0A3741AF0026D167482
:1058B300F71203CAE9FEE4900302F0EE900301F04D
:1058C3007C6A7D057A037B031218A2900A88E09014
:1058D300030BF0121A22026D1674F41203CA8A081B
:1058E3008B0974805509F9E47001E97021EA5402C7
:1058F300605B7401900A35F074026508FA806CE00D
:1059030064027003121986EEFAEFFB12117C900306
:105913000112754C7001EF602B8E828F83E064015E
:1059230070DD1273A51206BF125970120835EE24EA
:105933000B125BD31206C312755B1211107408129B
:10594300086380C3AA0874806509FB801EEA5404B7
:105953006004740480A4EA5408600C121A1C7408CE
:105963006508FAAB0980047A007B00800DEE240FF2
:10597300F50AEF3400F50B780A227F0402064B7414
:10598300F41203CA8A088B098A828B83A3A3A3E038
:105993002410126D93FA1274077001EF7003025A08
:1059A3003474028E828F83F0E4A31273F5A3A3A34E
:1059B300A3E8F0A3E912713DA3A3A3A3A3A3A3A305
:1059C300F0E5082403F8E5091269B02410126C010C
:1059D3008E828F83A3A3A3A3F0EE2409FA125A376E
:1059E300126DDBF5838882E0A2E550047401800127
:1059F300E48E828F83A3A3A3A3A3F0E5082403F873
:105A030088828983126D8E12782DEB125BD6125A1F
:105A130042120831127827EB126E0D8E828F83A308
:105A2300A31273B2120863EEFAEFFB900301127430
:105A33001E02597DEF3400FB8E828F83A3A322E0E5
:105A4300F508A3E0F509750A0078082274F2120339
:105A5300CA8A088B09ECFAEDFB740E120A97E0FC74
:105A6300120B2E8A0C8B0DAE0CAF0DEE7001EF6096
:105A730023AC08AD09120B1CE96019AC08AD09EEA3
:105A8300FAEFFB120B22E97007EEFAEFFB120B168B
:105A93007900800279B480031208637F0602064B03
:105AA30074EE1203CA74F71208C88A0A8B0BECFE51
:105AB300EDFF750FB3750E00750C00750D00800CAE
:105AC300E50C2401F50CE50D3400F50D901EE6E41C
:105AD30093F8740193F9C3E50C98E50D994003021B
:105AE3005BC4AA0CAB0D120B7C8A088B09EA70010C
:105AF300EB60CD8A828B83A3A3A3A3A3E0250EF53A
:105B03000EF510C3E50A9510E50B940050B27C1511
:105B13007D007900EEFAEFFB127182A3A3A3A3E544
:105B23000AC3950EFAE02AC333F8E433F9E50828EB
:105B3300F582E50939F583A3A3A3A3A3A31274856F
