:020000040000FA
:06000000020A100201AD2E
:03002B000208794F
:0300330002058C37
:030053000200EABE
:03006B0002056526
:100083000201410101050301EE0FEE0FEE0FEE0F2A
:10009300AA0EA40EEE0F731C00000000AF1B00009D
:1000A30000000C0000000C0001FF1027010100B745
:1000B300040000000905E80364006400B8010202BB
:1000C3000008000005020701051E02051E020A0AB8
:1000D30003B80B02803E010203320001FFFF020A54
:1000E3001401E002020612C0E074F21203C1A2AFCF
:1000F300E492E0FED2AFE5A7FAE5A1FBEA5B541078
:10010300600812157C75A1EF802AEAA2E0C0D0EB4B
:10011300A2E092F0120973158182F0501790619852
:10012300E0FA9005D7E0C39AA2D265D0335002EA31
:10013300F075A1FEEEA2E092AF7F010204C9C0E018
:1001430074F21203C1A2AFE492E0FED2AF9061A4B5
:10015300E0FA759B00E5915A540860087591F7120F
:1001630015BE802AE5915A541060087591EF121557
:10017300C4801BEAA2E0C0D0E591A2E092F012098C
:1001830073158182F05007E0C2E0F01216FC906113
:10019300A3E0FAE5E95A5404600E1216D275E9FB9E
:1001A300906193E0A2E640F2808AC0E074F2120309
:1001B300C1A2AFE492E0FED2AF9061A5E0FAE5BF41
:1001C3005A5404600675BFFB121714020137C3E4C7
:1001D30098F8E499F91202128026C3E49AFAE49B90
:1001E300FBE920E7E9120212E498F8E499F922C343
:1001F300E498F8E499F9120212E498F8E499F9C33F
:10020300E49AFAE49BFB22EB20E7CFE920E7E0B98D
:100213000010BB0008E88AF084F8AAF022E4FBC8C7
:10022300FA22EB70227B10C833C8C933C933500795
:10023300C39AC3DBF280069A50012ADBEAC833F47F
:10024300C8C933F4C9FA2275F008E4C833C8C933FE
:10025300C933C99AC99B5004C92AC93BD5F0ECFBE1
:10026300C833F4C8E4C9FA22080808EAC0E0EBC0BE
:10027300E086F0E7A4FA180986F0E7A42AFA180939
:1002830086F0E7A42AFA180986F0E7A42AFA198661
:10029300F0E7A4FBE5F02AFA190886F0E7A42BFBA4
:1002A300E5F03AFA190886F0E7A42BFBE5F03AFAF1
:1002B30018180986F0E7A4C5F02BFBE43AFA1908ED
:1002C300E7C5F0C6A426F6E5F03BFBE43AFA188648
:1002D300F0E7A4F6E5F00826F6E43B08F6E43A086E
:1002E300F6D0E0FBD0E0FA22E4CFC0E0E4CEC0E0F9
:1002F300E4CDC0E0E4CCC0E075F020C3E633F608FB
:10030300E633F608E633F608E633F6181818EC3346
:10031300FCED33FDEE33FEEF33FFC3EC9709ED97AE
:1003230009EE9709EF97191919400FFFEC97FC098C
:10033300ED97FD09EE97FE191906D5F0BEECF70906
:10034300EDF709EEF709EFF7191919D0E0FCD0E042
:10035300FDD0E0FED0E0FF222518C582C0E0E519FC
:1003630034FFC583C0E0E518C3958224F8F8E4C5DB
:10037300A8858319858218C5A8E8CEF0A3E520F0E7
:10038300A37808E608F0A3DEFAEFF0A3E58124FAE8
:10039300F8E608F0A3E608F0A3E608F0A30808E6E9
:1003A30008F0A3E608F0A315811581D0E0FED0E0A4
:1003B300F8158115811581E8C0E0EEC0E022C0D0B8
:1003C3002518C582C0E0E51934FFC583C0E0E518F0
:1003D300C3958224F310AF0885831985821880089A
:1003E300858319858218D2AFC8F0A3E9F0A3EAF098
:1003F300A3EBF0A37908E709F0A3D8FAECF0A3ED97
:10040300F0A3EEF0A3EFF0A3D0E0F0A3D0E0F0A3CD
:10041300D0E0F0A3E520F0A3E5F0F0A322120A5AFE
:10042300B90003020462E490030178307908800282
:10043300F0A3D8FCD9FA900A30AA82AB8390008645
:10044300786579018015E493A3AC82AD838A828BAE
:1004530083F0A3AA82AB838C828D83D8E9D9E77515
:1004630082157583D574021207D87582AE75831908
:1004730074001207D875F0108E1A8F1B85821F85A2
:10048300831E851882851983E0CEA3E0CF851F8262
:10049300851E83EBC9EAC8EDCBECCAC3E833C8E9D0
:1004A30033C9EA33CAEB33CBC3EA9EF51DEB9FF5A1
:1004B3001CB35004AB1CAA1DEC33CCED33CDD5F0EB
:1004C300DAAE1AAF1B22851983851882E0C0E0A338
:1004D300E0F9A3E0FAA3E0FBA37808E0F608A3DFC2
:1004E300FAE0FCA3E0FDA3E0FEA3E0FFA3E0C0E08D
:1004F300A3E0C0E0A3E0F5D0A3E0F520A3E0A3F5DB
:10050300F0E4C5A8858319858218C5A8D082D08355
:10051300D0E0F8D0E032D083D082ECC0E0EDC0E090
:10052300E493A3FCE493A3FDED4C600D1205F1EC01
:1005330024FFFCED34FFFD80EFE493A3FCE493A3DD
:10054300FDED4C600D120702EC24FFFCED34FFFDC2
:1005530080EFD0E0FDD0E0FCE493A3C0E0E493C0DF
:10056300E022C0E074F21203C1A2AFE492E0FED233
:10057300AFE589A2E150031214F8758900C2C5EEF4
:10058300A2E092AF7F010204C9C0E074F21203C17A
:10059300A2AFE492E0FED2AFE58BA2E050031214C7
:1005A300F8758B00C2E880D7D083D082E9C0E0E43D
:1005B30093A3C386F0C5F095F0F908E493A386F0FE
:1005C300C5F095F0700BE493A3C3994005E904804B
:1005D30002A3E475F002A42582F582E5F03583F5E4
:1005E30083D0E0F9E493A3C0E0E493C0E022C0E049
:1005F300C3E49396087401939618400FE4936670CE
:100603000808740193661870007019A3A3C3E493D8
:1006130096087401939618A3A3400DD0E0D0E0D0C0
:10062300E0020555A3A3A3A3A3A3D0E022851983C6
:10063300851882E0A3FEE0A3F5207808E0A3F6087E
:10064300DFFAE0A3FFE0A3C0E0E0A3C0E0E0A3C0C3
:10065300E0E0A3C0E0E0A3C0E0E4C5A8858218857C
:100663008319C5A8D083D0820207DED083D082C588
:10067300F0E493A3C5F0C395F0F5F0E493A3C39519
:10068300F04005E5F0048001E475F002A42582F54D
:1006930082E5F03583F583E493A3C0E0E493C0E0FF
:1006A300227404800474028000CCC0E0EDC0E0E555
:1006B30018C39CCCAD1950011D10AF068C188D19B1
:1006C30080068C188D19D2AF120779D0E0FDD0E0E7
:1006D300FC2274028000CCC0E0EDC0E0E518C39CAE
:1006E300CCAD1950011D10AF068C188D1980068CE6
:1006F300188D19D2AF120757D0E0FDD0E0FC22C00D
:10070300E0C0F088F0E493667008087401936618FB
:100713007000A8F0A3A3700BD0F0D0E0D0E0D0E03D
:10072300020555A3A3D0F0D0E022D083D082CCC061
:10073300E0E493A360061207B91470FAE493A3608C
:10074300061208C01470FAD0E0FCE493A3C0E0E4FE
:1007530093C0E022CAC0E0E493A3C582CCC582C59E
:1007630083CDC583F0A3C582CCC582C583CDC583A4
:10077300DAE5D0E0CA22CAC0E0E0A3C582CCC582D4
:10078300C583CDC583F0A3C582CCC582C583CDC542
:1007930083DAE6D0E0CA2270090808082260161836
:1007A3001818C6C333C608C633C608C633C608C638
:1007B30033C6D5E0EA22C0E0E493A3D39C5010E40F
:1007C30093A3C39C400AD0E0D0E0D0E002074AA341
:1007D300A3A3D0E022C09FF59FE473D09F22D083D0
:1007E300D082C09FE493C0E0740193C0E07402938D
:1007F300F59F222518F58210AF08F5184002151948
:100803008008F51840021519D2AF851983227404A4
:10081300800A74038006740280027401C0E0F40449
:100823001207F6D0E0120A4D22C0D0251810AF08E7
:10083300F518500205198008F51850020519D2AFB2
:10084300D0D022BB0102E722C082C08389828A837F
:10085300BB0003E08002E493D083D08222601608B9
:100863000808C6C313C618C613C618C613C618C6C7
:1008730013C6D5E0EA22C0E0C0D0EAC0E0E5A8D2C2
:10088300AFC2C7A2E792AFD0E0FAD0D0D0E032C374
:10089300E0C696F608A3E0C696F608A3E0C696F669
:1008A30008A3E0C696F622251810AF08F5184002F3
:1008B30015198008F51840021519D2AF22C0E0E4DB
:1008C30093A36C7009D0E0D0E0D0E002074AA3A361
:1008D300D0E022C3E09608A3E09608A3E09608A31D
:1008E300E096A2D265D03322E066701008A3E066DA
:1008F300700A08A3E066700408A3E06622C3E096CA
:10090300F008A3E096F008A3E096F008A3E096F0C1
:1009130022E026F008A3E036F008A3E036F008A3AF
:10092300E036F022E026F608A3E036F608A3E03628
:10093300F608A3E036F622E627F60809E637F608B6
:1009430009E637F60809E637F622E657F60809E618
:1009530057F60809E657F60809E657F622E056F671
:1009630008A3E056F608A3E056F608A3E056F622DD
:10097300C0E0E8C0E0E58124FCF8E6A2E7D0E0F8B7
:10098300D0E022700422600D18C6C333C608C633F4
:10099300C6D5E0F41822E056F008A3E056F008A309
:1009A300E056F008A3E056F022E647F60809E647CA
:1009B300F60809E647F60809E647F622E4C396F681
:1009C30008E496F608E496F608E496F622C3E7965A
:1009D3000809E7960809E7960809E79622C6F4C6C8
:1009E30008C6F4C608C6F4C608C6F4C622C3E09611
:1009F30008A3E09608A3E09608A3E09622600D08FA
:100A0300C6A2E713C618C613C6D5E0F32275D000F5
:100A130075814075180175190300020420E0F6087A
:100A2300A3E0F608A3E0F608A3E0F622600C08C6EC
:100A3300C313C618C613C6D5E0F422E6F008A3E62E
:100A4300F008A3E6F008A3E6F022CAC0E0E6F0A3AC
:100A530008DAFAD0E0FA2274F855C74401F5C779E9
:100A630001222518F582E43519F58322C2AF75D624
:100A73009F020000221207E19181011207E13882EF
:100A8300011207E19082011207E1AB82011207E133
:100A9300CF82011207E10A83011207E15383011296
:100AA30007E19E83011207E17B84011207E136858A
:100AB300011207E1EC85011207E1B386011207E198
:100AC3003987011207E14B87011207E155870112AC
:100AD30007E17C88011207E1F788011207E14289E7
:100AE300011207E1AC89011207E10C8B011207E146
:100AF3002C8B011207E1858B011207E10C8C01128B
:100B030007E1628C011207E1858D011207E14E8E28
:100B1300011207E1AF8E011207E12D8F011207E1E8
:100B2300828F011207E1B78F011207E1E9900112E9
:100B330007E1E391011207E13F92011207E1889275
:100B4300011207E1AA92011207E13393011207E1AF
:100B5300C593011207E14994011207E15A94011266
:100B630007E1D694011207E17E95011207E1D795BB
:100B7300011207E1B296011207E1FB96011207E1A8
:100B83003897011207E1E198011207E14A9A01122D
:100B930007E1669B011207E18B9D011207E1969D18
:100BA300011207E1A09D011207E1AB9D011207E1CC
:100BB300B59D011207E1BF9D011207E1CA9D011214
:100BC30007E1D59D011207E1FD9D011207E1219E79
:100BD300011207E1459E011207E1AB9E011207E1F5
:100BE300FB9E011207E1199F011207E1A59F011264
:100BF30007E1E39F011207E130A0011207E1C0A062
:100C0300011207E191A2011207E12DA3011207E1ED
:100C1300F1A3011207E1F9A6011207E14EA70112A0
:100C230007E178A7011207E1BEA8011207E109A9AC
:100C3300011207E160A9011207E168AA011207E1A5
:100C43002CAB011207E1A4AB011207E130AC011296
:100C530007E1281E001207E1751E001207E15C2060
:100C6300001207E19A20001207E1E620001207E1D3
:100C73009321001207E1ED21001207E12322001264
:100C830007E18B22001207E1A623001207E1BC242F
:100C9300001207E17725001207E1D728001207E1C8
:100CA3007029001207E1612A001207E1F42A0012F9
:100CB30007E1152C001207E1242E001207E1DB2EB9
:100CC300001207E1E52E001207E1262F001207E1CB
:100CD3000430001207E1A830001207E114310012BA
:100CE30007E14131001207E16331001207E1AD333F
:100CF300001207E18E34001207E1DF34001207E12E
:100D03004E35001207E11336001207E14836001290
:100D130007E19136001207E1C636001207E12037DA
:100D2300001207E17737001207E1E937001207E104
:100D33005238001207E1C338001207E16F3A00127C
:100D430007E14D3B001207E1803C001207E1C13E81
:100D5300001207E1873F001207E1B241001207E1E9
:100D63005542001207E19C42001207E17044001251
:100D730007E18444001207E18E44001207E1BB44FB
:100D8300001207E1C744001207E1E544001207E13E
:100D9300BA45001207E1F145001207E1FB450012D5
:100DA30007E1B546001207E1B447001207E1A44882
:100DB300001207E14949001207E1D249001207E195
:100DC300E949001207E1224A001207E1404A0012F2
:100DD30007E1844A001207E1B54A001207E1A64B76
:100DE300001207E10E4C001207E16D4C001207E1FF
:100DF300964D001207E1964E001207E1024F0012D2
:100E030007E1C64F001207E1EC4F001207E1B950AA
:100E1300001207E10C51001207E19851001207E19B
:100E23004F52001207E18552001207E1BA52001235
:100E330007E1E152001207E15D53001207E18B5510
:100E4300001207E1FB55001207E19456001207E177
:100E53000957001207E15F57001207E11CE5021270
:100E630007E167E5021207E1B258001207E11C59D6
:100E7300001207E17659001207E1C459001207E195
:100E8300DF59001207E1155A001207E1365A001222
:100E930007E1425A001207E1C05B001207E1DE5B83
:100EA300001207E1475C001207E15A5C001207E1F8
:100EB300685C001207E10A5D001207E1145E00128C
:100EC30007E12E5F001207E1A35F001207E1AD5FA8
:100ED300001207E11A60001207E13160001207E116
:100EE3007060001207E1B160001207E1E0600012D8
:100EF30007E11661001207E13561001207E1536152
:100F0300001207E19461001207E16F62001207E12A
:100F1300B562001207E1E062001207E142630012CA
:100F230007E17563001207E1AE63001207E1BC63DA
:100F3300001207E11464001207E15364001207E191
:100F43009364001207E1D764001207E1FA64001208
:100F530007E10565001207E12365001207E1EC656F
:100F6300001207E1F665001207E13566001207E19A
:100F73004B66001207E15466001207E1C3660012D4
:100F830007E1D766001207E1E667001207E1F96798
:100F9300001207E10E68001207E1BF68001207E1C3
:100FA3003169001207E1F669001207E1016A0012D4
:100FB30007E1286B001207E1446B001207E1A36B02
:100FC300001207E1E16B001207E1FB6B001207E17E
:100FD300326C001207E1726E001207E1E66E001236
:100FE30007E15B6F001207E1B771001207E1C771F8
:100FF300001207E1CA71001207E1D671001207E17E
:10100300EA71001207E1F271001207E12772001280
:1010130007E1EB72001207E15C73001207E1C27390
:10102300001207E15E74001207E1F774001207E192
:101033001E75001207E1C175001207E1CD7500129C
:1010430007E1FC75001207E1FF75001207E16F76F7
:10105300001207E17177001207E15178001207E1EE
:10106300DC78001207E1017A001207E1B87A001276
:1010730007E1F17A001207E1227B001207E12B7BE3
:10108300001207E1677B001207E1417C001207E1D0
:10109300F37C001207E1857D001207E1427E001216
:1010A30007E1C17E001207E1F37E001207E1327F00
:1010B300001207E1E88D021207E1FA8D021207E13F
:1010C300668E021207E19C8E021207E1F38E021272
:1010D30007E11091021207E11893021207E18E96BD
:1010E300021207E1BD96021207E1E196021207E13F
:1010F3004897021207E17C97021207E1A2970212B6
:1011030007E1D297021207E11B98021207E1C2E539
:10111300021207E1ABA0021207E1FEA0021207E1EF
:101123006EA1021207E18DA1021207E143A202128E
:1011330007E14CA2021207E1A2A2021207E1CFA229
:10114300021207E130A3021207E1C9A3021207E169
:1011530006A4021207E145A4021207E1A7A40212A2
:1011630007E128A5021207E182A5021207E11BCEBF
:10117300011207E1F5A5021207E107A6021207E132
:1011830019A6021207E138A6021207E141A60212CC
:1011930007E100A7021207E172E2021207E1B2D0EF
:1011A300021207E1EAD0021207E135D1021207E188
:1011B3008ED2021207E1EECF011207E12ED1011206
:1011C30007E10C81011207E13DD3011207E166D368
:1011D300011207E101D6011207E148D6011207E126
:1011E300E3D7011207E17AD8011207E1E2D801122D
:1011F30007E18FD9011207E1CFD9011207E10FDA15
:10120300011207E19FDB011207E111DD011207E182
:1012130060DF011207E18EDF011207E1C4DF011273
:1012230007E1CDDF011207E12AE0011207E1ACE09B
:10123300011207E1DDE3011207E1A5E6021207E16E
:101243001FBE021207E137BE021207E1D4BE02122B
:1012530007E115BF021207E132BF021207E155BFD2
:10126300021207E19CBF021207E1D5BF021207E198
:1012730009C0021207E1B1C1021207E13EE3021203
:1012830007E174E3021207E191E3021207E1D6E3F7
:10129300021207E1E7E3021207E13FB6021207E198
:1012A30044B7021207E147B7021207E170B702120F
:1012B30007E173B7021207E176B7021207E179B7C4
:1012C300021207E17CB7021207E17FB7021207E1BE
:1012D3008EB9021207E15EE4011207E1B4E40112E0
:1012E30007E15EE5011207E109E6011207E153E6B2
:1012F300011207E167E6011207E132E8011207E193
:10130300B1E8011207E1DBE8011207E177EA011214
:1013130007E192EA011207E1D2EA011207E110EBB9
:10132300011207E168EB011207E183EB011207E108
:10133300DCEB011207E131EC011207E14BED011285
:1013430007E1DDEF011207E178F0011207E1A1F0F7
:10135300011207E105F1011207E122F1011207E190
:1013630025F1011207E128F1011207E1A1F10112B0
:1013730007E1BEF1011207E1EAF1011207E125F2EB
:10138300011207E128F2011207E1687F001207E169
:10139300747F001207E1BE7F001207E10080021292
:1013A30007E12B80021207E10481021207E1898120
:1013B300021207E1F281021207E13E82021207E103
:1013C300A482021207E13B83021207E1AF830212F8
:1013D30007E1EB83021207E1B487021207E13F89B9
:1013E300021207E1B78A021207E1458B021207E1F5
:1013F3007A8C021207E161F2011207E11BF3011279
:1014030007E18BF3011207E109F4011207E16FF41D
:10141300011207E1DFF4011207E119F6011207E1F6
:10142300C6F6011207E129F7011207E18DF801124F
:1014330007E152F9011207E153FA011207E1E9FA50
:10144300011207E1C8FB011207E19DE6021207E161
:10145300A0E6021207E11CD7021207E14BD70212E2
:1014630007E10ED8021207E174D8021207E199D5F9
:10147300021207E190E0021207E1C3E0021207E162
:10148300D9E0021207E120E1021207E1A1E1021211
:1014930007E1B2E1021207E158E2021207E1F6D8CE
:1014A300021207E104D9021207E1BBE6021207E1C7
:1014B3008CE4021207E19CE4021207E1B1E4021298
:1014C30007E119E5021207E169DE021207E1F2DE24
:1014D300021207E164DF021207E1B4DA021207E144
:1014E300D0DA021207E136DB021207E156DB021201
:1014F30007E18ADB021207E1E3DB021207E15BC5C6
:10150300021207E169C5021207E1EDC5021207E104
:10151300A9C6021207E140C8021207E1D0AC0212C9
:1015230007E123AD021207E12BAF021207E163AF1C
:10153300021207E188AF021207E1A1AF021207E12D
:10154300BAAF021207E1C3B0021207E15EB10212A1
:1015530007E1FAD2021207E13DD3021207E14ED3AB
:10156300021207E181D3021207E1B7D3021207E1A6
:10157300EDD3021207E166D4021207E1A3D40212EB
:1015830007E12BFD011207E153FD011207E190FD75
:10159300011207E19FFD011207E1BEFD011207E100
:1015A30028FE011207E131FE011207E192FE01124A
:1015B30007E1B6FE011207E179FF011207E186FF99
:1015C300011207E197FF011207E153E6021207E157
:1015D30070E6021207E16ABA021207E1CFBB0212F8
:1015E30007E1DCBB021207E1F2BB021207E10FBC09
:1015F300021207E126BC021207E13BBC021207E11B
:101603000CBD021207E19EBD021207E100BE0212E9
:1016130007E110BE021207E1F1E3021207E116E44B
:10162300021207E13FE4021207E167E4021207E155
:10163300DDCB021207E104CC021207E125CC021232
:1016430007E187CC021207E14DCE021207E166CE15
:10165300021207E172CE021207E186CE021207E1FF
:10166300AACE021207E1B6CE021207E1C5CE0212DC
:1016730007E1D8CE021207E128CF021207E162CFB9
:10168300021207E192CF021207E1E1CF021207E152
:101693002FD0021207E147D0021207E151D0021204
:1016A30007E162D0021207E1A7D0021207E171E558
:1016B300021207E17798021207E1A398021207E1E9
:1016C300BF98021207E1D298021207E1E8980212CA
:1016D30007E15299021207E18599021207E1EF9C93
:1016E300021207E1F29D021207E1229E021207E1B4
:1016F3009B9E021207E18A9F021207E1B29F021228
:1017030007E1C79F021207E1D79F021207E118A062
:10171300021207E16DA0021207E17DA0021207E1A8
:1017230018DC021207E133DC021207E15CDC02126F
:1017330007E176DC021207E19BDC021207E1BADC67
:10174300021207E1D3DC021207E102DD021207E114
:101753001DDD021207E10FE6021207E1C9C1021201
:1017630007E1D0C1021207E1DDC2021207E10FC394
:10177300021207E135C3021207E158C3021207E15F
:101783007AC3021207E1B5C3021207E125C40212AC
:1017930007E162C4021207E1AFC4021207E1DDC42C
:1017A300021207E1FDC4021207E14FDD021207E155
:1017B30061DD021207E163DE021207E166DE021257
:1017C30007E17DDF021207E1EEDF021207E12DE000
:1017D300021207E16EE0021207E129A7021207E1F4
:1017E3008FA7021207E171A8021207E1B2A8021241
:1017F30007E1E3A8021207E1BEAA021207E1C2ABA6
:10180300021207E154AC021207E18FAC021207E1A6
:10181300A5C8021207E1C1C8021207E10AC90212F0
:1018230007E126C9021207E157C9021207E17FC97E
:10183300021207E187CA021207E191CA021207E105
:101843009ECA021207E1B6CB021207E1CACB02120B
:1018530007E1D3CB021207E19DB1021207E1C8B53C
:10186300021207E1CDB5021207E1C5FF011207E13C
:10187300DECC011207E172CA011207E107CA0112A5
:1018830007E1C1C9011207E18CC6011207E158C67D
:10189300011207E112C6011207E1FBC5011207E1BC
:1018A30014C5011207E1C4C4011207E10EC30112FA
:1018B30007E17BC2011207E178C2011207E19DC172
:1018C300011207E169C1011207E194C0011207E1A6
:1018D300C8BE011207E183BE011207E155BE011222
:1018E30007E152BE011207E1AE80011207E17D80DC
:1018F300011207E16B80011207E13FBE011207E10C
:10190300F9BD011207E1ECBD011207E1C5BC0112EB
:1019130007E1C8CF011207E14FBC011207E11CBC6C
:10192300011207E1C0BB011207E18FBB011207E1FE
:10193300A9CF011207E16AD1011207E14AB80112E6
:1019430007E144B7011207E1CFB6011207E19AB6E6
:10195300011207E163B6011207E157B6011207E16D
:10196300B2B5011207E1F1B4011207E1FDB20112B0
:1019730007E175B0011207E133B0011207E1F1AEDF
:10198300011207E19DAE011207E1D0AD011207E19B
:101993002AAD011207E100AD011207E1BBCE01122E
:1019A30007E1C6AC011207E1C1A50200000080FBFC
:1019B300E4738F0001007205870001008B0A240085
:1019C3000200630A25000200650A26000200670A76
:1019D30027000200690A280001006B0A29000100A0
:1019E3006C0A840004006D0A86000100710A2A0053
:1019F3000100720A2B000100730A2C000100760A11
:101A03002D0008005E052E000100770A2F0001005B
:101A1300780A30000100790A310001007A0A3200A5
:101A230001006605330001006705340001007B0AED
:101A3300360001006805380001007C0A3900010006
:101A4300750A83000200890A6300010071056400BE
:101A530001005B0565000100740A6D000100880A3E
:101A63006E0002005C05430001007D0A4400020091
:101A73007E0A45000100800A46000200810A4700F1
:101A83000800690548000100830A49000100850A2E
:101A93004A000200860A4B000100840A0400010088
:101AA3008C0AA10001008F0A370001008E0A88000A
:101AB30001008D0A0000000000000001363601011C
:101AC30000010201000103010001040106060502F1
:101AD3000000070100340801000F090401010D0192
:101AE30000FF0E08000017020000190100FF1A0191
:101AF30000011B0100FE1C0100081D0200001F0164
:101B0300000120010001210200002301000F240233
:101B130000002601000127010008280200FF2A0116
:101B230000072B0102402C0100002D0100012E01B2
:101B330000012F0100FF30010B1C310800003A01A6
:101B430000083B01000F2F01000001017101010199
:101B530001011101010131010101010180011001A4
:101B630061013B00140063017301720162014301CF
:101B73000001130106013D013500040112010001BA
:101B830000010001000104010401330133013C01A0
:101B930044013201360000010001650100013500F6
:101BA3008101000105018201830100010103710329
:101BB30001030103010301030103220302030103E0
:101BC30010030003000300030003000300030003EA
:101BD3004203000324030603000300030403120368
:101BE3002503230325032303040304030003000342
:101BF30000034403000300032303000365032100E0
:101C030035038103000305030003000300030302FC
:101C1300710230016002110270020102020202022B
:101C23008002100261023A004100630273027202F1
:101C3300620243020002130238000002000204029F
:101C43001202000200020002000204020402370032
:101C530037003C0244020002390000020002650220
:101C630000023502810200020502820283020002A1
:101C73000300710030016000110070003102200385
:101C83005004800010006100000014006300730022
:101C93007200620043000000130006000000000011
:101CA3000400120000000000000000000400040013
:101CB300370037003C024400000000000000000031
:101CC300650000003500810000000500000083006E
:101CD300000036000100060000000F0000000000B5
:101CE300000000000000000003FFFF00000403FFEA
:101CF300FF0000FFFF0FF4010005C40403200001EF
:101D030000000B000000000000000003010F040F9F
:101D1300340F0A0F100F2E0F220F1C0F3A0F400F14
:101D2300460F520F160FFE0EF80E01001414020098
:101D3300B4130300BA130400C0130500C61306004E
:101D4300D213FFFF000003EAF5E5D5D5C5B5A59588
:101D53009585857575656555554545353525251530
:101D630015050AD60C02A00C05B20C07A60C0C82B2
:101D73000C0D940CFF000000160F00000B150B0256
:101D83000002220F32000006EE0F00100610CE0EE6
:101D93000C10C80ED40E4E106C107210541060103C
:101DA3005A100C0E020B040B0A0708000F00383CF4
:101DB3003E363B3B352B432C0001191618161615DE
:101DC30023030000034948424D181725050230300C
:101DD30017181921301B1D1F3030301618192023F6
:101DE3001A1C1E3042101210181024101E10280F37
:101DF3004C0F6610580F5E0F020402010101010926
:101E0300020005150D0910080400BE040AE80304C6
:101E13000015000E00280008040C0A030908FF1E21
:101E23001E0F040C0574F712035BE99003BBF0E487
:101E3300900370F01217AA9003C0E4F0A3F090038C
:101E4300BCF0A3F0120E0E1217B090033FE4F0A300
:101E5300F09003DBE07002A3E060099003DB12461D
:101E6300091219B3901E24E493FA79021218460258
:101E730037C974F212035BEAFEEBFF74805FF9E487
:101E83007001E960679003BBE0F91211448A088B83
:101E930009EA7001EB604C7C0080010CEC75F003E7
:101EA300A4A9F02465F582E9341DF583E49364FF66
:101EB300602AE493FA8508828B83E06A70DDAA08BE
:101EC300EC75F003A42466F582E9341DF583E493ED
:101ED300C0E0740193F583D0821219B3AA08AB0949
:101EE300121138EEFA74806FFB02204F74205FF9F1
:101EF300E47001E9601D120D308A088B09EA700154
:101F0300EB600A120C94AA08AB09121138EEFA74AA
:101F13002080D4EEA2E0501A900375E0640F700B9A
:101F23007900120C5EE9600312205274016EFAEF1D
:101F330080B65420700302201B750A001236057008
:101F430001EB70107C027D007A207B009003BBE0E4
:101F5300F912125E7C0079047A007B00120D0C8A60
:101F6300088B0980187401850882850983A3A3A3BC
:101F7300A3A3A3A3A3A3F0850C08850D09E508700B
:101F830002E50960717C007904AA08AB09120D0C03
:101F93008A0C8B0D750A01E5082404F8E509123350
:101FA3008B24FFF0A3E034FF1247667002A3E070B6
:101FB300C6850882850983A3A3A3A3A3A3A3A3A37D
:101FC300A3E06401709F850882850983A3A3A3A36B
:101FD300A3A3E05404708E7406850882850983A345
:101FE300A3A3A3A3A3A3A3A3F07AB7850882850918
:101FF300831221888081120CDC7C0079017A007BBA
:1020030000120D0CEA7001EB7009E50A70057A20E5
:102013001245AF7420021F3074025FF9E47001E9C6
:10202300600A120E08EEFA7402021EEA74045FF9E3
:10203300E47001E9601212474D1246627901122AD7
:1020430057EEFA7404021EEA7A007B00023A6A90A1
:102053000A6312296A120C7622C082C08374EA12C0
:1020630008AA851882851983AA82AB83794B121833
:102073001C7408120A657402F07409120A65AA82B4
:10208300AB83795012181C7413120A65124B911208
:10209300183A74160244AB74F712035B74E1120826
:1020A300AAEAFEEBFFEE7001EF6033851882851913
:1020B30083AC82AD83120D547406120A65E0601E70
:1020C3007417120A65E0FD7401120A65E0FCEEFA6A
:1020D300EFFB7900121930E9600479A480027900DA
:1020E3000237C474F612035BEAFEEBFF8E828F8322
:1020F300A3A3A3A3A3A3E05440601B12460512228B
:102103005460067AFF7BFF801A8E828F831237A575
:10211300FAA3E0FB8003120D7874FE6A700374FF68
:102123006B6043124605124AAF120DCCE98E828FC3
:1021330083600612217AE4800512217A7401F07C0F
:10214300647D0C8E828F83124E7E121840E9F5084F
:102153007017EE7001EF60097901EEFAEFFB120CD4
:10216300E8A9080246447508CDAA088E828F831217
:102173002188E960DD80EAE0240D12218122F8A3A1
:10218300E0123E8022E0240C1249C5F9120C7022A1
:1021930074F612035BE9FEEAFF7A0F7B0012113239
:1021A300EA7001EB6019740C8A828B83F0EEA3A3AF
:1021B300F0EF8A828B83A3F012464D79008028EEDC
:1021C300F9120D128A088B09A808A909E87001E918
:1021D3006013740688828983125342E0F9120C2833
:1021E300EEF9120CEE7910024644C082C0839003CC
:1021F30075E0640F7016EA7001EB6010900370E0F5
:1022030064086005E064047003122212024295EA36
:10221300FCEBFD7A017B009003BBE0F9121258221C
:10222300C082C0837900EA241DF582EB1237A21223
:10223300072D0103044322020743220A43224422B7
:10224300090242958E828F83A3A3A3A3A3A3A3A36F
:10225300A312225822E0FAA3E0FB120DCCE9228E4E
:10226300828F83A3A3A3A3A3A3A3A3A3122258642C
:1022730002228E828F83A3A3A3A3A3A3A3A3A31248
:102283003B47900361E0682274F412035B74FD1210
:1022930008AA8A088B098A828B83A3A3E0F9120D0B
:1022A300128A0A8B0BAE0AAF0BEE7001EF700302BA
:1022B3002390850882850983A3E064F16030850853
:1022C30082850983A3E064CD602485088285098320
:1022D300A3E0641A6018850882850983A3E064E992
:1022E300600C850882850983A3E064E170087900A6
:1022F300120CE8E97068850882850983A3E0C0E0D1
:102303007402120A65D0E0123F6D124EFCEE240BEC
:102313001228B1AA82AB837005120B8C8003120DB5
:10232300B47402120A65E064E970338E828F8312FB
:10233300239C750A01780A12081D750AE9780A12A6
:10234300081DE508240CF582E5091228A3122DE0E7
:10235300FCA3E0FD8A828B83122E0312082C8E824B
:102363008F83A3A3A3A3A3A3A3A3A3E064027010D7
:1023730074068E828F83A3A3A3A3A3A3A3A3A3F013
:10238300850882850983A3A3E0F9120CEE120CDC05
:10239300900A67122055022F10E0F8A3E0F9E8FA3B
:1023A300E9FB2274F412035BEAFEEBFF7508008E6F
:1023B300828F83A3A3A3A3A3E060407508088E8242
:1023C3008F83A3A3A3A3A3A3A3A3123A587001EBE0
:1023D300601075082C8E828F83A3A3A3A3A3E0D2DE
:1023E300E0F08E828F83A3A3A3A3A3E0540364012D
:1023F300600302248A43081102248AEE2418122857
:10240300AA6030EE241A1228AA700F1222757003E4
:10241300A3E0697072750822806DEE241BF582EFCC
:1024230012249F241A12248FEE2419122497120CBB
:10243300168054122262700375080112227570030C
:10244300A3E0697006E508D2E1F508E50860158E9A
:10245300828F83A3A3E07006E508D2E58004E50834
:10246300D2E6F50812224764017006E508D2E0F5CA
:10247300088E828F83A3A3E0600D1224AD640160F4
:1024830006E508C2E0F508A908022F15F582EF1248
:10249300467EFA22F582EF12467EF92212469F12F9
:1024A30024A622E0FCA3E0FDEE22EE241D12469CAE
:1024B3001237BFF9120DBAE922C082C08379018AAB
:1024C300828B83A3A3E0C394024001198A828B8386
:1024D300A3A3A3A3E0C39402400279008A828B835F
:1024E300A3A3A3A3A3A3A3A3A3E064F87004A3E0FB
:1024F30064FF60488A828B83A3A3A3A3A3A3A3A39C
:10250300A3E064F97004A3E064FF60308A828B83E4
:10251300A3A3A3A3A3A3A3A3A3E064FA7004A3E0C8
:1025230064FF60188A828B83A3A3A3A3A3A3A3A39B
:10253300A3E064FB7004A3E064FF700279008A8265
:102543008B83A3A3A3E0FC90035EE06C600279009D
:10255300901E23E493C394805017E493C333C0E0E5
:10256300EA2411F582EB122492D0E0C39A50027947
:102573000002429574EC12035B74DE1208AAEAFEB1
:10258300EBFF8E828F83A3A3A3A3E06010900A6561
:10259300E07002A3E06006900A65122055740312EE
:1025A3000A65AC82AD838E828F83A3A3A312468A6E
:1025B300124E82E9600F7403120A65AA82AB83127A
:1025C3000C8EE9700879011217BC022898EE241BBF
:1025D300123B2D7410120A651246627409120A65C1
:1025E300E06021741A120A65E0FD7404120A65E0C2
:1025F300FC8E828F83124E7C7901121930E96004BC
:10260300790280C37403120A65AA82AB83120C8811
:10261300E9F50A7409120A65E0702A900358E0602C
:10262300247422550A6422601C7442550A64427061
:10263300CF7420120A651228C2600A7420120A6538
:102643001228BB70BBE9A2E6503E7403120A65AAC6
:1026530082AB83120C7CE970030225C87420120A32
:10266300651237A56403700C7420120A651249437E
:10267300640D60147403120A65AA82AB83120DDE23
:10268300E964017003022898EE242C1228A0122C6E
:102693000F7003A3E069701C750800780812081D09
:1026A300780812081DEE242E1224971228C8122E21
:1026B3000312082C7409120A65E0700302277912C9
:1026C30028C8124E7E120E2C8A088B09EA7001EB81
:1026D30070030228107404120A65E0F88E828F8357
:1026E300A3A3E028F8A3E03400F9740D28F582E4ED
:1026F30039F583E0FA8508828B83A3A3A3E06A609C
:1027030020EA8508828B83A3A3A3F0908041780CF1
:10271300120A208508828B83A3A3A3A3780C120A31
:102723003E7904E9120A65124E5B2AFCA3E03400E9
:102733008C82F583A3AA82AB831211268A0C8B0D9C
:102743008C0E8D0F850882850983A3A3A3A378101C
:10275300120A207810790C1209D05003022898909D
:102763008061780C120927850882850983A3A3A3B6
:10277300A3780C120A3E900370E064046008E064DE
:10278300096003022898E50AA2E54003022850EEF7
:10279300242E1228B1F0EE242F1228AAC0E07401CF
:1027A300120A65D0E0F0EE24301228AAC0E07402C9
:1027B300120A65D0E0F07414120A65E06401702710
:1027C300740E120A65123B33EE24121228AA6870A3
:1027D30003A3E0697011740C120A6512226F70076B
:1027E3007414120A65E4F0EE24241228A01206A43D
:1027F3007404120A65AC82AD837407120A65AA8257
:10280300AB83120B92740412082C0228989003B520
:10281300E0640160030227797420120A651228C25A
:102823007009E50AA2E650030227797410120A65BB
:10283300E064FF7004A3E064FF605AEEFCEFFD74F4
:1028430003120A65AA82AB83120C9A8048A2E6504F
:10285300447420120A651249BB701A741A120A656D
:10286300E0640270307403120A65AA82AB837900B4
:10287300120DA880207420120A651228BB701674EA
:102883001A120A65E06404700C7403120A65AA82C2
:10289300AB83120DA27422024D70EE240BF582EF6E
:1028A30012469F22EE2417F582EF12467E2212462D
:1028B3007B85188285198322124617E0640722124A
:1028C30037BF640622EE242A12469C1224A6241241
:1028D30012469C2274F412035BEAFEEBFF8C088D14
:1028E30009900566E0600F1222757003A3E069701A
:1028F30005120C0480517900124E71120C348A8235
:102903008B83E5827002E5836035A3A3A3A3A3A30E
:10291300E05418602AE508241BF582E5091228A370
:102923001206A8122FE61228A31206A8EE241812E4
:10293300249712294D120C46740412082C8008792E
:102943000012294D120C0A022F158E828F83A3A326
:10295300A3A3A3A3A3A3A31224A6240BF582EF127C
:102963002966223400F583E0FAA3E0FB2274F71210
:10297300035B74F71208AAEAFEEBFF900370E064AE
:1029830003600DE064016008E064096003022A52F9
:102993008E828F83A3E06003022A2E7C007D007A5F
:1029A300027B001217B6EE2402FAEF123392123BA7
:1029B3003390036112466279531218227900122A66
:1029C30057900370E06409600990036E124E7E1203
:1029D3000E2674011246387404900370F0740112C9
:1029E3000A65AA82AB83794A12181C7401120A651C
:1029F300AC82AD837A667B031217D4900361124EC7
:102A03008C7A037B001217B6900364124E8C7A04FF
:102A13007B001217B690035BE0A2E35004D2F08070
:102A230002C2F012461E12205280218E828F83A38F
:102A3300AE82AF83FC7D007A037B101217B68E82C1
:102A43008F83E0F9122A57E4900370F0120CC474D8
:102A5300090237C690036E12296A120BA422C082A0
:102A6300C08390033FE07002A3E07041900370E0E5
:102A730012072D000301832A05922A06A12AB02AF0
:102A8300900347E07002A3E060649003478059908D
:102A93000343E07002A3E06055900343804A900330
:102AA30045E07002A3E06046900345803B90033FFE
:102AB300E07002A3E06005122DF1700C8A828B8313
:102AC300A3E0F9120B988026900340124746A3A374
:102AD300A3E064027005120DFC80139003DFE07025
:102AE30002A3E060099003DF1246091219B3024200
:102AF3009574F412035B74FB1208AA8A088B097A93
:102B03000F7B001211328A0A8B0BAE0AAF0BEE70E9
:102B130001EF7003022C0374028E828F83124B9297
:102B2300795012181C850882850983A3E06003028B
:102B33002BEB90036EE064FF7004A3E064FF603549
:102B430090036EE064FE7004A3E064FF60278518C1
:102B530082851983122C0F7003A3E069601774EA4E
:102B6300850882850983A3122E0C7A6E7B03795024
:102B730012182280738518828519831250551246C4
:102B8300627A617B03795312181C900361124684A5
:102B93001246627A647B03794B12181C7A637B03B7
:102BA30079E112181C900375E0C3940F502290032F
:102BB30063E0C0E07402120A65D0E0F07404120A04
:102BC300657401F07402120A65AA82AB8312183489
:102BD300750A00780A12081D780A12081D900A92D5
:102BE300E0F9122DFA12082C850882850983122C2C
:102BF30008A3F07403900370F0EEFAEFFB12464D56
:102C03007405022F12A3E08E828F8322125059E0A3
:102C1300682274F512035B74D81208AA8A088B0918
:102C23008A828B83A3A3A31250687415120A65AC1E
:102C330082AD838A828B83A3A3A3A3A3A3A3A3129B
:102C43002DE0FAA3E0FB120CCA7415120A65E070BA
:102C53006E850882850983A3A3A3A3A3A3A3A3E0EB
:102C6300C3940B405A8E828F83A3A3A3A3A3A3A3CE
:102C7300A3E064027049EE240B1228AA64FF703F9C
:102C8300900370E06402603CE06406603790033FA9
:102C9300E07002A3E06005122DF16051900370E033
:102CA30064086005E0640470167417120A65E0F99D
:102CB300741C120A65AC82AD83124E71120CD0746F
:102CC3002802310490033FE07002A3E0701F7508EF
:102CD30000780812081D780812081DEE2410122827
:102CE300A0125084123480122E0312082C8E828F6D
:102CF3008312492E12568E123B337402120A651246
:102D03004662EE240D1228AAC0E07404120A65D0AC
:102D1300E0F012289DA3E05480F9E47001E9600417
:102D2300D2F08002C2F0A2F0E492E0C0E074051297
:102D33000A65D0E0F07419120A65E0C0E074061267
:102D43000A65D0E0F0741B120A65E0C0E074071254
:102D53000A65D0E0F07416120A65E0C0E074091247
:102D63000A65D0E0F07417120A65E0C0E074081237
:102D73000A65D0E0F0EE24101228AAC0E0740A120B
:102D83000A65D0E0F0741A120A65E0C0E0740B1211
:102D93000A65D0E0F07427120A65E0C0E0740C12F3
:102DA3000A65D0E0F0741C120A65A982AA83890817
:102DB3008A09750A0078081208157C087D007410CA
:102DC300120A65AA82AB83123E7512082C851882FB
:102DD300851983AA82AB83120B9E022CC2E0F98A67
:102DE300828B83A3A3A3A3A3A3A3A3A3E022900300
:102DF3003F12309D64012290036E124E9090036443
:102E030012296A120D8A740222F07A617B037953C4
:102E1300122E17221218227A647B03794B1218227E
:102E23002274F212035B74F81208AAEAFEEBFF8C19
:102E33000A8D0B890C851882851983AC82AD837545
:102E430083807582187408120779F50DEEFCEFFD87
:102E5300851882851983AA82AB831257A0700375E4
:102E63000D019003BC803BEEFCEFFDE508240BFA5B
:102E7300E509340012579F601E850882850983A3E4
:102E8300A3E0650C7011850882850983E0650A70EB
:102E930004A3E0650B6038E5082414F582E5091204
:102EA30028A3124E4AE5087002E5096022E50D7079
:102EB300B6850882850983E0650A7004A3E0650B83
:102EC30070D5850882850983A3A3E0650C70C8AA21
:102ED30008AB097408023A67C082C0839003BC023E
:102EE300429274F712035B9003BCE0FAA3E0800CF8
:102EF300EA24141250621211B0EEFAEFFBEA7001E9
:102F0300EB70ED9003BCE4F0A3F00237C974031235
:102F1300082C7F04020630E08E828F83F0A3AE82FA
:102F2300AF832274F112035BEAFEEBFF890A8C087C
:102F33008D098E828F83E08C828D831235F5AE826C
:102F4300AF83E0124239124433C4124239122FFBC9
:102F5300E054038C828D83124431A2E2E492E08C2C
:102F6300828D83124430131313541F1242391244B7
:102F73002FA2E7E492E08C828D83A3A3A3A3122F55
:102F8300FB8E0C8F0D750E00780C1208157C087DD6
:102F930000E5082407122FEF12082C122FDD8E0CE8
:102FA3008F0D780C1208157C037D00E508240F12A1
:102FB3002FEF12082CE50AC3940F40148E828F83DF
:102FC300A3A3A3E0C0E0122FE61228A3D0E080065B
:102FD300122FE6124180F0023714EE2408FEEF347C
:102FE30000FF22E5082412F582E50922FAE50934F7
:102FF30000FB121114740322A3A31235F90EAF833D
:103003002274F012035B74F91208AAEAFEEBFF893B
:103013000890033FE07002A3E06010123096640250
:103023007009EEFAEFFB120DF6806390036EE06E0B
:103033007003A3E06F70577401650860097A827B9F
:10304300031257A070487A007B021236097001EB15
:10305300703C900371780C120A20851882851983BD
:10306300780C120A3E900377E0C0E07404120A65FC
:10307300D0E0F07405120A657401F07406120A6553
:103083007402124B92120B6EE96097120B74740761
:10309300024D8890033F12309D22124611A3A3A331
:1030A300A3A3A3E02274F512035B8A088B098A8227
:1030B3008B83A3AE82AF83E0F9120BBC8E828F8326
:1030C300E064EB600C850882850983A3E064E1700A
:1030D30009E4850882850983A3F0122052750A0149
:1030E300780A12081D850882850983A3E0F508780C
:1030F3000812081D7900122DFA12082C120CDC801C
:103103000312082C7F03020630EAF0A3EBF002421D
:103113009574F612035B9003BFE0701F7C00790186
:103123007A007B00120D0CEA7001EB600E8A828B31
:1031330083E07002A3E06003120C6A024644C0827B
:10314300C0831235E6401079FF120D06E9FA901E8E
:103153001CE493C39A5004790180027900024295DA
:1031630074F012035B8A088B09890B750C008A8241
:103173008B83A3A3A3A3A3A3A3A3E0F9120D128A92
:103183000E8B0FAE0EAF0F750A01EE7001EF6003E9
:10319300023244850882850983A3A3A3A3A3A312B0
:1031A3004E8C850882850983A3A3A3A3A3A3A3129B
:1031B3003F7D124E7E120CFA8A0C8B0DAE0CAF0DB6
:1031C300EE7001EF70030233838E828F83A3A3A378
:1031D300A3E4F0A3F0E508240B12338FE0C0E01260
:1031E300289DD0E0F0120DD2EE240CF582EF124AA6
:1031F300ABE508240EF582E509123B30EE240EF50B
:1032030082EF12465F750C01EE2406F8EF12338B42
:10321300547FF0A3E054FC12476654046003023267
:10322300CA900A6B123F66740778081209868E8269
:103233008F83A3A3A3A3A3A3E04508F0A3E04509B9
:10324300F08E828F83A3A3A3A3A3A3E05480F508E6
:10325300A3E05403F50974077808120A2FE50B60FD
:103263007974028E828F83A3A3A3A312442F240D08
:103273001249C1A2E2500B90035C124684A3A3122D
:103283004662E5087003023351EE2406F8EF34007A
:10329300F9E8FAE9FB8A828B83E0547FFCA3E054CC
:1032A300FCFD74FF2508F50874FF3400F509740765
:1032B3007808120986E5084CF8E5094DF98A828BEE
:1032C300831246620233518E828F83A3A3A3A3A3E7
:1032D300A3E04480F0A3E0023243E5087005750AD9
:1032E30000806B8E828F83A3A3A3A3A3A3E05420A8
:1032F300601712112C8A08747F5508F8745F288EA2
:10330300828F83A3A3A3A380278E828F83A3A3A3E8
:10331300A3A3A3E05410600E12112C8A08740F5556
:1033230008F8740A80D88E828F83A3A3A3A37401A1
:10333300F0A3E4F074048E828F83A3A3A3A3A3A3B7
:10334300A3A3A31236007001EB70031245E47401CA
:10335300650C702F8E828F83A3A3A3A3124C00F955
:10336300EEFAEFFB120D00E96019EE240C1228AA05
:103373007002A3E0600312339AEEFAEFFB1211B06E
:10338300750A00A90A024D8B12476122FAE5093436
:1033930000FB8A828B8322EE240C12469C1233A4F8
:1033A30022E0FAA3E0FB1211B02274F412035B745F
:1033B300F71208AA7E00120D12EA7001EB700302E5
:1033C30034798A828B83A3A3A3A3A3A3A3A3A3E098
:1033D300640660030234798A828B83A3A3A3A3A325
:1033E300A3A3E0FF8A828B83123C6CE0C0E07408E5
:1033F300120A65D0E01237B8124895124662120DD0
:103403002474085FF9E47001E960698518828519FD
:1034130083124E8C7A007B00120CF4EA7001EB707D
:103423005390036E1238B512184C7C007D007A005D
:103433007B00802A8E828F831237A564FF7004A3DA
:10344300E064FF602F90036E123480124E7E1215DB
:1034530022E9641A601E7C007D00EEFAEFFB120C79
:10346300F48A0A8B0BAE0AAF0BEE7001EF70C579CD
:10347300001218527E01EEF97409022F12123484DD
:1034830022E0FCA3E0FD8E828F832274F712035B9C
:10349300EA7001EB70059003C080068A828B83A3D8
:1034A300A31236C17001EB602C8A828B83A3A3A382
:1034B300A3A3A3A3E05408F9E47001E960DDEC7071
:1034C30001ED60158A828B831237A56C7003A3E02C
:1034D3006D70C880047A007B000237C974F212034E
:1034E3005BEAFEEBFF890A8C088D097A107B0012D8
:1034F30011AAEA7001EB603CE48A828B83A3A3A345
:10350300A3A3A3A3A3123545E50A1237AC1256842D
:103513008A828B83A3A3A3A3E4F0123545A3A3F06C
:10352300124EF8EA240CF582EB123A5212353AA302
:10353300A3F0A3F0023A6AA312353F22F08A828BEA
:103543008322A31237B0A3A3A3A32274F412035BB1
:10355300EAFEEBFF89088C0A8D0BEE7001EF605CCD
:103563007401650870147901120D06E9FA901E20A2
:10357300E493C39A500F791180667404650870361A
:103583001235E640F18E828F83A3A3A3A3A3A3A343
:10359300A3A3E5081235F5A3A3A3123C788E828F6B
:1035A30083A3A3E4F0A3F09003C0E07002A3E09030
:1035B30003C0601B800A7402650860C979C180205A
:1035C300124C627002A3E088828983A3A370F1EE98
:1035D300F0A3EF1236007001EB70031245E479009B
:1035E300022F157904120D06E9FA901E27E493C3FE
:1035F3009A221235F922F08E828F83A322F012369B
:1036030005227A207B009003BBE0F912126AEA22BA
:10361300C082C083E9FC79009003C0801D8A828B3D
:1036230083A3A3A3A3A3A3A3A3A3E06C600574FF35
:103633006C7001098A828B83A3A31236C17001EBDC
:1036430070DB02429574F712035BEA7001EB7005BD
:103653009003C080068A828B83A3A31236C17001B4
:10366300EB60248A828B83A3A3A3A3A3A3A3A3A313
:10367300E06970E1EC60148A828B83E0240D124EC2
:1036830065A2E240D080047A007B000237C9C08281
:10369300C0839003C080068A828B83A3A31236C1A2
:1036A3007001EB60128A828B83A3A3A3A3A3A3A3BA
:1036B300A3E06970E280047A007B0002429512293C
:1036C3006AEA2274F112035B8A0A8B0B8C0C8D0D50
:1036D300750800750900EA7001EB60319003C08042
:1036E300068E828F83A3A31237197001EF601EAC7D
:1036F3000CAD0DEEFAEFFB850A82850B831219B32D
:10370300E9640170DCEEF8EFF988088909AA08ABCF
:10371300097F07020630E0FEA3E0FFEE2274F712F2
:10372300035B9003C0123B337C007D00800DE8FCFB
:10373300E9FD88828983A3A3123B33E87001E96022
:1037430030EA687002EB6970E59003C0124E7EE8C0
:103753006A7002E96B88828983A3A37008123B33E2
:103763009003C08009123B338C828D83A3A312463E
:10377300620237C974F712035BEAFEEBFFEE7001D6
:10378300EF6016120D1E1237CE7002A3E060031213
:10379300339AEEFAEFFB1211B00237C9F582EF123A
:1037A300469F1237BF22A3A3A31237B02212353F7D
:1037B300A3A3A3A32212353F1237BF22124611E05F
:1037C30022741F12082C7F010206308E828F83E041
:1037D300241C1249C51233A58E828F831233A4EEA3
:1037E300240C12467B22C082C083EAFCEBFDEC7002
:1037F30001ED700479058049EC24FBF582ED34FF7B
:10380300F583E07002A3E07008123847E064FF60BC
:103813000512113880DE9003BBE0C0E0123847D0B8
:10382300E0F0901E1DE493F97AC27B03121162E962
:103833006401700B7A007B201245E87900800279DD
:1038430004024295EC24FFF582ED34FFF5832274E4
:10385300F412035BA2AFE492E0F508C2AF9003C297
:103863001237197001EF603DEE24FBF582EF34FF50
:10387300F583E07002A3E07A007B209003BB600530
:103883001245EB8005E0F91219A8750A00750B00C3
:10389300780A120819EEFCEFFD7AC27B0312115C61
:1038A300740212082CE508A2E092AFEEFAEFFB02D5
:1038B3002F15124E90851882851983AA82AB832215
:1038C30074F212035B74FC1208AAEAFEEBFF750A9A
:1038D300FE750BFF120CE2E960057911023A48EE1E
:1038E30024151228AA6034900A84E0C43354E0C03B
:1038F300E0E0333354FCFAD0E04AC0E0EE24151282
:1039030028A0D0E01235F5123A587001EB600C751F
:103913000AFF124771124673D2E0F08E828F831230
:1039230022526006EE2412123A4FEE24131228AAF2
:103933007010901E23E493C0E0EE24131228A0D04D
:10394300E0F08E828F83E0A2E750045403801CEEE4
:1039530024141228AA701590034DE0C0E0EE24143D
:103963001228A0D0E0F090034DE004F0EE241112F1
:1039730028AA6401701690055BE0600D900358E07F
:10398300700A8E828F83E07003123A4C8E828F838B
:10399300E064017016EE240B12379F6402700CEE84
:1039A300240F1228AA4440F0A3E0F0851882851959
:1039B30083AC82AD83EEFAEFFB120D488A088B09C4
:1039C30074FE650A700474FF64FF70098E828F832E
:1039D300A3A3124E3AEA7001EB60668E828F83E0F6
:1039E300C0E07401120A65D0E0F07402120A651295
:1039F3004EFC7401120A6585820C85830D780C12C6
:103A03000819EE240F1228A01206A8EE240E12287D
:103A1300AAF50C780C12081D9003611206A874070E
:103A2300120A65E0F9AC0AAD0B120D4274071208D5
:103A33002CE9FE74106E700BAA08AB091211B0804A
:103A4300027E10EEF97404801BEE2411F582EF124E
:103A5300469FE4F022A312296A79FF121882EA2210
:103A6300A90A740312082C7F06020630C082C083A1
:103A730074DE1208AA8A828B83A3A3A3A3123B3307
:103A8300740E120A65E8F0A3E9123B3E740C120AA5
:103A930065123B37240DF582EB1228ADC0E0741A92
:103AA300120A65D0E0F0124D90EB123B30742012F5
:103AB3000A65123B372415F582EB1228ADC0E0747A
:103AC30008120A65D0E0F0EA241CF582EB123B30C1
:103AD3007412120A65123B372411F582EB1228ADDA
:103AE300C0E07409120A65D0E0F074FF851882857E
:103AF3001983F07401120A6574FFF07402120A65E7
:103B030074FFF09080411206A47404120A65AC821B
:103B1300AD837407120A65AA82AB83120B927404F5
:103B230012082C790074220244ABF582EF12469FEF
:103B3300123B4722E8F0A3E9F0EA2212353F123B99
:103B43004522A3A3E0F8A3E0F92274EC12035B740B
:103B5300EE1208AA8A128B13ECFEEDFF8909742674
:103B6300120A65124E3A7428120A65E0F50E74299A
:103B7300120A65124E42742B120A65E0F510A3E097
:103B8300F5117508107A1E7B001211AA7402120A2D
:103B930065124AAF7402120A65E07002A3E0700373
:103BA300023C65851882851983AA82AB83795012FA
:103BB30044B1124E7E7402120A65123C6CA3124A7F
:103BC300AF7410120A65123C787402120A65E0247D
:103BD3000B12217D7402F0120A65123C6C7402F020
:103BE300120A65124609124EFC7402120A65E02499
:103BF3001B12217DE509F07402120A65E0240C1200
:103C0300217DE50EF07402120A65E0241C12217D69
:103C1300E512F0A3E513F07408120A65124D8074DF
:103C23000A120A65E50EF0851082851183C082C0F1
:103C330083740D120A65AC82AD83D083D082740382
:103C4300120779F97402120A65AA82AB83120CE88F
:103C5300E96401700575080080087402120A651290
:103C630033A0A9087412024D7012460DA3A3A3A397
:103C7300A3A3A3A322E50AF0A3E50BF02274EE129B
:103C8300035BEAFEEBFF8C088D0974088E828F8339
:103C9300A31246A4E0600874108E828F83A3F012EF
:103CA30028A760098E828F83A3E02408F0EE2415F1
:103CB3001228AA60088E828F83A3E004F08E828F7D
:103CC30083A3A3A3A3A3A3E060198E828F83A3A3DB
:103CD300A3A3A3A3A3E0C3332402FA8E828F83A3F7
:103CE300E02AF0EE24111228AA6005750B0E80035A
:103CF300750B008E828F83A3E0C0E0EE240D1228A3
:103D0300A0D0E0FAE02A250B8C828D83F0EE2411FB
:103D13001228AA60051241952AF085088285098335
:103D2300E0C394754009750800750900023E61E01F
:103D3300FA7B00124FB67001EB7003023E61EEFA9C
:103D4300EFFB120D4EEA850882850983124AB0EE15
:103D53002402F8123E7B123F75123EAFF0EE2404AC
:103D63000808123E7B1243CDA3123EAFA3A3F0EE8D
:103D73002413123E95F0EE2414123E95A3F0750A17
:103D830008EE24161228AA6010EE2418124E89E5B4
:103D930008240812507A750A101228A76016EE2418
:103DA3001A124E89850A0CE508250C12507A7408FC
:103DB300250AF50A8E828F83A3A3A3A3A3A3E0609E
:103DC30059EE2407F510EF3400F511851082F583C1
:103DD300E0C0E0123E681228A3D0E0123E9FE0C08C
:103DE300E0123E681228A3D0E0123E9FA3123E8841
:103DF300120815851082851183E0C333FCE433FD7B
:103E0300850A0CE508250C122FEF12082C85108269
:103E1300851183E0C333250AF50AEE24151228AA77
:103E2300600BC0E0123E681228A3D0E0F012289D78
:103E3300123E88120815EE240D1228AAFC7D008577
:103E43000B0A8E828F83A3E0F8E50828F8E509348E
:103E530000F9E50A28FAE439123E7412082CAA087C
:103E6300AB090245A8850A0CE508250CF582E5098E
:103E730022FB121114740322EF123E80223400F944
:103E83008882898322E0F50CA3E0F50D750E007896
:103E93000C2212469C123EBBA3A3A322F0050A8E5A
:103EA300828F83A3A3A3A3A3A3A3A322A3A3F08883
:103EB300828983A3123EBB221243D1A3A32274F6A9
:103EC30012035B8A828B83E0FC90035E123F66746D
:103ED300027808120986E5084CFCAD09EA2412129F
:103EE3003F6074067808120986E5084CFCE5094D25
:103EF300FDEA2415F582EB1228AD600478018002F7
:103F03007800E4C84DFDEA2411F582EB1228ADF5E3
:103F130008880974097808120986E5094DFDEA2421
:103F230016123F60740B7808120986E5094DFDEA05
:103F33002417123F60740C7808120986E5094DFDB9
:103F43008A828B83A3A3A3A3A3A3123F66740A78D5
:103F530008120986ECFAE5094DFB024644F582EBAB
:103F630012469FE0F50875090022F085188285192D
:103F73008322E085088285098322A3E0F9850882EC
:103F83008509832274EE12035B8A0A8B0BECFEED28
:103F9300FF750F01E9C39408500579000241708E43
:103FA300828F83E912353B1243DAE96003750F0010
:103FB3001243E18E828F8312443BEE124D91EF1236
:103FC3004424C0E0EE24111228A0D0E012441CC007
:103FD300E0EE24121228A0D0E0F074088E828F83C2
:103FE30012508FE060141243C2EE125070EF12466B
:103FF3005F8E828F83A3E02408F08E828F83A3A336
:10400300A3A3A3A3A3A3E0601B8E828F83A38582B4
:1040130008858309124401EE2415F582EF12440D3D
:10402300E02408F08E828F83A3A3A3A3A3E0601AE6
:104033008E828F83A38582088583091243F08E8243
:104043008F83A3A3A3A3A31241A7EE2419123A4F6C
:10405300EE241B123A4FA3124694E0700302410A66
:10406300EE2419F8EF3400F98E828F83A38582083A
:10407300858309E0FAE50A2AF582E50B1228AD8863
:104083008289831241A7FAE50A2AF582E50B1228F1
:10409300ADC0E0EE241A1228A0D0E01241AC1247C2
:1040A30066605D901E26E493C0E0EE241912248F0F
:1040B300D0E0C39A500575110C8003E0F5118E8290
:1040C3008F83A3E0F8E50A28F50CE50B1241731280
:1040D3000815E511C333FCE433FD7A297B09123E4D
:1040E3007512082CEE241B1228A07429F0A374095E
:1040F300F0E511C333FA850882850983E02A800637
:10410300EE241812417DF08E828F83E0C0E0A3E09D
:10411300FAD0E0C39A5003023F9D8A08E50A2508B6
:10412300F8E50B3400F9EE241D124185124434C323
:104133009AC0E0EE24171228A0D0E0124668602B44
:10414300EE2417F8EF3400F9880889098882F5838B
:10415300E024F2124757240EFAA3E03400FB8882CE
:104163008983124AAF124195C39AF0A90F0245A859
:104173003400F50D750E00780C22F582EF12469F80
:10418300E422F582EF12418C223400F583E8F0A398
:10419300E922900359E0F9121912E9FA8508828598
:1041A3000983E0221241ACF022124414E004227489
:1041B300F412035B8A088B09EA124240F0EA1313F4
:1041C300543F124239A3A3A3F0EAC413131242408B
:1041D300A3A3F0EB12423212424A7409780A120A7C
:1041E3002F124230124249740A780A120A2FE50A42
:1041F3005401C0E0EC2418F582ED1228A3D0E0129C
:10420300424F740B780A120A2F124230A31242490A
:10421300740C780A120A2F124230A3A3A3A3A3A3F8
:10422300A3A3F0740D7808120A2F02248AE50A5416
:10423300018C828D8322540F8C828D832254038CB4
:10424300828D83A3A322A3A3A3A3A3A3F08A0A8B90
:104253000B22C082C08379008A828B83A3A3A3A38A
:10426300A3A3E0900358600FE070228A828B83A39C
:10427300A3E07019098016E060138A828B83124EC3
:1042830075900361E06A7003A3E06B70E78003122B
:104293004E7ED083D0820207DE74F012035B8A0A5B
:1042A3008B0B890C8C088D098A828B831243DA125B
:1042B30043E185088285098312443BE508124D9149
:1042C300E509124424C0E0E5082411F582E509124A
:1042D30028A3D0E012441CC0E0122FE61228A3D07A
:1042E300E0F07408850882850983A3124790601063
:1042F3001243C212506EE50912440DA3E02408F0E4
:10430300850882850983A3A3A3A3A3A3A3A3E06032
:104313001B850882850983A31243FDE5082415F54F
:1043230082E5091241881244342408F08508828505
:104333000983A3A3A3A3A3E0601985088285098346
:10434300A3AE82AF831243F08508828509831244AA
:104353002F04F0AA08AB09120D60E9F50D705B8517
:104363000882850983A3A3A3A3A3A31243CD701635
:10437300E0FA8A0EE50A250EF8E50B3400124656DC
:10438300E50CC39A80241243FD740E28F8E4391215
:104393004656900359E0F9121912E9FB8E828F8376
:1043A300E0FAE50CC39A24F2C39BC0E0E5082417A6
:1043B300F582E5091228A3D0E0F0A90D024D8BE5A3
:1043C3000A2408F8E50B3400F9221243D122E085D0
:1043D3000882850983A32212296A120D5A22850AAB
:1043E30082850B83A3A3124451E0F9EA22E0F8E5A6
:1043F3000A28F582E50B12467E22AE82AF83E0F8EF
:10440300E50A28F8E50B3400F92212418C12441412
:1044130022F085088285098322124464A3A3A3E0C2
:104423002212469FE812445DA3A3E022A3A3A3A301
:10443300A3F08E828F83E022A3A3A3A3A3A3A3A3AA
:10444300A312445D124451A3A3E0F9EAF822E0FA6F
:10445300850A82850B83A3A3A322F0A3E9124464F4
:1044630022F0850A82850B83A3A3A3A322C082C063
:10447300837AD07B0379E212181C7AD07B03024241
:1044830095C082C083900361024292C082C083744C
:10449300FE1208AA851882851983AA82AB83794BF9
:1044A3001244B1124E7E740212082C024295121865
:1044B3001C85188285198322C082C083794A121809
:1044C3001C02429574F612035B9003D8E0FE04F0DD
:1044D300EEF9120D12EA7001EB70EEEE60EBF902E9
:1044E300464474EE12035BEAFEEBFF8C088D0989E8
:1044F3000A7412120A65E0F50C7413120A65E0F5EA
:104503000D750B00750E00120E2CEA7001EB701482
:10451300E50D7048A90AAC08AD09EEFAEFFB120EDF
:10452300440245A8E50A6023EA2402F582EB122837
:10453300ADF8850A08E50828F8E4340013E813F019
:10454300700974018A828B83A3A3F0E50D6056E59D
:104553000C7009E48A828B83F0750E017401650D7A
:10456300701FE50C60169003E1E004F0C0E0900AD0
:104573006CE0FAD0E0C39A4008750B01E49003E1C4
:10458300F0E50E7004E50B601CE50B601890036406
:10459300E06E7003A3E06F700CEEFAEFFB7901128B
:1045A3000BB61245AD7F0A0206307A017B009003F9
:1045B300BBE0F912126422C082C08374016A7001E5
:1045C300EB70077A011245E68014900A63124AAF32
:1045D300EA7001EB600512221280031245AD02421C
:1045E300957A207B009003BBE0F912116822C08208
:1045F300C083900A6502310CC082C083900A6702AF
:10460300310C8E828F8312460D2212461122E0F85E
:1046130012461722A3E0F583888222A2F0E492E0F7
:1046230012462C795212182222851882851983F09A
:10463300AA82AB832212462C794212182222120834
:104643002C7F02020630AA08AB099003BBE0F912E3
:10465300113E22F9E508241DF582E50912469FE87B
:10466300F0A3E9F0221235F9A3A3A3A3A3E022A3A5
:10467300F0EE241512467B22F582EF3400F583E039
:1046830022E0F812468A22A3E0F98E828F83A3A345
:1046930022F0EE241812469C22F582EF3400F583B3
:1046A30022F0EE241612469C22A374FEF0A374FF9C
:1046B300F02274F412035BEAFEEBFF7A007B041230
:1046C30045B112474D1246627409900370F0120D02
:1046D3006C8A088B09AC08AD09EE24131228A012CA
:1046E3004E7E1257A06401704C7A0F12473B700143
:1046F300EB604274028A828B83124757FAA3E0FB72
:104703008A828B83A3E0FC8A828B83A3A3E0FBECE6
:10471300850882850983A3A3F0A3EB124766F8A358
:10472300124746123F75124672FAA3E0FB794A120A
:104733001822124649022F157B001211328A088B68
:1047430009EA22124618A3A3A322900341123B476E
:10475300900A6722F0EE241DF8EF12476122123E01
:1047630080E022F088828983E02212478822EE24A7
:104773000F12467B4404F0A3E022124414A3A3A324
:10478300A322F582EF3400F5837401F02212477DF2
:10479300A3A3A3E022124B9A120DC022EE241712F8
:1047A3004785120D6CEE241A12469CEAF0A3EBF037
:1047B3002274F412035B74F31208AA8908EAFEEB6D
:1047C300FF7C0D7D007900851882851983AA82AB51
:1047D30083121120EE241D1228A0124609A3E0FA29
:1047E300741F5A600A79011217BC790002488FEAD4
:1047F300A2E55008740C120A657401F0EAA2E750AE
:1048030008740B120A657401F0EAA2E6740A5008F0
:10481300120A657401F08008120A65E064017005EC
:10482300EE24138003EE2415124E897402120A65D6
:10483300AA82AB831217D412289D1248941246629F
:10484300740A120A65E064017033122247703B1246
:104853000D788A0A8B0BA80AA90BEE240B1228AA3F
:10486300687003A3E0697022120D6CEAFCEBFD741F
:1048730002120A65AA82AB831257A0600D851882C3
:10488300851983AA82AB83120BB0A908740D022F7A
:1048930012E012489922F8A3E0F98518828519835A
:1048A3002274F612035B74F31208AA8A088B09ECCC
:1048B300FEEDFF7C0D7D007900851882851983AAA2
:1048C30082AB8312527DA3A3A3A3A3A3A3A3A31287
:1048D300492E124937FAA2E55008740B120A65747F
:1048E30001F0EAA2E75008740A120A657401F0EABB
:1048F300A2E6EE5004241380022415124E8974029A
:10490300120A65124920A3A3E0C0E0740C120A65E1
:10491300D0E0124B92120BAA740D024641AA82AB4D
:10492300831217D485088285098322E0124899E807
:10493300F0A3E922F0EE241D12467BF8124943222C
:10494300124617A3E02274F712035B74E11208AA5C
:10495300EAFEEBFF8E828F83123099A2E050568ECF
:10496300828F8312239E8A828B83A3A3A3A3A3A3F1
:10497300E054FEF0A3E01249CA8A828B83E0241B31
:104983001249C1F98A828B83E0241CFAA3E0123313
:1049930092124E7E120D66E9701B741D120A651287
:1049A30049BB7011851882851983AC82AD83EEFAF9
:1049B300EFFB120DAE0237C41237BF640422124953
:1049C300C522122181E022123F6DAC82AD8322E920
:1049D300FA790074046A600A740A6A600574036AE7
:1049E3007001090207DE74F612035B74208A828B5E
:1049F30083F07401A3A3F0120B628A088B09AE083B
:104A0300AF09EE7001EF600774018E828F83F0901F
:104A130003AEE0700312479FEEFAEFFB024644C079
:104A230082C08374019003C4F0E9A2E350037403CA
:104A3300F0E9A2E15004E0D2E2F002429574F612EA
:104A4300035B79007C008A088B0978081205ABF8B0
:104A5300FF07734A714A714A714A714A6A4A6E4A38
:104A6300734A674A0C80097C0480050C80F67C0835
:104A73009003C4E05C6003098003EC600109024613
:104A83004474F612035B8A828B83E07014A3E07094
:104A930002A3E0600C8A828B83124E7D12190C8074
:104AA300047A007B000246443400F583EAF0A3EB6A
:104AB300F02274F512035B74F31208AA8A088B09B7
:104AC300ECFEEDFF750A12EA7001EB700579000246
:104AD3004B8C900361E065087004A3E065097017CF
:104AE300120D6CEAFCEBFDEEFAEF12579F700575A1
:104AF3000A018003750A00E4851882851983F0741E
:104B030001120A65E508F0A3E509124B92120AA205
:104B1300E9602A7403120A65AA82AB83120A8AE93E
:104B230064017019750A017403120A65AC82AD83BE
:104B3300EEFAEF12579F6021750A00801C7412650C
:104B43000A70169003ADE06402700EEEFCEFFDAA4E
:104B530008AB09120ABAE970DFEEFCEFFDAA08AB55
:104B630009120E32E9FA740A6A7005750A01801790
:104B730074A06A7012EEFCEFFDAA08AB09120E3E98
:104B8300AA08AB09120E50A90A740D023104E412EB
:104B93004B9622124B9A22F0851882851983AA829A
:104BA300AB832274F712035BEAFEEBFF7508008EFA
:104BB300828F83A3A3A3A3A3A3A3A3E06014EE24E0
:104BC300151228A012295A120DD8E9640170037531
:104BD30008018E828F83A3A3A3A3A3A3A3E06018DA
:104BE300EE24131228A0124C00FAA3E0FB120DD8F6
:104BF300E964017003750801A9080237C9123484F6
:104C0300A3A3A3A3A3A3A3A3A3E02274F212035B0E
:104C130074FD1208AA8A088B09ECFEEDFF890B7557
:104C23000A017401120A6574041250757001EB6075
:104C33002B124D90EB123B30740388828983123C14
:104C43007AEE88828983A3A3F0EF88828983A3A362
:104C530012353A125684120B5CE9F50A023A6312D2
:104C63003B4788828983A3A3E02274EC12035B741D
:104C7300F51208AA8A0C8B0D890A8C0E8D0F741FEE
:104C8300120A65E0F50B7420120A65E0F510A3E043
:104C9300F5117E01EE120A65740AF0E97007E50B5F
:104CA300C333240AF0851882851983AA82AB831241
:104CB3000DC08A088B09EA7001EB7003024D6CEAA0
:104CC300240B12506274098E828F83124E52450B4D
:104CD300122F1FAC0EAD0FEEFAEFFB1217D4122FEB
:104CE300DDE50A702D7C008023ECC333F8E433F94F
:104CF300E51028F8E51139F988828983122F1A887B
:104D0300828983122C08F0A30EAF830CECC3950B9E
:104D130040D7E5082417F582E50912476D120D6C9B
:104D2300E508241AF582E509124AAB7403120A65F1
:104D3300AC82AD83AA0CAB0D120A90E96019E508A9
:104D43002416F582E509124D78120A65A882A98313
:104D5300E508241812465B850882850983124D7E77
:104D6300AA08AB09120B5CE9FEEEF9740B12082CCE
:104D73007F0C020630124788740322A3A3E50CF0CC
:104D8300A3E50DF02212082C7F08020630EA240B5B
:104D9300F5822274EE12035B8A0C8B0D890E8C084C
:104DA3008D097412120A65E0F50F7413120A651265
:104DB3004E3A9004CCE07002A3E06078E50FC33371
:104DC300F8E433F9740E28FAE439FB1211328A102D
:104DD3008B11AE10AF11EE7001EF605874D48E8258
:104DE3008F83F0124D7E8E828F83A3A3A3A3E50E40
:104DF300F0AC08AD09EE2405FAEF12507DEE240D58
:104E03001228A0E50FF0850A08850B09750A0078BA
:104E130008120815E50FC333FCE433FDEE240EFA44
:104E2300EF122FF212082CEEFAEFFB9004CC12468D
:104E3300091219B30245A8E0F50AA3E0F50B22E035
:104E4300F50CA3E0F50D22E0F508A3E0F50922F047
:104E5300A3E50AC43354E022E0FA8E828F83A3A32E
:104E6300E022FEA3E03400FF8E828F83E0228E8255
:104E73008F83A3A3A3A3A3A3A3A3A312296A221289
:104E8300296A120D542212469C124E9022E0FCA372
:104E9300E0FD2274F612035BEAFEEBFF9003C5808C
:104EA3001388828983E06E7003A3E06F603F88827A
:104EB3008983A3A3124EF37001E970E57A047B00A2
:104EC3001211AA8A088B09A808A909E87001E960E8
:104ED3001C88828983124EFC9003C5124E7E888201
:104EE3008983A3A3124AAF9003C5124662024644C4
:104EF300123B47E8228A828B83EEF0A3EFF0227401
:104F0300F412035B7E009003C580070E88828983B9
:104F1300A3A3124EF37001E970F1EEC333FAE43345
:104F2300FB124FB67001EB7003024FB07F0090038A
:104F3300C5802488828983124E8CEFC333FAE4330D
:104F4300FBE5082AF582E5093BF583ECF0A3EDF0D8
:104F53000F88828983A3A3124EF37001E970D49062
:104F630003B61222827003A3E0697808701912084D
:104F730019EEF50A780A12081D7C827D03790090E8
:104F830003B6124FBF801A120819EEF50A780A12F7
:104F9300081D7C827D0379009003B6124E7E120DAC
:104FA300EA740312082CAA08AB091211B0120B748D
:104FB300022F151211AA8A088B09EA2212296A12F2
:104FC3000DF022C082C08380128A828B83A3A31236
:104FD3003B339003C51246621211B09003C51236DB
:104FE300C17001EB70E302429574F612035B900308
:104FF3006E1250689003D91250551246627AD97BCB
:105003000379501218229003D91224A2FAEFFB124B
:105013000E4A9003D91250689004CEE07002A3E0C8
:10502300602D7A067B00121132EA7001EB60207466
:10503300D58A828B83F0E4A3A3F074018A828B83E5
:105043001237A9124EFC9004CE1246091219B3026C
:10505300464412505922E0F8A3E0F990036E22F57A
:1050630082EB12469FE0FEA3E0FF22E5082413F53E
:105073008222124798EA22FAE5093400FB1217D478
:105083002212468BA3A3A3A3A3A3A322A3125094E8
:1050930022F08E828F83A3A3A3A3A3A3A322F090C2
:1050A3001E1E1250A922E493F874012808E4340068
:1050B300F97A027B002274F712035B7E00800412EC
:1050C30050EA0E901E1BE493FAEEC39A40F17E0061
:1050D300EE1250FB1246ACE488828983F00EEEC3D5
:1050E300940340EC0237C9EE75F017A424B5FAE532
:1050F300F03407FB120E202275F003A424C7F8E551
:10510300F03403F9888289832274F712035B7800F1
:105113007900800312523A901E1BE493FEC3E89E6B
:10512300E994005069E8FEE9FFEE75F017A4FE85E7
:10513300F00875F017EFA42508FFEE125563EF1280
:1051430057496A7003A3E06B70CAE8FEE9FFEE7586
:10515300F017A4FE75F017EFA42508FFEE24BFF5A2
:1051630082EF3407F583E06C7003A3E06D600A748B
:10517300FF6C700374FF6D709BE875F017A4F8AAB9
:10518300F075F017E9A42AF9E812524780047A006F
:105193007B000237C974F612035B7CFF7DFF7AFE46
:1051A3007BFF120E14EA7001EB60030252377E009C
:1051B3007F008072EEF8EFF9E875F017A4F8ACF011
:1051C30075F017E9A42CF9E824C4F582E93407F54E
:1051D30083E0601EEEF8EFF9E875F017A4F875F0B8
:1051E30017E9A42CF9E824C3F582E93407F583E031
:1051F300702CEEF8EFF9E875F017A4F8AAF075F043
:1052030017E9A42AF9E824B5F508E93407F509856F
:105213000882F583124E7E120C4CAA08AB09EE24C9
:10522300010EEF3400FF901E1BE493F8C3EE98EFDA
:1052330094004080024644E8240108E93400F9223E
:1052430075F017A424B5FAE93407FB2274F71203A7
:105253005BEAFEEBFFEE7001EF6016125277124627
:10526300AD8E828F83A3A3A3A3A3A3A3A3A3124659
:10527300AC0237C97C177D0079001211208E828F12
:10528300832274F712035BEAFEEBFF7508008018B4
:10529300A808E875F017A4A9F01256FB7003A3E061
:1052A3006F60031257010508901E1BE493FAE5088B
:1052B300C39A40DC0237C974F612035B120E148AD8
:1052C300088B09A808A909E87001E9600AE8240D18
:1052D300FAE93400FB80047A007B0002464474F44C
:1052E30012035B8A0A8B0BECFEEDFF750800750950
:1052F300008039E50975F017A424B7FAE5F03407FF
:10530300FB120A8AE96023A809125740650A700450
:10531300A3E0650B700375080AEEFCEFFDE875F07A
:1053230017A412579960034308A00509901E1BE4B4
:1053330093FAE509C39A5004E50860B702248AA3E7
:10534300A3A3A3A3A3A3125352A3A3A3A3A322A3DD
:10535300A3F088828983A3A3A32274F212035B8A36
:10536300088B09ECFEEDFF740E120A65124E3A75B6
:105373000C007C007D01801012112CE50CF5F0EA85
:1053830084ACF0750C007D00780079008003125224
:105393003A12556E400302542EE8FAE9FBEA75F01F
:1053A30017A4FA85F00D75F017EBA4250D125553CC
:1053B3007004A3E064FF60D612553865087004A337
:1053C300E0650960C91255386E7003A3E06F60BED3
:1053D300125538650A7004A3E0650B60B1E8FAE979
:1053E300FBEA75F017A4FA75F017EBA4250DFBEA99
:1053F30024C3F582EB3407F583E014C39406508E7F
:1054030074016D050C6087E50CC39C4081E875F061
:1054130017A4F8AAF075F017E9A42AF9E81255635E
:10542300E93407F583124E7E02550A78007900802D
:105433000312523A12557B40030254F1E8FAE9FB96
:10544300EA75F012A4FA85F00D12551764FE700484
:10545300A3E064FF60DB12550D65087004A3E065EB
:105463000960CE12550D6E7003A3E06F60C3125531
:105473000D650A7004A3E0650B60B6E8FAE9FBEA80
:1054830075F012A4FA75F012EBA4250DFBEA24447F
:10549300F582EB3406F583E014C394065093E8FADF
:1054A300E9FBEA75F012A4FA75F012EBA4250D12CC
:1054B300552B64017003025434E0640270030254F8
:1054C3003474016D050C7003025434E50CC39C5015
:1054D30003025434E875F012A4F8AAF075F012E947
:1054E300A42AF9E8243BF582E93406025426E50CA4
:1054F3006011EC700E7401650C600302537B7C0138
:105503000253867AFE7BFF023A6AE8FAE9FBEA7500
:10551300F012A4FA75F012EBA4250DFBEA243BF577
:1055230082EB3406F583E022FBEA243FF582EB3479
:1055330006F583E022E8FAE9FBEA75F017A4FA75A9
:10554300F017EBA4250DFBEA125563EB1257492222
:10555300FBEA125563EB1255682275F017A4A9F004
:1055630024B5F5822212574964FE22901E1BE49350
:10557300FAC3E89AE9940022901E14E493FA7401A2
:1055830093FBC3E89AE99B2274F412035B8A0A8BA8
:105593000BECFEEDFF750800750900800CE508248F
:1055A30001F508E5093400F509901E1BE493F8C3DF
:1055B300E50898E5099400503CEEFCEFFDE508751D
:1055C300F017A4F8AAF075F017E509A42AF9E81270
:1055D300579960C9E50875F017A4F508AAF075F0A6
:1055E30017E509A42AF509E508125563E509340707
:1055F300F583123C78022F1574F012035B8A0C8B2F
:105603000D8C088D09890A120E1A8A0E8B0FAE0EA5
:10561300AF0FEE7001EF6054125277E50CF0A3E583
:105623000D12568E125685E50A600AEE240F1228D3
:10563300A0E50A800312567BF09003DDE07002A31D
:10564300E0601A9003B5E064017008EE240E124185
:105653007D8010EE240E1228A074078006EE240E1F
:1056630012567E1250A112020A125672024D8BEE8E
:10567300240D12469CE8F022EE240F12469C74017E
:1056830022A3A3E508F0A3E509F022125094A3A3F3
:105693002274F512035B8A088B09ECFEEDFF750A91
:1056A300008014E875F017A41256FB7003A3E06F93
:1056B3006003125701050A901E1BE493FAE50AC31F
:1056C3009A5024A80AE875F017A4A9F01256EDE041
:1056D30065087004A3E0650970C9E875F017A412A2
:1056E30056ED124EFC80CE0231071256F12224BF32
:1056F300F582E93407F583221256F1E06E22E812AF
:105703005243120E202274F712035BEAFEEBFF757D
:105713000800801AA8081257406E7003A3E06F7048
:105723000BE812574F7005E5081250EB0508901E61
:105733001BE493FAE508C39A40DA0237C9E8125525
:105743005DE9125749223407F583E02275F017A467
:1057530024B7FAE93407FB120A8AE922C082C0831C
:1057630074F81208AA851882851983AC82AD8375F3
:1057730083807582287408120779851882851983B6
:10578300AC82AD831257A064017004790080027962
:105793000174080244AB24B7FAE93407FB1217CEAD
:1057A300E922E0F508750900750A00750B002274FB
:1057B3000912082C7F04020630EE2412FAEF34009B
:1057C300FB120FCAE92212082C7F03020630E0FA0B
:1057D300A3E0F9EA22E024F5C39412221215648AA5
:1057E3000C8B0D8C0E8D0F221210AE9006061272CA
:1057F300D77A147B0022F0A3E0F002602A79031A1F
:105803001AEFFB120FD0740222E024FFF8A3E03456
:10581300FFF92212586B12082C7F08020630125827
:1058230050A2E52212626AE4F022A3E08E828F8303
:1058330012583722F0EE24FF1EEF34FFFF227F05BC
:1058430002063012584A22EE2410F582EF3400F596
:1058530083E022E508126E54E509125850227AE2D9
:105863007B0312115C7402221210A2740422EE2430
:1058730023F582EF12585022EE240DF582EF1258D1
:105883005064012212588CEE22E0FEA3E0FF22FABC
:10589300EF3400FB79E112164222F0EEFAEFFB221D
:1058A300EE240EF582EF12626A227401026110C0C7
:1058B30082C08374FE1208AA80077AE27B0312581F
:1058C300F89003E2E07002A3E070EF9003E4E0706D
:1058D30002A3E060097AE47B031258F880ED900399
:1058E300E2E4F0A3F09003E8F09003E9F09003EA18
:1058F300F07402801E121156851882851983EAF00E
:10590300A3EB12590C120FB822125BA2AA82AB832B
:1059130022741112082C02602A74F412035BE9FE4C
:1059230024B0F582E4341DF583E493F508FA7B0093
:10593300121132EA7001EB600F1266AFE48A828BB8
:1059430083A3A3A3A3F080287A027B00121132EA77
:105953007001EB6017EE24D1F582E4341DF583E486
:10596300938A828B83F0741AA3125D007A007B0002
:105973000257B7E9FDEAFC74062DFAECA2E0501ECB
:10598300EA75F00A84ABF0EB6014740A2AC39BFA3D
:10599300EBC394054004740A2AFA740B2AFAEDC384
:1059A30094134004781480027806E82AF8740928CE
:1059B300F8E43400F97A0A7B0012020AE8F90207D4
:1059C300DEC082C083900408E05402600A12185EAD
:1059D300E9600479018002790002602AC082C083F1
:1059E300900408E05402601D9003E8E070139003F4
:1059F300EBE07002A3E0600D9003EBE0125A0D5050
:105A03000479018002790002602A2410125F1AA22D
:105A1300E722C082C0839003EAE0C0E090803EE0CA
:105A2300FCD0E0C39C500512113280047A007B0045
:105A330002602AC082C083120FB8790002602AC0B4
:105A430082C08374FE1208AA851882851983125BAB
:105A5300AA12066E00035C5B635ABD5A5C5BE15A93
:105A63009005E6E0640F6018120F8EE97012851836
:105A73008285198312633C900A39125F0D1219B3A0
:105A830090060EE0C0E08518828519831265B4D0B4
:105A9300E0125B99125F0E7414125B99FCA3E0FD94
:105AA3007AE47B03121150E5A8FAC2AF9003EA121D
:105AB3005B907920120F7C0258F4120F88E9851845
:105AC300828519836011125F0D740D125B99FAA31D
:105AD300E0FB12185880E0125F0D741580BB125F53
:105AE300206076851882851983125B7BC0E0851858
:105AF30082851983125B76A3A3D0E0125B992402FB
:105B0300F8125DE42401FAA3E03400FB8882898360
:105B1300125BAA14C394095015125F20FA125B6C2E
:105B230024FAF582E4341DF583E4936A600E125B74
:105B33006C64087024125F206408701D125F2014C7
