:020000040000FA
:06000000020A500201C6D5
:03002B000208A028
:030033000205EED5
:030043000207733E
:03005300020103A4
:03006B000205C7C4
:1000830002015A010101010503010F10FEFF46138E
:10009300461346134613F611F0114613A12100002F
:1000A30000003F21000000000C0000000C000100D4
:1000B30000C81E00000000000000000000441500FE
:1000C3000090140000FF0A010100F904000000542D
:1000D30005E80364006400B801020200080000059B
:1000E300020701051E02051E020A0A03B80B02805D
:1000F3003E010203320001FFFF0A1401E00202067F
:10010300C0E074F21203DAA2AFE492E0FED2AFE5EC
:10011300A7FAE5A1FBEA5B54106008121AF075A177
:10012300EF802AEAA2E0C0D0EBA2E092F01209D954
:10013300158182F05017906198E0FA900830E0C37F
:100143009AA2D265D0335002EAF075A1FEEEA2E086
:1001530092AF7F010204E5C0E074F21203DAA2AFAA
:10016300E492E0FED2AF9061A4E0FA759B00E591C2
:100173005A540860087591F7121B32802AE5915A88
:10018300541060087591EF121B38801BEAA2E0C07F
:10019300D0E591A2E092F01209D9158182F05007BF
:1001A300E0C2E0F0121C709061A3E0FAE5E95A5452
:1001B30004600E121C4675E9FB906193E0A2E640D1
:1001C300F2808AC0E074F21203DAA2AFE492E0FE96
:1001D300D2AF9061A5E0FAE5BF5A5404600675BF3B
:1001E300FB121C88020150C3E498F8E499F9120247
:1001F3002B8026C3E49AFAE49BFBE920E7E9120289
:100203002BE498F8E499F922C3E498F8E499F912F5
:10021300022BE498F8E499F9C3E49AFAE49BFB22ED
:10022300EB20E7CFE920E7E0B90010BB0008E88A3C
:10023300F084F8AAF022E4FBC8FA22EB70227B10C8
:10024300C833C8C933C9335007C39AC3DBF2800626
:100253009A50012ADBEAC833F4C8C933F4C9FA2235
:1002630075F008E4C833C8C933C933C99AC99B5068
:1002730004C92AC93BD5F0ECFBC833F4C8E4C9FA76
:1002830022080808EAC0E0EBC0E086F0E7A4FA1809
:100293000986F0E7A42AFA180986F0E7A42AFA18CF
:1002A3000986F0E7A42AFA1986F0E7A4FBE5F02A09
:1002B300FA190886F0E7A42BFBE5F03AFA19088649
:1002C300F0E7A42BFBE5F03AFA18180986F0E7A447
:1002D300C5F02BFBE43AFA1908E7C5F0C6A426F6E5
:1002E300E5F03BFBE43AFA1886F0E7A4F6E5F008FC
:1002F30026F6E43B08F6E43A08F6D0E0FBD0E0FA51
:1003030022E4CFC0E0E4CEC0E0E4CDC0E0E4CCC062
:10031300E075F020C3E633F608E633F608E633F675
:1003230008E633F6181818EC33FCED33FDEE33FE14
:10033300EF33FFC3EC9709ED9709EE9709EF971990
:100343001919400FFFEC97FC09ED97FD09EE97FE95
:10035300191906D5F0BEECF709EDF709EEF709EF29
:10036300F7191919D0E0FCD0E0FDD0E0FED0E0FF92
:10037300222518C582C0E0E51934FFC583C0E0E536
:1003830018C3958224F8F8E4C5A8858319858218D3
:10039300C5A8E8CEF0A3E520F0A37808E608F0A30B
:1003A300DEFAEFF0A3E58124FAF8E608F0A3E60805
:1003B300F0A3E608F0A30808E608F0A3E608F0A314
:1003C30015811581D0E0FED0E0F8158115811581E6
:1003D300E8C0E0EEC0E022C0D02518C582C0E0E549
:1003E3001934FFC583C0E0E518C3958224F310AF29
:1003F300088583198582188008858319858218D218
:10040300AFC8F0A3E9F0A3EAF0A3EBF0A37908E700
:1004130009F0A3D8FAECF0A3EDF0A3EEF0A3EFF00C
:10042300A3D0E0F0A3D0E0F0A3D0E0F0A3E520F068
:10043300A3E5F0F0A322120A9AB9000302047BE4B5
:1004430090030178F9790B8002F0A3D8FCD9FA90D4
:100453000DF9AA82AB83900086787E79018015E43A
:1004630093A3AC82AD838A828B83F0A3AA82AB83EE
:100473008C828D83D8E9D9E775824B7583E6740343
:1004830012081875824675831F7400120818E473E6
:100493000375F0108E1A8F1B85821F85831E8518A6
:1004A30082851983E0CEA3E0CF851F82851E83EB6F
:1004B300C9EAC8EDCBECCAC3E833C8E933C9EA33A8
:1004C300CAEB33CBC3EA9EF51DEB9FF51CB3500477
:1004D300AB1CAA1DEC33CCED33CDD5F0DAAE1AAF9D
:1004E3001B22851983851882E0C0E0A3E0F9A3E00D
:1004F300FAA3E0FBA37808E0F608A3DFFAE0FCA385
:10050300E0FDA3E0FEA3E0FFA3E0C0E0A3E0C0E0C2
:10051300A3E0F5D0A3E0F520A3E0A3F5F0E4C5A89C
:10052300858319858218C5A8D082D083D0E0F8D0FE
:10053300E032D083D082ECC0E0EDC0E0E493A3FCD2
:10054300E493A3FDED4C600D12060DEC24FFFCEDCE
:1005530034FFFD80EFE493A3FCE493A3FDED4C6033
:100563000D12071EEC24FFFCED34FFFD80EFD0E0FD
:10057300FDD0E0FCE493A3C0E0E493C0E022D08389
:10058300D082E9C0E0E493A3C386F0C5F095F0F907
:1005930008E493A386F0C5F095F0700BE493A3C32E
:1005A300994005E9048002A3E475F002A42582F5CD
:1005B30082E5F03583F583D0E0F9E493A3C0E0E46A
:1005C30093C0E022C0E074F21203DAA2AFE492E037
:1005D300FED2AFE589A2E15003121A1E758900C24B
:1005E300C5EEA2E092AF7F010204E5C0E074F2120F
:1005F30003DAA2AFE492E0FED2AFE58BA2E05003B0
:10060300121A1E758B00C2E880D7C0E0C3E493962C
:10061300087401939618400FE493667008087401F8
:1006230093661870007019A3A3C3E493960874012A
:10063300939618A3A3400DD0E0D0E0D0E00205715B
:10064300A3A3A3A3A3A3D0E022851983851882E0E3
:10065300A3FEE0A3F5207808E0A3F608DFFAE0A301
:10066300FFE0A3C0E0E0A3C0E0E0A3C0E0E0A3C0DC
:10067300E0E0A3C0E0E4C5A8858218858319C5A876
:10068300D083D08202081ED083D082C5F0E493A326
:10069300C5F0C395F0F5F0E493A3C395F04005E5E9
:1006A300F0048001E475F002A42582F582E5F035BB
:1006B30083F583E493A3C0E0E493C0E02274048051
:1006C3000474028000CCC0E0EDC0E0E518C39CCC0C
:1006D300AD1950011D10AF068C188D1980068C18AA
:1006E3008D19D2AF1207B9D0E0FDD0E0FC2274021D
:1006F3008000CCC0E0EDC0E0E518C39CCCAD195040
:10070300011D10AF068C188D1980068C188D19D217
:10071300AF120797D0E0FDD0E0FC22C0E0C0F08824
:10072300F0E4936670080874019366187000A8F0EB
:10073300A3A3700BD0F0D0E0D0E0D0E0020571A30A
:10074300A3D0F0D0E022D083D082CCC0E0E493A346
:1007530060061207F91470FAE493A360061208EA1C
:100763001470FAD0E0FCE493A3C0E0E493C0E02269
:10077300C0E074F21203DAA2AFE492E0FED2AFC299
:10078300C0E5D1A2E45003121A66EEA2E092AF7F55
:10079300010204E5CAC0E0E493A3C582CCC582C5C7
:1007A30083CDC583F0A3C582CCC582C583CDC58364
:1007B300DAE5D0E0CA22CAC0E0E0A3C582CCC58294
:1007C300C583CDC583F0A3C582CCC582C583CDC502
:1007D30083DAE6D0E0CA22700908080822601618F6
:1007E3001818C6C333C608C633C608C633C608C6F8
:1007F30033C6D5E0EA22C0E0E493A3D39C5010E4CF
:1008030093A3C39C400AD0E0D0E0D0E0020766A3E4
:10081300A3A3D0E022C09FF59FE473D09F22D0838F
:10082300D082C09FE493C0E0740193C0E07402934C
:10083300F59F227404800A74038006740280027494
:1008430001C0E0F404120851D0E0120A8D222518E9
:10085300F58210AF08F518400215198008F5184005
:10086300021519D2AF85198322C0D0251810AF08FD
:10087300F518500205198008F51850020519D2AF72
:10088300D0D022BB0102E722C082C08389828A833F
:10089300BB0003E08002E493D083D08222C0E0C097
:1008A300D0EAC0E0E5A8D2AFC2C7A2E792AFD0E0DA
:1008B300FAD0D0D0E0326016080808C6C313C618B1
:1008C300C613C618C613C618C613C6D5E0EA22C394
:1008D300E0C696F608A3E0C696F608A3E0C696F629
:1008E30008A3E0C696F622C0E0E493A36C7009D097
:1008F300E0D0E0D0E0020766A3A3D0E022251810E1
:10090300AF08F518400215198008F51840021519AB
:10091300D2AF22E066701008A3E066700A08A3E075
:1009230066700408A3E06622C3E09608A3E0960875
:10093300A3E09608A3E096A2D265D03322C3E09643
:10094300F008A3E096F008A3E096F008A3E096F081
:1009530022E026F608A3E036F608A3E036F608A35D
:10096300E036F622E026F008A3E036F008A3E036EE
:10097300F008A3E036F022E056F008A3E056F008B2
:10098300A3E056F008A3E056F022E647F60809E68E
:1009930047F60809E647F60809E647F622E657F65A
:1009A3000809E657F60809E657F60809E657F62256
:1009B300E627F60809E637F60809E637F60809E6F2
:1009C30037F622E056F608A3E056F608A3E056F6FB
:1009D30008A3E056F622C0E0E8C0E0E58124FCF875
:1009E300E6A2E7D0E0F8D0E022700422600D18C63A
:1009F300C333C608C633C6D5E0F41822E4C396F65B
:100A030008E496F608E496F608E496F622C3E79619
:100A13000809E7960809E7960809E79622C3E096CE
:100A230008A3E09608A3E09608A3E09622C6F4C6BE
:100A330008C6F4C608C6F4C608C6F4C622600D0884
:100A4300C6A2E713C618C613C6D5E0F32275D000B5
:100A530075814075180175190300020439E0F60821
:100A6300A3E0F608A3E0F608A3E0F622600C08C6AC
:100A7300C313C618C613C6D5E0F422E6F008A3E6EE
:100A8300F008A3E6F008A3E6F022CAC0E0E6F0A36C
:100A930008DAFAD0E0FA2274F855C74401F5C779A9
:100AA30001222518F582E43519F58322C2AF75D6E4
:100AB3009F02000022120821972600120821BB265C
:100AC30000120821F626001208213A2700120821F5
:100AD3005D2700120821A82700120821852800128B
:100AE3000821402900120821FE2900120821B72AF3
:100AF30000120821DE2A00120821022B001208210D
:100B03004E2B001208218A2B00120821B02C001250
:100B13000821262D00120821482D00120821742DCA
:100B230000120821922D00120821A42D0012082181
:100B3300AE2D001208219D2E00120821F82E00125E
:100B43000821B32F00120821BB2F001208216430A3
:100B530000120821C13000120821CB3100120821F4
:100B6300463200120821913200120821FB32001292
:100B73000821523400120821723400120821CB34A8
:100B8300001208214C3500120821A2350012082159
:100B9300C536001208218E3700120821EF370012E4
:100BA30008216D3800120821C23800120821F738D5
:100BB30000120821293A00120821203B00120821C3
:100BC300803B00120821C93B00120821EB3B0012B5
:100BD3000821743C00120821063D001208218A3DB9
:100BE30000120821AF3D00120821C03D0012082168
:100BF3003C3E00120821E43E001208213D3F001252
:100C030008211840001208213C40001208216041CD
:100C130000120821864100120821D3410012082145
:100C2300104200120821B943001208210D45001299
:100C33000821494500120821C24500120821004637
:100C4300001208211C47001208213949001208210B
:100C53004449001208214F49001208215A49001241
:100C630008216449001208216F49001208218949AB
:100C7300001208219349001208219D4900120821FE
:100C8300A84900120821D04900120821204A001265
:100C930008212A4A001208214E4A00120821724AEA
:100CA30000120821D84A00120821284B00120821FB
:100CB300464B00120821C24B00120821004C0012BF
:100CC30008214D4C00120821C04C001208219F4DF1
:100CD30000120821724F00120821C24F001208218E
:100CE300F25000120821185100120821C8520012B4
:100CF3000821615600120821375800120821E859CB
:100D0300001208217F5A00120821D25B0012082129
:100D1300815C00120821C65C00120821315D0012BB
:100D230008213B5D00120821EC5F00120821866157
:100D330000120821F56100120821C7620012082180
:100D4300D46300120821356500120821546500128E
:100D53000821A96500120821AA6600120821D46699
:100D6300001208212C6700120821166800120821BE
:100D73005B6800120821A46800120821146900129C
:100D83000821746A00120821D46A00120821F26B48
:100D9300001208217F6E00120821A56E001208219F
:100DA300597000120821B07000120821B8710012A6
:100DB3000821817200120821DB72001208219B7343
:100DC300001208212E7400120821BA74001208219F
:100DD3003E75001208217D8001120821D080011286
:100DE30008213E8301120821838301120821CF8346
:100DF30001120821D084011208213B850112082128
:100E0300708501120821DF860112082176890112FB
:100E13000821A18A011208215C8B01120821E093A9
:100E2300011208217894011208215B97011208210D
:100E3300449801120821D79801120821FB99011245
:100E43000821619B01120821669C01120821589E0A
:100E53000112082161A001120821C1A00112082179
:100E630097A1011208214EA20112082158A20112D2
:100E7300082187A2011208213DA30112082122A4FF
:100E83000112082100A501120821C6A5011208219B
:100E9300F3A50112082115A6011208215AA801126F
:100EA30008213EA9011208218FA901120821F2A9E4
:100EB30001120821BEAA01120821F3AA0112082176
:100EC3003CAB0112082171AB01120821C5AB011221
:100ED30008211FAC0112082124AC011208217BACAC
:100EE30001120821A3AC01120821ABAD01120821A4
:100EF30014AE0112082177AE01120821F1AE0112DE
:100F03000821BBB101120821A1B2011208212AB4A0
:100F13000112082165B60112082111B70112082137
:100F2300C3B70112082103BA01120821A6BA01129C
:100F33000821EDBA01120821C1BC01120821D5BC58
:100F430001120821DFBC0112082107BD011208218B
:100F530013BD0112082131BD0112082113BF011273
:100F630008214CBF0112082156BF01120821A4BF5A
:100F730001120821BBC001120821F4C0011208218B
:100F83008FC1011208217DC20112082131C3011250
:100F930008216FC4011208215FC50112082109C687
:100FA3000112082192C601120821A9C601120821C3
:100FB300E2C601120821ECC601120821F7C601128C
:100FC300082115C70112082159C701120821B8C702
:100FD30001120821DFC701120821F9C701120821F4
:100FE30092C801120821C0C9011208212DCA011299
:100FF30008211ACB011208213FCB01120821AECBE5
:10100300011208210CCC0112082117CD011208216D
:1010130028CE01120821C8CE011208218BCF01125C
:1010230008212AD001120821B0D00112082192D13F
:1010330001120821C4D1011208212BD20112082167
:10104300FED20112082124D301120821B7D30112C1
:101053000821DBD301120821FED30112082147D452
:101063000112082121D60112082104D701120821F7
:10107300C3D7011208211FDA011208216FDA011206
:101083000821C2DA011208214EDB01120821F0DB2C
:101093000112082147DC011208216DDC011208212D
:1010A300B3DC01120821E9DC011208211EDD011263
:1010B300082177DD01120821D8DD01120821DBDECA
:1010C300011208210DE10112082181E10112082119
:1010D300AAE10112082143E201120821B8E2011238
:1010E3000821FEE2011208213AE3011208215EE31E
:1010F30001120821A4E301120821C1E3011208210E
:1011030078E40112082137FB0312082182FB031242
:101113000821748002120821AE80021208216D8119
:101123000212082159820212082154830212082153
:10113300D58402120821498502120821138602125E
:101143000821288702120821998702120821D587CE
:10115300021208212688021208213088021208216F
:101163006E8802120821D2880212082172890212A3
:101173000821EB8902120821C28A021208212E8B50
:10118300021208214A8B02120821828B02120821C3
:10119300AF8B021208214C8C021208215C8C0212C4
:1011A3000821AF8C02120821BB8C02120821CC8CBF
:1011B30002120821D58C021208213F8D0212082148
:1011C300998D02120821E78D02120821028E021264
:1011D3000821388E02120821598E02120821658EC9
:1011E30002120821E38F0212082101900212082142
:1011F3006A90021208217D90021208218B9002123C
:1012030008212D91021208213792021208215593C9
:1012130002120821CA9302120821D4930212082150
:101223004194021208215894021208219794021241
:101233000821D894021208210795021208213F952C
:10124300021208215E95021208217C9502120821E0
:10125300BD9502120821989602120821DE96021209
:101263000821099702120821719702120821A497F5
:1012730002120821DD9702120821EB9702120821BE
:10128300439802120821829802120821C29802127E
:10129300082106990212082129990212082134997A
:1012A300021208215299021208211B9A02120821E4
:1012B300259A02120821649A021208217A9A0212CC
:1012C3000821839A02120821F29A02120821069B2E
:1012D30002120821159C02120821289C02120821DF
:1012E3003D9C02120821EE9C02120821609D02120D
:1012F3000821259E02120821309E02120821579FC1
:1013030002120821739F02120821D29F02120821A0
:1013130010A0021208212AA002120821A7A002127B
:1013230008213EA10212082175A102120821B5A3CA
:101333000212082129A4021208219EA402120821E4
:10134300FAA6021208210AA7021208210DA7021207
:10135300082119A7021208212DA70212082135A777
:10136300021208216AA7021208212EA802120821DC
:101373009FA80212082105A902120821A1A902129D
:1013830008213AAA0212082168AA021208210BAB0B
:101393000212082117AB0212082146AB02120821E0
:1013A30049AB02120821B9AB02120821BBAC0212ED
:1013B30008219BAD0212082126AE021208214BAF71
:1013C3000212082104B0021208213DB002120821C2
:1013D3006EB00212082177B002120821B3B00212D4
:1013E30008218DB1021208213FB202120821D1B2A5
:1013F300021208218EB3021208210DB40212082131
:101403003FB4021208217EB402120821A48D0312F4
:101413000821B68D03120821228E03120821588E4B
:1014230003120821AF8E03120821CC900312082166
:10143300D492031208214A960312082179960312C3
:1014430008219D9603120821049703120821389757
:10145300031208219CD6021208218E970312082139
:10146300D7970312082108EC0312082123EC031277
:1014730008216EEC03120821B8EC0312082161ED78
:101483000312082176ED03120821BCF6031208218A
:10149300D1F003120821FDF003120821F6F1031223
:1014A3000821C3ED031208211CEF031208217C2637
:1014B300001208218EA703120821B7A703120821DF
:1014C300DDA703120821F0A7031208214CA8031279
:1014D30008217CA80312082115AA03120821DCAAFB
:1014E300031208210DAB0312082162AB031208217A
:1014F3009FAB031208211EAC0312082149AC03124F
:101503000821D4AC031208212EAD0312082152E89E
:10151300031208216BE80312082117E903120821BB
:10152300C9E903120821F8E90312082168D5031257
:101533000821E2D503120821EDD50312082112D6A2
:10154300031208218E750012082149770012082121
:10155300847800120821577A00120821CD7A0012EC
:101563000821747B00120821A17B00120821CF7B84
:1015730000120821137C00120821AA7C0012082102
:101583001D7D00120821A17D00120821A47D0012F7
:101593000821A77D00120821AA7D00120821D27D0F
:1015A30000120821D57D00120821FF7D00120821B9
:1015B300277E00120821547E00120821D67E0012D5
:1015C300082167A003120821BAA0031208212AA147
:1015D3000312082149A103120821FFA103120821C4
:1015E30008A2031208215EA2031208218BA2031290
:1015F3000821ECA20312082185A303120821C2A328
:101603000312082101A40312082163A40312082171
:101613008FA40312082110A5031208216AA503123F
:101623000821A9A503120821DDA503120821EFA5AE
:101633000312082101A60312082120A60312082180
:1016430029A603120821E8A60312082183F803122E
:101653000821E8E10312082120E2031208216BE2CA
:1016630003120821C4E303120821C2D6021208217F
:1016730002D8021208213ED80212082111DA0212FE
:1016830008213ADA02120821D5DC021208211CDDF6
:1016930002120821B7DE021208214EDF02120821CE
:1016A300B6DF0212082163E002120821A3E002124E
:1016B3000821E3E00212082173E202120821E5E3A4
:1016C3000212082134E60212082162E602120821FE
:1016D30098E602120821A1E602120821FEE6021290
:1016E300082180E702120821B1EA021208218CFCCA
:1016F30003120821A2FC031208212CCE0312082195
:1017030044CE03120821E1CE0312082122CF031293
:1017130008213FCF0312082162CF03120821A9CF6A
:1017230003120821E2CF0312082116D00312082165
:10173300BED1031208214FF90312082185F90312C0
:101743000821A2F903120821E7F903120821F8F985
:1017530003120821C3C10312082131C20312082155
:1017630001C30312082104C3031208212CC303126B
:1017730008212FC30312082132C30312082135C3E2
:101783000312082138C30312082114C403120821C9
:1017930055C50312082132EB0212082188EB02120D
:1017A300082179EC0212082117ED0212082161EDDC
:1017B30002120821B2ED02120821C6ED021208211D
:1017C300AAEF02120821B6F002120821F1F0021268
:1017D3000821FAF20212082115F30212082156F326
:1017E300021208218BF302120821E4F302120821EA
:1017F300F5F3021208211AF40212082173F40212FB
:101803000821C8F40212082104F60212082126F660
:1018130002120821C3F802120821F8F80212082163
:101823008AF90212082197F9021208219CF902127F
:101833000821D9F9021208211FFA02120821D6FA47
:10184300021208210AFB0212082114FB02120821CA
:1018530017FB021208219AFB02120821B7FB02129E
:101863000821E3FB021208211EFC0212082121FCBD
:10187300021208212BFC0212082169FC0212082122
:1018830005FF0112082116FF01120821A7FF01120B
:101893000821CCE401120821FAE40112082167E6C9
:1018A30001120821ECE6011208216AE7011208215E
:1018B300D3E70112082115E80112082185E8011276
:1018C300082130E901120821A4E901120821E0E905
:1018D30001120821A9ED0112082134EF0112082198
:1018E300F1EF0112082129F0011208211FF2011260
:1018F3000821D2F4011208216FF5011208218EF696
:1019030001120821E8F901120821F8F9011208214E
:1019130059FB01120821E7FB0112082120FD0112E6
:10192300082173FE01120821008003120821BA80E6
:10193300031208212A8103120821A8810312082116
:101943000E82031208217E82031208215C85031292
:101953000821048603120821678603120821D18710
:10196300031208218D880312082107890312082115
:10197300C88A03120821658B03120821588C0312AD
:101983000821BAFC03120821BCFC031208218FDFD3
:1019930003120821BEDF0312082181E0031208218C
:1019A300E7E00312082158E103120821CFE60312EE
:1019B3000821B2F703120821C3F70312082169F8BB
:1019C300031208214AEA0312082158EA03120821E4
:1019D300ECFF021208219DFA03120821ADFA03124B
:1019E3000821C5FA031208212DFB0312082195F4DF
:1019F300031208211EF50312082190F50312082192
:101A03006DEF0312082189EF03120821EFEF031290
:101A130008210FF00312082143F0031208219CF060
:101A230003120821A2FC02120821B0FC02120821B1
:101A330034FD02120821F0FD0212082187FF021271
:101A43000821F1B20312082170B30312082128B44C
:101A5300031208219CB40312082198B5031208212C
:101A630027B70312082186B703120821E0B7031230
:101A73000821E9B703120821F8B7031208210BB8AC
:101A83000312082121B8031208212AB803120821DE
:101A93003DB80312082190B80312082198BA031223
:101AA3000821D0BA03120821F5BA031208210EBB8C
:101AB3000312082127BB0312082130BC031208219B
:101AC300CBBC0312082130E40312082173E4031290
:101AD300082184E403120821B7E403120821EDE48A
:101AE3000312082123E5031208219CE503120821B0
:101AF300D9E50312082120D80312082148D803127C
:101B0300082185D80312082194D803120821B3D8D9
:101B1300031208211DD90312082126D90312082113
:101B230087D903120821ABD9031208216EDA0312F5
:101B330008217BDA031208218CDA0312082121FC25
:101B4300031208213EFC0312082177CA031208215D
:101B5300DCCB03120821E9CB03120821FFCB0312CC
:101B630008211CCC0312082133CC0312082148CCD2
:101B73000312082119CD03120821ABCD031208214A
:101B83000DCE031208211DCE0312082102FA0312FF
:101B9300082127FA0312082150FA0312082178FAC0
:101BA30003120821BADA03120821E1DA0312082129
:101BB30002DB0312082164DB031208212ADD03126E
:101BC300082143DD031208214FDD0312082163DDE1
:101BD3000312082187DD0312082193DD0312082174
:101BE300A2DD03120821B5DD0312082105DE03126D
:101BF30008213FDE031208216FDE03120821BEDE37
:101C0300031208210CDF0312082124DF0312082129
:101C13002EDF031208213FDF0312082184DF0312A2
:101C230008218CFB031208213398031208215F98C3
:101C3300031208217B98031208218E9803120821AE
:101C4300A498031208210E99031208214199031243
:101C53000821AB9C03120821AE9D03120821DE9DCF
:101C630003120821579E03120821469F03120821DD
:101C73006E9F03120821839F03120821939F03126F
:101C83000821D49F0312082129A00312082139A097
:101C9300031208215EF30312082179F303120821CA
:101CA300A2F303120821BCF303120821E1F3031288
:101CB300082100F40312082119F40312082148F43F
:101CC3000312082163F403120821DDFB0312082128
:101CD300D6D103120821DDD103120821EAD203125F
:101CE30008211CD30312082142D30312082165D310
:101CF3000312082187D303120821C2D30312082138
:101D030032D4031208216FD403120821BCD4031266
:101D13000821EAD4031208210AD50312082127F265
:101D23000312082149F20312082158F30312082170
:101D33005BF303120821A9F5031208211AF6031213
:101D4300082159F6031208219AF6031208214DAD12
:101D530003120821ABAD031208218DAE0312082133
:101D6300CEAE03120821FFAE03120821DAB003122C
:101D73000821DEB10312082170B203120821ABB2AD
:101D83000312082173C60312082192C60312082105
:101D9300DBC603120821F7C60312082128C7031262
:101DA30008213FC7031208214CC7031208216AC741
:101DB3000312082172C803120821A9C803120821BB
:101DC300B3C803120821C0C803120821DBC90312D8
:101DD3000821E6C903120821F8C90312082101CA20
:101DE300031208210BCA031208210ABD031208219A
:101DF30035C10312082151C1031208215DFC0312EE
:101E030008217DD60212082191D502120821F1D4AE
:101E130002120821B4D30212082148D10212082168
:101E2300DDD00212082197D0021208215ECD0212E2
:101E330008212ACD02120821E4CC02120821BACCCF
:101E430002120821FCCB02120821ACCB021208219A
:101E5300FAC90212082167C90212082164C90212D1
:101E6300082160C8021208212CC80212082157C792
:101E7300021208218BC50212082124260012082110
:101E83007B2500120821F6240012082146C5021200
:101E9300082118C50212082115C50212082102C51E
:101EA30002120821982400120821C1C40212082139
:101EB300B4C4021208219DC30212082127C30212CF
:101EC300082167240012082111A703120821EDC27B
:101ED3000212082191C20212082160C202120821D3
:101EE3001BBF02120821D9BE02120821CDBE021265
:101EF300082128BE0212082160BD021208211EBB60
:101F0300021208219BB80212082159B802120821B3
:101F130020B702120821CCB6021208210CB6021215
:101F23000821DDB5021208211EB502120821B4B43E
:101F330002120821EEB402120821552400120821CE
:101F43005E970300000080FB87000100BD052400AD
:101F53000200470E25000200490E260002004B0E28
:101F6300270002004D0E280001004F0E290001003A
:101F7300500E84000400510E86000100550E2A0005
:101F83000100560E2B000100570E2C0001005A0EC3
:101F93002D000800A9052E0001005B0E2F00010093
:101FA3005C0E300001005D0E310001005E0E320058
:101FB3000100B10533000100B205340001005F0EDA
:101FC30036000100B30538000100600E390001003E
:101FD300590E830002006D0E63000100BC0564000E
:101FE3000100A60565000100580E6D0001006C0E8E
:101FF3006E000200A70543000100610E44000200C9
:10200300620E45000100640E46000200650E4700A3
:102013000800B40548000100670E49000100690E7D
:102023004A0002006A0E4B000100680E0400010022
:102033006F0EA1000100720E37000100710E8800BF
:102043000100700E0000000000000001363601019F
:10205300000102010001030100010401060605025B
:102063000000070100340801000F090401010D01FC
:1020730000FF0E08000017020000190100FF1A01FB
:1020830000011B0100FE1C0100081D0200001F01CE
:10209300000120010001210200002301000F24029E
:1020A30000002601000127010008280200FF2A0181
:1020B30000072B0102402C0100002D0100012E011D
:1020C30000012F0100FF30010B1C310800003A0111
:1020D30000083B01000F2F010000030271023001D1
:1020E3006002110270020102020202028002100267
:1020F30061023A0041006302730272026202430208
:10210300000213023800000200020402120200025D
:1021130000020002000204020402370037003C02FE
:102123004402000239000002000265020002350287
:10213300810200020502820283020002010371038D
:10214300010301030103010301032203020301034A
:102153001003000300030003000300030003000354
:1021630042030003240306030003000304031203D2
:1021730025032303250323030403040300030003AC
:10218300000344030003000323030003650321004A
:102193003503810300030503000300030003030069
:1021A30071003001600011007000310220035004FF
:1021B30080001000610000001400630073007200CF
:1021C300620043000000130006000000000004004A
:1021D30012000000000000000000040004003700AB
:1021E30037003C02440000000000000000006500CE
:1021F300000035008100000005000000830000009E
:10220300010171010101010111010101310101010B
:1022130001018001100161013B001400630173019E
:102223007201620143010001130106013D01350002
:102233000401120100010001000100010401040175
:10224300330133013C014401320136000001000136
:10225300650100013500810100010501820183014F
:1022630000010304710402046004110470040204F5
:10227300020401040204100461040004140463044E
:102283007304720462044304000413040604000488
:1022930000040404120400040004000400045104B4
:1022A3006400000400040004440400040004000467
:1022B300000465040004350481046400050400047B
:1022C3008304000436000100060000000F00000034
:1022D3000000000000000000000003FFFF000004F6
:1022E30003FFFF0000FFFF0FF4010005C4040320F8
:1022F300000100000B000000000000000003010FBC
:10230300000046191300E618010046190200B01830
:102313000300B6180400BC180500C2180600CE1846
:10232300FFFF000001240E065A0E08540E0B720E16
:10233300109A0D022A0E05480E07300E0C060E0DDC
:10234300180EFF000003EAF5E5D5D5C5B5A59595AB
:1023530085857575656555554545353525251515AA
:10236300055012801256125C127A126E126812868F
:10237300128C1292129E1262124A12441200160F0B
:1023830000000B150B020002220F32000006461359
:1023930058135E131A1264131412201254114E119F
:1023A3008A11901184113C11A613C413CA13AC13E0
:1023B300B813B21300011916181616152303000CCF
:1023C3000E020B040B0A0708000F00034948424D95
:1023D3001817250502303016181920231A1C1E3031
:1023E300303017181921301B1D1F3000383C3E3682
:1023F3003B3B352B432C9A136A1370137C137613D0
:1024030074129812BE13A412AA120204020101014B
:10241300010902601166115A1196110005150D0983
:102423001008046C117E1100BE040A0E0004007F24
:1024330000E8030C00280015000108100C0A03082B
:10244300090004000CFF1E1E0508040F0974010295
:102453003042C082C0838A828B83E0D2E7F01218B5
:102463004A02417FC082C083790012293B1263C4B0
:10247300C082C0839003301252B1D083D082C3E0B4
:102483009CA3E09D500C124CB7FAA3E0122869609C
:10249300010902417F74F7120374890812293B1260
:1024A30029C5ACF075F00BE9A42CF9900332E028B0
:1024B300FEA3E039FF7401650860067402650870C5
:1024C300208A828B831229B1124533740265087006
:1024D3001812284A1229EE7010E48E828F83F0803E
:1024E30008EA2403FCEB122997EEFAEFFB121F3ADA
:1024F300023E3774F4120374123EC979008E828F40
:1025030083E06071890A890B8060E50A75F00BA48A
:10251300FAACF075F00BE50B122876704AE50A75F4
:10252300F00BA4F8AAF075F00BE50B1229A68E8226
:102533008F83E08C82850983122AB08C828509837C
:10254300A3E8F0A3E9122AA6E5082403FAE5091291
:10255300299F122CA5125FD0AA08AB09121F3A7942
:10256300019003301259D6123A11122861E50A9AE2
:10257300E50B9B4095023EDF74F5120374EAFEEB14
:10258300FF740B120AA5123B04750A01EC7001EDEE
:10259300602DEC126135ED1263C412452C790112E2
:1025A3001EA4E5087002E509607285088285098327
:1025B300A3123ED37902AA08AB09121EA4805DE5DB
:1025C300087002E509602B122852124BBD122CA68B
:1025D3001229D8700CEEFAEFFB121E86E9F50A8079
:1025E300C9EE2403FA12293670327903EEFAEFFBAF
:1025F30080C88E828F83A3E064FE7004A3E064FF2F
:10260300700BEE24030A0A0A122936700CEEFAEF55
:10261300FB121E86E9F50A8003750A00A90A02293E
:10262300F974F712037490033012453CEA7001EB1E
:102633006031EA75F00BA4FAACF075F00BEBA42C47
:10264300FBEAFEEBFF12165E90033212453C900349
:1026530032E07002A3E06012EEFCEFFD7900121588
:10266300CE8007900332E4F0A3F0023E37900330AC
:102673001245B8C3EE98EF9922C082C083EC700173
:10268300ED6005121D4880097C087D007900121554
:10269300CE02417F74F61203747900EA7001EB6095
:1026A300147C008C08125C70600479017C080CECCB
:1026B300C3940840EE02304574F712037474F312A6
:1026C3000900ECFEEDFFE4851882851983F074019F
:1026D300120AA5123B18120AD67403120AA5AC8279
:1026E300AD83EEFAEFFB1214AEEEFAEFFB120AB86B
:1026F300023E3274F712037474F3120900ECFEED18
:10270300FFE4851882851983F0EAFCEBFD7403125C
:102713000AA5123B4F7401120AA51245B48E828F8B
:102723008312453374FE68700374FF696004790192
:1027330080027900023E3274F7120374EAFEEBFF63
:10274300122789701012279464FFFC8A828B83E01E
:102753005CF0121F3AA908023E3774F7120374EAB9
:10276300FEEBFF7508008E828F83E06017122789C6
:1027730070121227948A828B83FCE05C7006E04C13
:10278300F0121F3A80CF121EC2E9F50874016508E2
:10279300221243961229C9122915FAA3E039FB8E96
:1027A300828F83E02274F41203748A088B097C00FD
:1027B3007D0012284A12299F122859123ED079000F
:1027C300850882850983A3E064FE7004A3E064FFA7
:1027D30060727E007F008063EEFAEF122869605812
:1027E300EEFAEFFBEA75F00BA4FAACF075F00BEB25
:1027F300A42CFB900332E02AF50AA3E03BF50B85FA
:102803000882850983A31250EE850A82850B83A370
:10281300E06A7003A3E06B701FE50A2403FAE50B7B
:10282300122937700612292412299F122852EEF01A
:10283300A3EFF07901126515123776122861EE9A2B
:10284300EF9B4094023EDFEA24030A0A0AEB2212BA
:10285300285912582122E508126135E5092290030F
:102863003012612EC322FBEA75F00BA4FAACF075AB
:10287300F00BEBA42CFB900332127273F583E0543C
:102883000F2274F31203748A088B098A828B83A341
:10289300123ED312293B123ED0750C0012284A1265
:1028A300293770597E007F00804E122907FAA3E072
:1028B300398A82F583E0540F603B122907F50AA396
:1028C300E039F50B1229243400FB121D42E964019F
:1028D3007023850A82850B83A31245B485088285FC
:1028E3000983A3E8F0A3E9124F60EEF0A3EFF075BC
:1028F3000C0112651512377612267040ADA90C7FB4
:102903000502064CEEF8EFF9E875F00BA4F812296E
:102913001522AAF075F00BE9A42AF9900332E028F6
:1029230022E50A2403FCE50B3400FDE5082403FA41
:10293300E50922EF1229E822126134EB2274F51221
:102943000374EAFEEBFF8E828F83A3123ED37C00D7
:102953007D00EE24030A0A0A12299EEEFAEFFB1207
:102963001EC2E9F50A7401650A7026124392122900
:10297300C5AAF075F00BE91229A6850882F5831222
:1029830029B11229D8700AE5082403FCE5091229A4
:102993009702261F3400FDEE2403FAEF3400FB12E6
:1029A30014AE2212291BF508A3E039F50922A3125C
:1029B30029B6221229BA22E0F8A3E0F98E828F8386
:1029C300A3221229C9223400F5831245BDF9E87503
:1029D300F00BA4F822E8F0A3E9F0E5082403FAE5F4
:1029E300091229E8221229EE6401223400FB120A9B
:1029F300B8E92212086C7F0302064C74F2120374C6
:102A030074E6120900123EC9750A017508007509BA
:102A130000750C00750D00E4851882851983122A50
:102A2300A67403120AA5123CEE64017023740B1200
:102A33000AA512452C7401120AA5125C7B7003A32C
:102A4300E069605185188285198385820885830929
:102A5300740D120AA5E4122AB0740E120AA51245C7
:102A630033740D120AA5AA82AB83120AD6E9640154
:102A7300700B740D120AA585820C85830D780C12D8
:102A8300083EAC08AD09EEFAEFFB121E8074021289
:102A9300086CE9F50AEEFAEFFB120AD0A90A741AD8
:102AA300024AD0F0EE2403FCEF3400FD221245214C
:102AB3001245B822C082C0837800790080031232A5
:102AC300F2122861E89AE99B500CE8FAE9122869A6
:102AD30070EC79008002790102417FC082C083904B
:102AE300243A12324175F012A4FCAAF075F012EDEB
:102AF300A42AFD79FF7A967B081215CE02417F74D2
:102B0300F7120374E9FEEAFF7A007B00780079008C
:102B13008025E8FCE9FDEC75F012A4FC85F008754E
:102B2300F012EDA425081230A09E4008124C474035
:102B3300031230311232F2122B4240D6023E37904A
:102B4300243A12346AC3E89CE99D22C082C0837888
:102B530000790080031232F290243A12328050201E
:102B6300122F9164FF70EEE875F012A4F8AAF075C5
:102B7300F012E9A42AF9E82496FAE93408FB800460
:102B83007A007B0002417F74F012037474F312091C
:102B9300008A0A8B0B8C0C8D0D8908EC7001ED609B
:102BA30015AA0CAB0D120B2A8A0E8B0FAE0EAF0FAC
:102BB300EE7001EF704A120B008A0E8B0FA80EA95C
:102BC3000FE8FEE9FFE87001E960357401851882BA
:102BD300851983F0120AA5125FD0AC0CAD0D7403F6
:102BE300120AA5122D1F740B120AA512439C12453B
:102BF30033E48E828F83A3A3125FBD1210948006E9
:102C0300EE7001EF60767A0074FF2508C3940450D8
:102C1300027A048E828F83125FD08E828F83A3A366
:102C2300A3A3E508F0EA8E828F83A3A3A3A3A31231
:102C33005FD8120223E88E828F83A3A3A3A3A3A347
:102C4300A3A3F074018E828F83A3A3A3A3A3A3A33F
:102C5300A3122CAAA3A3A3F0EE24101263C1E4F0E1
:102C6300122CAAF0122CA5E4F0908060780C120AC2
:102C730060EE240C1263C1780C120A7E122C93406E
:102C830005E4900DFCF0120F6EEEFAEFFB024F68B5
:102C93007A047900120AFA90243A123864EA98EB1B
:102CA3009922EE12581C22A312492AA32274F2126B
:102CB300037474F31209008A088B09ECFEEDFF75A7
:102CC3000A00EEFAEFFB120B2A8A0C8B0DA80CA953
:102CD3000DE87001E9603E88828983E0650870042D
:102CE300A3E06509602F88828983A3A3A3A3E0C31C
:102CF300940550211263C87401851882851983F0E5
:102D0300120AA51263CCEEFCEFFD7403120AA5129E
:102D13002D1F750A01A90A740D024AD0123B5A12DB
:102D23000AE82274F6120374122D6A7002E58360B6
:102D33000FA3A3A3A3E014C3940450047901800256
:102D4300790002304574F6120374122D6A7002E59D
:102D530083600FA3A3A3A3E014C3940250047901D7
:102D630080027900023045120B248A828B83E5822C
:102D73002274F6120374122D6A7002E583600BA3AA
:102D8300A3A3A3E07004790180027900023045C057
:102D930082C083EAFCEBFD7A007B00120B30024118
:102DA3007FC082C0837C007D0080F074F4120374C2
:102DB30074F3120900EAFEEBFF8C0A8D0BC3EC944B
:102DC300F8ED94FF4009EE7001EF7003022E657574
:102DD300080075090080307401851882851983F015
:102DE300E50875F012A4122E82120AA5122E916024
:102DF300137403120AA5AC82AD83EEFAEFFB121D26
:102E030042E9703F122E7590243A12385A5053E516
:102E13000875F012A4F8AAF075F012E50912305201
:102E230060E2EE7001EF70AF74FF650A700474FF27
:102E3300650B60D0E508122E6C650A7004A3E0658B
:102E43000B70C1E50875F012A4F508AAF075F0122D
:102E5300E509A42AF509E5082496FAE5093408FBEF
:102E630080047A007B00023EDA75F012A4126E46EB
:102E7300E022E5082401F508E5093400F5092224D8
:102E830098F582E93408F5831245B8740B22E8F00B
:102E9300A3E9123B74120AE2E92274F41203747474
:102EA300F3120900750800120B2A8A0A8B0BAE0A6B
:102EB300AF0BEE7001EF602A7401851882851983C8
:102EC300124526F8A3E0F9740B120AA5123B6C1203
:102ED3000ACA7C127D0079FFEEFAEFFB1215CE755C
:102EE3000801122C9350097401900DFCF0120F6E1F
:102EF300A908023EDA74F7120374E9FE74FE6A70DD
:102F03000374FF6B78007900700580551232F2125A
:102F13002B42504DE8FCE9FDEC75F012A4FCAFF038
:102F230075F012EDA42F122F8AED126BE560DDE828
:102F3300FCE9FDEC75F012A4FC75F012EDA42FFD75
:102F4300EC2496F582ED3408F583E06A7003A3E080
:102F53006B70B98009122F9114C39404401A123272
:102F6300F290243A1232805017EE70E9122F9164D6
:102F7300016005E0640370E61231AF1250EC800487
:102F83007AFE7BFF023E37FDEC249AF58222E8FAB3
:102F9300E9FBEA75F012A4FAACF075F012EBA42C7D
:102FA300FBEA122F8CEB126E4022120B3C02417F84
:102FB300C082C083790180F274F01203748A0A8B91
:102FC3000B7A047901120AFA8A0CEA7001EB604069
:102FD300EAC333FAEB33FB12165E8A088B09AE0899
:102FE300AF09EE7001EF60237AFE7BFF120B427490
:102FF300FE6A700374FF6B601B8508828509831268
:10300300453CE5082402122E7980E1750C0080040A
:103013007E007F00850A82850B83E50C1243B30291
:103023004F6D90243A12346AC3EA9CEB9D22EA2442
:10303300010AEB3400FB2212305C12086C7402129A
:10304300086C7F0202064C7B001216E8740422A46B
:103053002A126E3664FF227A417B001216E2740450
:103063002274F71203747A007B0080041912303142
:103073001230255021EAFCEBFDEC75F012A4FCAEF6
:10308300F075F012EDA42E1230A0940550DFE97014
:10309300DB1230A980047A007B00023E37122F8AAC
:1030A300ED126E40C322EA75F012A4FAACF075F08B
:1030B30012EBA42CFBEA2496FAEB3408FB2274F7F8
:1030C30012037474F31209007E007F00023165E578
:1030D3000875F017A42410F582E5F0340A1250ECB9
:1030E300EEF8EFF9E875F012A4F8ACF075F012E918
:1030F300A42CF9E8122E706A7003A3E06B603EE51E
:103103000875F017A4F8AAF0EAF9E8126E51123C18
:103113006E120AA5E0687003A3E0696020E50875F4
:10312300F017A4F8EAF9E82412FCE9340AFD740361
:10313300120AA5AA82AB83121D42E96011E5087544
:10314300F017A42410FAE5F0340AFB1210A00508C6
:1031530090243EE493FAE508C39A50030230D21256
:10316300377690243A1271B0503FEEF8EFF91231EE
:10317300AFF583E064FF7004A3E064FF60E17401D2
:10318300851882851983F0EEF8EFF9E875F012A43B
:10319300F875F012E9A42AF9E8122E82120AA51290
:1031A3002E9160BB75080080A7023E32E875F012CD
:1031B300A4F8AAF075F012E9A42AF9E81231C3229F
:1031C3002496F582E934082274F61203741238AE99
:1031D3001232418508F0A4CCAAF08509F0A42AFA9A
:1031E3008508F0EDA42AFD79FF7AAD7B0D1215CE8B
:1031F300900335746CF0A3740BF09003377466F08E
:10320300A3740BF09003397490F0A3740BF0900344
:103213003B74A2F0A3740BF090033D74A8F0A37465
:103223000BF090033F74AEF0A3740BF09003417462
:10323300B4F0A3740BF0E4900334F002304512347D
:103243006AEC22C082C0837800790080031232F2D4
:1032530012327D501EE8FAE9FBEA75F00EA4FAACCF
:10326300F075F00EEBA42C12366164FF70DF12369A
:10327300A980047A007B0002417F902430123289B6
:10328300C3E89AE99B22E493FA740193FB2274F74F
:103293001203747A007B00780079008047E8FCE928
:1032A300FDEC75F00EA4FCAEF075F00EEDA42EFD52
:1032B300EC24ADF582ED1237E964FF6024E8FCE904
:1032C300FDEC75F00EA4FC75F00EEDA42EFDEC24C0
:1032D300B2F582ED340DF583E0FCEA2CFAEB340011
:1032E300FB1232F2902430122B4540B1023E37E8F4
:1032F300240108E93400F92274EC120374890B8A5F
:10330300088B098C118D0A7414120AA5E0F50EA31B
:10331300E0F50F7E007F00120BCCAA08AB09120B5D
:10332300D28A0C8B0D850882850983A3A3A3A3A34B
:10333300A3A3A3E0640170077510018E0880058EB6
:103343001085110874FE650C700474FF650D70031D
:103353000234448E0980020509850912902430E461
:103363001270395074A809E875F00EA4A9F0123749
:10337300E4650B70E2E875F00EA412376B6510700C
:10338300D6E875F00EA4123758650C7004A3E065F7
:103393000D70C4E875F00EA424B1F582E9340DF57F
:1033A30083E0650870B1E875F00EA424ADFEE9343E
:1033B3000DFF750900E509C3950A40030234441261
:1033C3007259120B78E9700D127259120B84E9705D
:1033D300047E007F00050980DC120B608A128B13C8
:1033E300AE12AF13EE7001EF60578E828F83E50B41
:1033F300F0A3E51012451DA3E50CF0A3E50D126A39
:103403006DE508F090244DE493C3950A5004E493CA
:10341300F50A8E828F83A3A3A3A3A3E50AF0850EE7
:103423000C850F0D750E00780C12083AE50AC333AC
:10343300FCE433FDEE2406FAEF340012344B120899
:103443006CEEFAEFFB027027FB1215C2740322C065
:1034530082C08312346379FF1215CE790102417F52
:1034630090242E12346A22E493FC740193FD227497
:10347300F7120374EA7001EB60498A828B83A3A37A
:10348300A3A3A3A3E5827002E58360377E008001D6
:103493000E8A828B83A3A3A3A3A3E0FFEEC39F5053
:1034A30022EEC333F8E433F9EA28F582EB39F583E6
:1034B300A3A3A3A3A3A3E06C7003A3E06D70D179CE
:1034C3000180027900023E3774F5120374EA700139
:1034D300EB60618A828B83A3A3A3A3A3E06065EA65
:1034E3002406F8EB3400F98A828B83A3A3A3A3A356
:1034F300E0F509750800800DEA2405F582EB125BFF
:10350300CB60410508E508C395095028E508123545
:103513008DE06C7003A3E06D60DE123593126518C5
:1035230088828983EEF0A3EFF0E824020808E934E7
:1035330000F980CF8A828B83A3A3A3A3A3E06004B3
:103543007901800279000229F974F7120374EA7091
:1035530001EB60318A828B83A3A3A3A3A3E0C0E022
:1035630090244DE493FED0E0C39E5019EA2405F85D
:10357300EB125C6312358DECF0A3ED124D86E00483
:10358300F0790180027900023E37C333FEE433FF52
:10359300EA2EF582EB3FF583A3A3A3A3A3A322748F
:1035A300F41203748908EAFEEBFF8C098E828F8381
:1035B300A3A3A3A3A3A3A3A3E0640170098E828F93
:1035C300831252B18007123763AC0AAD0B74FE6CE1
:1035D300700374FF6D70067A007B00807E7800793B
:1035E30000801412366C6401700A12368A7003A3C9
:1035F300E06D60641232F212327D50DBE8FAE9FBCF
:10360300EA75F00EA4FA85F00A75F00EEBA4250A0C
:10361300123661650870DD8E828F83A3A3A3A3A3F3
:10362300A3A3A3E0640160BB12366C70C712368A91
:103633007003A3E06D70BDE8FAE9FBEA75F00EA430
:10364300FA75F00EEBA4250AFBEA24B1F582EB34FC
:103653000DF583E06509709C1236A9023EDFFBEA93
:1036630024ADF582EB1237E922E8FAE9FBEA75F0BB
:103673000EA4FA75F00EEBA4250AFBEA24AEF5823C
:10368300EB340DF583E022E8FAE9FBEA75F00EA4CA
:10369300FA75F00EEBA4250AFBEA24AFF582EB34AE
:1036A3000DF583E06C221236AD22E875F00EA4F816
:1036B300AAF075F00EE9A42AF9E824ADFAE9340D6D
:1036C300FB2274F21203748A088B098A828B83A308
:1036D300A3A3A3A3A3A3A3E0640170098A828B839A
:1036E3001259D6800312376374FE650A700474FF9F
:1036F300650B605E7E007F008053850882850983A9
:10370300A3A3A3A3A3A3A3A3E06401703AEEF8EFDA
:10371300F9E875F00EA4F8AAF075F00EE9A42AF9F9
:10372300E812376B64017022EEF8EFF9E875F00EDA
:10373300A4F875F00EE9A42AF9E8123758650A705F
:1037430004A3E0650B70031237831237761271AD51
:1037530040A8024AD324AFF582E9340DF583E02271
:10376300120BBA8A0A8B0B2224AEF582E9340DF5CB
:1037730083E02212377BFF22EE24010EEF34002276
:10378300EEF8EFF91236AD120B722274F3120374D2
:10379300890C8A0A8B0B7508007509007E007F006F
:1037A300801B1237CC650C7011AC0AAD0BAA82AB2F
:1037B30083120B78E96003122E751237761271ADFE
:1037C30040E0AA08AB09022902EEF8EFF9E875F028
:1037D3000EA4F8AAF075F00EE9A42AF9E81237E46A
:1037E3002224ADF582E9340DF583E02274F112034E
:1037F30074890D8A0A8B0B8C0E750C007508007585
:1038030009008005050C122E7590243012385A5089
:103813003DE50875F00EA4F8AAF075F00EE509A4CD
:103823002AF9E824ADFEE9340DFF8E828F83E0652B
:103833000D70D3AC0AAD0BEEFAEFFB120B78E96017
:10384300C5E50CC3950E40BCEEFAEFFB80047A008D
:103853007B007F0702064C123864E50898E5099956
:1038630022E493F8740193F9C32274F61203747576
:103873000800750900780812083E1238AE123ACBD8
:10388300E9A42AF975832475822EE49328FCA3E422
:103893009339FD7A417B001216D6740212086CE943
:1038A300FE6003120BA8EEF902304590242E123865
:1038B300B890243022E493F508740193F509227437
:1038C300F612037474FE120900851882851983E4C5
:1038D300F0A3123B0C858208858309780812083E01
:1038E300750802750900780812083E7C007D007A8D
:1038F3004102303A74F412037474E71209007E0033
:103903007F00851882851983858208858309780855
:1039130012083E7508028E09780812083E7C007D65
:10392300007A4112304A12086CE96003023A038EAE
:103933000A8E0B80587402120AA5AC82AD83740DF3
:10394300120AA51250EE120BC0740A120AA5E06007
:10395300397411120AA5858208858309780812082B
:103963003E7412120AA5E0FD7411120AA5E0FC745C
:1039730004120AA5AA82AB83740D120AA5E0F912F8
:103983000B6C740212086C123776123A11123A1E3B
:10399300E50A98E50B995068740B120AA58582080D
:1039A300858309780812083E90242E1206F190248C
:1039B3002E123A0CE8850AF0A4C8AAF0850BF0A4ED
:1039C3002AFA850AF0123AE87A4112304A12086C50
:1039D300E970B7740A120AA5E4F0740C120AA5E0A0
:1039E3007003023938740A120AA57401F0740D12B7
:1039F3000AA51245B47402120AA5124533023954BA
:103A0300EEFAEFFB7419023EDCE4123AE122E50A16
:103A13002401F50AE50B3400F50B2285188285197C
:103A2300831245B8C32274F512037474F0120900AB
:103A3300851882851983E4F0A3F0FE805A1237CCEF
:103A430064FF6050858208858309750A007808122F
:103A5300083A1234637405120AA5AA82AB8312349E
:103A63004C12086C7402120AA585820885830978B2
:103A73000812083E90242E1206F17404120AA512AD
:103A83003B0490242E123ACB123AE812305A120811
:103A93006C123AF412377BFF1271AD40A085188285
:103AA300851983858208858309780812083E75087D
:103AB30002750900780812083E7C007D0012305A16
:103AC30012086C74100229F6123AE0E88508F0A493
:103AD300C8AAF08509F0A42AFA8508F022E493F82D
:103AE300740193F922E9A42AF9740228FCE439FD4C
:103AF30022851882851983E02401F0A3E03400F0C5
:103B030022E0F508A3E0F50922123B1022F0851804
:103B13008285198322EAF0A3EB123B7422C082C090
:103B23008374F3120900123CF370128A828B83129E
:103B33003C6E120AA5123B6C120AD6800CEAFCEB0F
:103B4300FD7403120AA5123B4F024172123B53222A
:103B5300123B5A120ADC22AA82AB831214AE8518D6
:103B630082851983AA82AB8322E8F0A3E9123B740E
:103B730022F0851882851983AA82AB832274F712F7
:103B8300037474F3120900ECFEEDFF7404851882CC
:103B9300851983F0740B120AA5EAF0A3EB122E9594
:103BA300F508601D74038E828F83A3A3A3A3A3A32D
:103BB300A3A3F0120AA5AC82AD83EEFAEFFB121DAC
:103BC30048A908023E32C082C08374F3120900740C
:103BD30004851882851983F0740B120AA5123B1809
:103BE300120AE2740102417474F612037474F3123C
:103BF3000900900334E0706E74048518828519837C
:103C0300F0900373123C6E120AA5124533120F385B
:103C1300EAFCEBFD7403120AA5122D1F120F448A4E
:103C2300088B09A808A9097401120AA5E0687003A2
:103C3300A3E069602B74FE68700374FF69602174EC
:103C430001120AA51245337403120AA5AA82AB8393
:103C5300120F4A851882851983AA82AB83120AE858
:103C63007401900334F0740D0230421245B87401AC
:103C730022C082C08374F3120900123CF38A828B40
:103C830083701E123C6E120AA5E8F0A3E9125D29A7
:103C93007056851882851983AA82AB83120AE8803D
:103CA30047A3A3A3A3A3A3A3A3E064037010EAFC05
:103CB300EBFD7403120AA5123CEE702C80D48A82A9
:103CC3008B83A3A3A3A3A3A3A3A3E0640170108A7C
:103CD300828B83122E8B120AA5E8F0A3E980087465
:103CE3000B120AA5124D63F0024172123B53E922F3
:103CF3007404851882851983126A63A3A3A3A3E0BE
:103D030064022274F51203747C007D008C088C0914
:103D13007800790080031232F2123D7A5031123D5D
:103D23005960F3AE08AF0974012EF508E43FF509B5
:103D3300EA6E7002EB6F70DEE875F00EA4F8AAF07D
:103D430075F00EE9A42AF9E824ADFCE9340DFDEC85
:103D5300FAEDFB0229F9E8FEE9FFEE75F00EA4FE89
:103D630085F00A75F00EEFA4250AFFEE24ADF58267
:103D7300EF1237E964FF22902430E493FE74019339
:103D8300FFC3E89EE99F22C082C083900348744228
:103D9300F0A3740EF090034A743CF0A3740EF090F9
:103DA300034E7450F0A3740CF002417FC082C083B1
:103DB30090034C7436F0A3740EF002417F74F71233
:103DC3000374EAFEEBFF900382E06408601BE06487
:103DD3000460168E828F83E0540364017044122CB6
:103DE300A51252BCE0640670398E828F83A3A3E0D0
:103DF30064FE7004A3E064FF60288E828F83A3A314
:103E0300126E647003A3E069700BEE2415F582EF64
:103E1300125C766008120EFCE9F5088008120F02A6
:103E230080F67508C2EEFAEFFB1216640227587487
:103E33000D12086C7F0102064C74F41203748A0895
:103E43008B098A828B831245BD28FAE43400FB1266
:103E5300165E8A0A8B0BAE0AAF0BEE7001EF606041
:103E6300850882850983E0FC7D0079001215CE8EDA
:103E7300828F83A3A3123ED3120F3E8E828F83A31E
:103E8300A3A3A312453C850882850983E0F8EE28A5
:103E9300F8EF340012452F850882850983A3E0C01B
:103EA300E01263BED0E0F0120F50EE240E1263C195
:103EB300E91243A5E0C0E0EE24111263C1D0E0F0A3
:103EC300EEFAEFFB8016EAFEEBFF1243961258213F
:103ED30074FE124D65F022740D12086C7F04020605
:103EE3004C74F412037474EB1209008A088B098C66
:103EF3000A8D0BE9FE900382E064046005E0640828
:103F0300700479C280309003837808120A7EEE90A1
:103F1300038912420A120A7E7405120AA5E9F07493
:103F230004120AA57401F07407120AA5E4F07402DE
:103F33009003821241507415809F74F412037474B9
:103F4300EB120900EAFEEBFF900344E07002A3E0EA
:103F530060030240077A077B0012165E9003441247
:103F6300453C900344E07002A3E070030240038EDB
:103F7300828F837808120A609003441252BC780837
:103F8300120A7EEE2404F8EF3400F9E8FAE9FB8A1A
:103F9300828B83E0C0E0900344125657A3A3A3D0BF
:103FA300E0F0EE2405F8EF3400F9E8FCE9FD8C823B
:103FB3008D83E0C0E012400CD0E0124925C0E0122E
:103FC300400CA3D0E01245AC7808120A6085188231
:103FD3008519837808120A7E8A828B83E0C0E07495
:103FE30005120AA5D0E0F08C828D83E0C0E0740452
:103FF300120AA5D0E0F07407120AA512414F8006F9
:10400300791080027901023F399003441252C0A310
:10401300A3A3A3A322C082C083900344E07002A39E
:10402300E0600D90034412613C900344E4F0A3F07C
:10403300120E6C12104002417F74F012037474EB81
:10404300120900ECFEEDFF7425120AA5780C120A82
:10405300607429120AA5E0FC742A120AA5E0FD7413
:104063002B120AA5E0F509740F6C7005740F6D60CF
:1040730012900E5EE06402700579C102414AECC3FE
:104083009D40F6900383780C120A7EE9900389F031
:10409300EC900387F0ED900388F0E50990038AF034
:1040A30074FF6A700374FF6B701F900E6DE064FF02
:1040B3007004A3E064FF70051215DA800C900E6D96
:1040C3001244F9E8F0A3E98007900380EAF0A3EB38
:1040D300F0EE7001EF6017EEFAEFFB121100E964E6
:1040E30001700BEEFCEFFD7A947B03121D489003E5
:1040F30073E4F0A3F0900376F0A3F0900393F090B1
:104103000E5EE06402700A740F900387F0900388D8
:10411300F07405900382F07404120AA5E4F090038E
:1041230083780C120A60851882851983780C120A29
:104133007E900389E0C0E07405120AA5D0E0F07414
:1041430007120AA512414F7415024F6AE4123B7419
:10415300121DAE229003CDE0F912171E22C082C0B9
:1041630083900343E070031218E0120C14800D7463
:104173000B120AA51250EE740D12086CD083D08274
:1041830002081EC082C083900343E07007E4900DD1
:10419300FBF080317401900DFBF0900343E064FF6A
:1041A30060237C41E0C394415002E0FCECFAE0C39D
:1041B3009AF0EC75F0E8A4CCAAF075F003A42AFDFC
:1041C3007A80124FB77AFB7B0D7941121D9680AC32
:1041D30074F412037474EB1209008A088B098C0AB5
:1041E3008D0B740190038212420A120A7E74051227
:1041F3000AA5E9F07404120AA57403F07407120AFD
:10420300A512414F023F39123B1078082274F41271
:10421300037474FC120900E9851882851983F0EA96
:10422300FEEBFF9003801252B1120E608A088B09D5
:10423300EA7001EB700579CA0243898A828B83A3F2
:10424300A3A3A3A3A3A3E064FE7004A3E064FF708D
:104253000579C30243899003801250EE1210A6859C
:104263000882850983A3A3A3A3A3A3A3A3A3A3E072
:10427300049003931245007402120AA57402F074A9
:1042830001120AA5AA82AB83120FAA8A0A8B0BAE6C
:104293000AAF0BEE7001EF700302437F12439234B7
:1042A300001245B2740688828983F0A3A882A98389
:1042B30090036D12614DEE2417F582EF124F56EE07
:1042C300241AF582EF124539EE2413F582EF125FBB
:1042D30097125FB57440F0A3E41243A5A3A3A3A36D
:1042E300A312439C1243AF120BEAE9F50A600302DF
:1042F30043827409900382F0E5082407FEE509343C
:1043030000FFEEFAEFFB794B121D968E828F83121C
:1043130044F2124533900375E0FA851882851983B8
:10432300E06A600CE090037512493579E1121D963D
:10433300900E4B1245B4900E4DE0687003A3E069F4
:10434300601A900346124533900E4D1250EE120F31
:1043530068900E4D1252B17A01124FB77A007B0466
:10436300124157900E4D123B04740278081209EC67
:10437300AC08AD09FA7B04124FB98003750A10E447
:104383009004E6F0A90A7404023EDCAC82AD831209
:10439300439622EE126135EF221243A0221229BA6C
:1043A300A322F0850882850983A3A322E8F0A3E969
:1043B300F0EEFAEFFB2274F512037474E2120900B3
:1043C300851882851983ECF0A3EDF0EAFEEBFF89F3
:1043D300087429120AA5E0F509742C120AA5E0F560
:1043E3000A900382E064046005E06408700579C202
:1043F3000244ED742A120AA5E064FE7004A3E0648B
:10440300FF700579C30244ED7403900382124935AA
:104413007950121D96742A120AA5AA82AB83794B8E
:10442300121D968518828519831244F9124533E5C6
:1044330008900375F0742A120AA51244F212453348
:10444300E50990036D12450074CE55094480C0E020
:104453007412120AA5D0E0F07401250A900393F0B8
:10446300740F120AA57402F0742A120AA51245B435
:104473007407120AA5E8F0A3E91245427410120A60
:10448300A51245337405120AA5E508F0741B120A38
:10449300A5E4F0740F900388F07A887B03795412B3
:1044A3001D96740F900387F07A877B037947121D5B
:1044B30096900387E0C3940F50247405120AA5E075
:1044C300C0E07402120AA5D0E0F07404120AA574C5
:1044D30001F07402120AA5AA82AB83121DBA7405F5
:1044E300120AA5AA82AB83121D9C741E0229F6121E
:1044F30045B8900376221245B890038022F0EEFC73
:10450300EFFD7A947B03121D482274F7120374EBB8
:1045130090038AF0120E4E023E37124521221245B5
:10452300ACA322124521A3E0221245BDF912581B68
:10453300E8F0A3E9F022125821EAF0A3EBF02212EB
:104543003B101245B82274F712037474F812090071
:10455300EAFEEBFF7900900382E06408704185185E
:104563008285198374FD123ED5120F387402120A24
:10457300A512453C7405120AA5E412451DE0C0E0EE
:104583007404120AA5D0E01245A7C0E07406120A0B
:10459300A5D0E0F07407120AA5124934120F8C74E7
:1045A30008023E341245ACE022F08E828F8322F55E
:1045B300831245B8221245BDF922E0F8A3E022C0D8
:1045C30082C08390035474E0F0A3740CF09003FA58
:1045D30074E6F0A3740FF09003587416F0A3740DEF
:1045E300F090035A74E0F0A3740CF090035C741C15
:1045F300F0A3740DF002417F7407023EDC74F412E1
:1046030003748A088B098A828B83126518EE700102
:10461300EF7003024719900312E07002A3E06015E4
:104623008A828B83A3A3E0F9EEFAEFFB90031212C5
:1046330052BC1204918E828F83A3A3A3A3A3A3A32B
:10464300A3A3E06402707A8E828F83A3A3A3A3A3A0
:10465300A3E0540270030246E8850882850983A318
:10466300A3E064E9607F8E828F83A3A3A3A3A3A3A4
:10467300A3A3A3A3E07014900E61E0048E828F8342
:10468300A3A3A3A3A3A3A3A3A3A3F08E828F83A314
:10469300A3A3A3A3A3A3A3A3A3E014F074048E82F0
:1046A3008F83A3A3A3A3A3A3A3A3A3F0900E621238
:1046B3005F9DE8F0A3E912704A7001EB7003126A80
:1046C300388E828F83A3A3A3A3A3A3A3A3A3E0648E
:1046D3000260128E828F83A3A3A3A3A3A3A3A3A386
:1046E300E0640670318E828F83A3A3A3A3A3A3E008
:1046F300A2E05022850882850983A3A3E0F9EEFA9C
:10470300EFFB121E388E828F83A3A3A3A3A3A3E080
:1047130054FEF0A3E0F0023EDF74EE12037474DD86
:10472300120900EAFEEBFF8C108D117435120AA5F5
:10473300780C120A607508007405120AA5AC82ADE4
:1047430083121E1A7412120AA5E070087415120A55
:10475300A5E060207405120AA5E0A2E6501E8E8231
:104763008F83A3A3A3A3A3A3A3A3A31250EE120F08
:10477300C2E960087903121D3002490D7405120A5B
:10478300A5E0540C64047005750A018003750A00E2
:10479300E0A2E55017750801E50A701012438E1266
:1047A30050EA121E44E96004790480CA7405120AAF
:1047B300A5E0A2E650227406120AA5E0540370187D
:1047C3007405120AA5E0540C640C600CE0540C64EC
:1047D30008600575090180037509007405120AA5AF
:1047E300E05403FA74026A700C12438E1250EA12F8
:1047F3001E0802490D74016A703BE5096003124902
:10480300177405120AA5A882A9837403120AA5E8DE
:10481300F0A3E9126E77851882851983E8F0A3E97E
:10482300124925C0E07402120AA5D0E012493512DC
:104833001F1C02490DEA600302490D90036AE064FC
:104843000170108E828F83A3A3A3A3A3A3E070039D
:104853000247AB7422120AA57402126E77741A12FD
:104863000AA5124533E50960087405120AA5124921
:1048730017E50A6069EE240FF582EF125C76C0E05B
:104883007417120AA5D0E0F0900314E07002A3E0BD
:104893006078120F3E8A0A8B0BA80AA90B741A12AE
:1048A3000AA5E0687003A3E069705F780C1208360C
:1048B3007808120842781012083EA909740C120AEB
:1048C300A5AC82AD837421120AA5AA82AB8390039F
:1048D300141252BC120491740712086C802C780CC9
:1048E300120836781012083E9003801206C4A908F5
:1048F3007422120AA5AC82AD83740D120AA5AA8292
:10490300AB83121E2C740812086C742312086C7F7C
:104913000A02064CAC82AD8312439612612A121E20
:10492300142212492AE0221245ACA3A3A3A3A3A3F2
:1049330022E4123B742274F71203741217FC023E32
:104943003774F7120374121808023E3774F7120310
:1049530074121814023E37C082C08312180E02412B
:104963007F74F712037412181A023E3774F7120396
:10497300747409120AA5E0F508780812084212189F
:10498300267401023E34C082C08312183202417F72
:10499300C082C08312183802417F74F71203741265
:1049A300183E023E3774F7120374EAFEEBFF8908E0
:1049B3007401650870147900120D58902449E4932A
:1049C300FC7900EEFAEFFB120CCE023E3774F412C0
:1049D300037474F9120900E9FE8A088B098C0A8DA5
:1049E3000B7413120AA51250EE900512E07002A385
:1049F300E06027EE851882851983F07401120AA5F9
:104A03007808120A7EEAF8EBF97405120AA5123B3C
:104A13006C9005121252BC1204910245FBC082C075
:104A23008312186E02417F74F7120374900DFEE037
:104A3300F97F00800B124C9A540D64017001190F19
:104A4300124C405003E970ED023E3774F7120374C1
:104A5300900DFFE0F97F00800B124C9A548D648116
:104A63007001190F124C405003E970ED023E377488
:104A7300F2120374890BE975F006A4F8A9F0740C1B
:104A830028F508E439F509EA2508FAE43509FB12A3
:104A9300165E8A0C8B0DAE0CAF0DEE7001EF602726
:104AA300AC08AD0979001215CE122CA5E50BF0EE7A
:104AB3002508F8EF3509F98E828F83A3A3A3A3A357
:104AC300A3A3A3A3124533EEFAEFFB800312086CF2
:104AD3007F0602064C74F612037474FF120900EA8F
:104AE300FEEBFF120CAAE9851882851983F0900D5D
:104AF300FDE0FAE9C39A40099003501250EE120CFC
:104B0300B0EE2402F8EF1262BF90035212614D908F
:104B13000352E0041243B3120CB68508828509835D
:104B2300E0F9022450C082C08379009003508001D1
:104B3300091250EE8A828B83E5827002E58370F05E
:104B430002417F74F7120374EAFEEBFFEE7001EF8C
:104B53006058900350E07002A3E0604E900350123F
:104B63004BB07A007B00800FAA82AB83124BB0E577
:104B7300827002E5836033EE65827003EF658370B4
:104B8300E7900350124BBD687002EF698E828F83EA
:104B930070081245B490035080031270421243AF61
:104BA300121EECEEFAEFFB121664023E37124BB400
:104BB300221245BDF988828983221245B8EE22C0AC
:104BC30082C0839003508004888289831245B4E8AD
:104BD3007001E9600B88828983E07002A3E070E8CA
:104BE3008A828B83E4F0A3F0E87001E9600688828F
:104BF3008983800390035012453C02417F74F7126E
:104C0300037490035080048A828B831250EEEA70FF
:104C130001EB60227F0080010F124C4050E9EF75D9
:104C2300F006A4FCADF0EA2CFCEB3DFD7410124C35
:104C3300AE6970E480047A007B00023E371261346F
:104C4300EB125821E0FCEFC39C2274F71203747833
:104C530000800108124CB7FDE8C39D5037E875F09A
:104C630006A4FEADF0EDFFEA2EFEEB3FFF74102E1F
:104C7300F582E43FF583E06970D9E875F006A4FE98
:104C8300EDFFEA2EFAEB3FFB74112AF582E43BF5C4
:104C930083E04CF0023E37EF75F006A4FCADF0EA7A
:104CA3002CFCEB3DFD7411124CAE222CF582E43D3D
:104CB300F583E022126134EB125821E02274F612DC
:104CC3000374120DD07A007B00802DEAF8EBF9E82B
:104CD30075F006A4F8ACF075F006E9A42CF9E82405
:104CE30098F8E9340CF988828983A3124D8C125FFA
:104CF300A3F0124D8512756A902436122C9D40CB79
:104D03007A007B0080188A088B09740378081209DB
:104D1300EC125BC088828983124D8C1275649024D7
:104D23003D124D6A40E07A007B00801D8A088B09A2
:104D3300740378081209ECE5082438F582E5093490
:104D43000DF583124D6312756A902443124D6A4028
:104D5300DB90243CE49390035EF0124D74023045E3
:104D630074FEF0A374FF22E493F8C3EA98EB940073
:104D7300227CE87D037A107B009003CDE0F91217C3
:104D83001822A3F08882898322124D9022A374FEF5
:104D9300F0A374FFF0E488828983A32274F01203E2
:104DA3007474F51209008A0A8B0BE9FEECFFEEA27C
:104DB300E05014750AFC750BFFA2E15005D2E40222
:104DC3004E66D2E3024E6612560F7003A3E069707B
:104DD300057900024F4CEEFC7902AA0AAB0B120DC7
:104DE300ACE960EDEEF508780812084279027CFE22
:104DF3007DFFAA0AAB0B12580D12086CE96003027F
:104E03004F4AEEC2E5FE9003C0E07058EEA2E640C2
:104E1300537403120AA5AC82AD83AA0AAB0B120A20
:104E2300BEE9703C9003801252B1AA0AAB0B121078
:104E3300828A088B09A808A909E87001E96025E8B6
:104E430024020A0AE91229EE601AE5082402FCE5A5
:104E5300093400FD7403120AA5AA82AB83121D480C
:104E6300EED2E5FE900353E0F50C900373123B047E
:104E7300780812083E7D017C00900353E0F9AA08EC
:104E8300AB09120D64740212086CE9FA900353E043
:104E930004F0EA6003024F4AEEA2E55004740E8068
:104EA300027406C0E07401120AA5D0E012652970ED
:104EB30001EB7003024F46124F50E508241AF582A6
:104EC300E5091263C4EAF0A3EB124F60123C6E884B
:104ED300828983F074785E127531E50C127532A302
:104EE300E50AF0E50B88828983A3A3A3A3F0E488F2
:104EF300828983A3A3A3A3A3F0EEA2E550147403B2
:104F0300120AA5AC82AD83E82406FAE93400FB1249
:104F13001D48850882850983A3A374FD123ED5EF3E
:104F2300601890244AE493FAEFC39A500DE50824DD
:104F330013F582E5091263C4EFF0AA08AB09120B5B
:104F4300EA80067910800279C7740B801AEA241765
:104F5300F582EB1258217401F0120F3822F0122857
:104F63005912582122740D12086C7F0802064C74E2
:104F7300F61203747A007B10126A477001EB600823
:104F830074019003DFF080299005B3E06401900E73
:104F93005F7006E0FC79018004E0FC79037A007B12
:104FA30000120CCE9024341234667A007B10124F18
:104FB300B90230457B009003CDE0F9121712227439
:104FC300EC1203748A088B098C0C8D0D890E7414F2
:104FD300120AA51259D67416120AA5E0F510A3E019
:104FE300F511120FC2E960077AFF7BFF0250E490CC
:104FF3000E5EE0640260030250D77900AA08AB0991
:1050030012529D8A128B13AE12AF13EE7001EF7022
:10501300030250BD8E828F83A3A3A3A3A3E06401E5
:105023008E828F83A3A370691250EE8E828F83A327
:10503300A3A3A3A3A3E054186043902448E4938E4E
:10504300828F83A3A3A3A3F0EA650C7003EB650D22
:105053006014EA650A7003EB650B600AEA65107079
:1050630003EB6511701F781012083EAC0AAD0BAA52
:105073000CAB0D1210BE740212086C800890037200
:10508300126A2FA3F074FE6A700374FF6B601D80B5
:1050930050A3A3A3E0640360298E828F83A3A3A3F9
:1050A300A3A3E0640470057AFE024FED8E828F8322
:1050B300A3A3A3A3A3E0640270089003BFE0640268
:1050C3007012125629121082EA7001EB6006AA08C8
:1050D300AB09800DAA08AB099003541252BC120409
:1050E300910270271258133400F58312612E227433
:1050F300F7120374EAFEEBFF120B12E9700AEEFAE1
:10510300EFFB120B1EE96006EEFAEFFB80047AFE5A
:105113007BFF023E3774EE1203748A0A8B0B8C0CEE
:105123008D0D890E750800120FC2E9790060030224
:10513300529AAA0AAB0B12529D8A108B11AE10AF72
:1051430011EE7001EF60198E828F83A3A3A3A3A333
:10515300E0640270579003BFE06402700302529848
:10516300AA0AAB0B90035A1252BC120491120B24DD
:105173008A108B11A810A911E87001E9700302527B
:105183009888828983A3A3A3A3A3E0A2E040030298
:105193005298750901A2E150727901AC0AAD0BAACC
:1051A3000CAB0D120CFEE9706E0252988E828F8347
:1051B300A3A3A3A3A3E064037005750902805E8E15
:1051C300828F83A3A3A3A3A3E06401600302529885
:1051D3009003801252B18E828F831256208A108BD5
:1051E30011A810A911E87001E960CF88828983E0D2
:1051F300C0E0902441E493FAD0E0C39A50BC888283
:105203008983A3E0600302529880AF88828983A3D5
:10521300A3A3A3A3D2E1F0EE7001EF603A8E828FD5
:1052230083A3A3A3A3A3A3E05418602B7508018E43
:10523300828F83A3A31206C47510FE7511FF781025
:1052430012083E7900AC0AAD0BAA0CAB0D120DC4CB
:10525300740412086C803E900373E0650C7004A321
:10526300E0650D7014902449E493FCA90EAA0AABDF
:105273000B120CCE750801801CA909AC0AAD0BAA50
:105283000CAB0D120CFEE9700C750801A90EAA0AED
:10529300AB0B120D58A908024912120DB2A90E1236
:1052A3000DA622E50C2415F582E50D125821127383
:1052B3009522EEFAEFFB9003561252C0221245BD1F
:1052C300F58388822274EA12037474F01209008A47
:1052D3000C8B0D8C088D097426120AA5E0F514A316
:1052E300E0F515751206900400E07002A3E0601D5E
:1052F3001256291210AC8A108B11EA7001EB600D63
:105303008A828B83A3E0700579000255F8E50C24AB
:105313001DF50EE50D3400F50F850E82125826F5A6
:105323001388828983A3A3A3E0FA88828983A3A332
:10533300A3A3E0F9EAFEE9FFAA08AB09120D5EE9AF
:10534300FA850E82850F8312400FE02AF50BE50ADA
:10535300A2E5500375120E7487550A701774185519
:105363000A6418600FE50C2417F582E50D125C76CC
:10537300651260077901121D30808D530A78C3EEE0
:1053830094F8EF94FF50207900EEFAEFFB125602E7
:105393007001E9601288828983A3A3A3A3A3A3E076
:1053A3005418600302530B780812083E7D0012560E
:1053B3004712086CE9FA74036A700302530BEA603C
:1053C3000302547C7418550A7003025525E50AD26A
:1053D300E0F50AA2E45004D2E1F50AA90A1250E763
:1053E3001256027001E9605488828983A3A3A3A3A0
:1053F300A3A3E05418604588828983A3A3A3A3A32E
:10540300E0640170379003801252B188828983125D
:1054130056208A0E8B0FA80EA90FE87001E9601CB5
:1054230088828983A3E06014C0E08510828511839C
:10543300A3E0FAD0E0C39A500302530BE50AF50E3A
:10544300780E12084212563A12086CE9702B7C004F
:105453007D0085148285158374FFF0A3F0850C828B
:10546300850D83A3A3A3A3A3A3A3A3E06003125265
:10547300A6A90B1250E712182C851482851583E018
:1054830064FF7004A3E064FF60369003BFE064022E
:10549300700302530B1259CFE0FAA3E01252B81271
:1054A3000491EA65087003EB6509600302530B126C
:1054B30052B5120491851482851583EAF0A3EBF0AB
:1054C300780812083E7D0112564712086CA90AEEAD
:1054D300FAEFFB12560F7003A3E06960030255E96C
:1054E300EEFAEFFB120B248A088B09A808A909E836
:1054F3007001E9606E88828983A3A3A3A3E064019A
:10550300600D88828983A3A3A3A3E06402705485FA
:105513001882851983AC82AD83EEFAEFFB120ABEC3
:10552300805590036CE0600FE50AF50E780E1208C3
:105533004212563A12086CE50AF50E780E1208422A
:1055430079027CFE7DFFEEFAEFFB12580D12086C18
:10555300E9600302547C85148285158374FFF0A3EC
:105563000254C2120F38EAFCEBFD851882851983B9
:10557300AA82AB83121D48850C82850D83A3A3A346
:10558300A3A3A3A3A3E06401700F1252A67408128D
:105593000AA5AA82AB83121D481257E7125654E09C
:1055A3004430F50878081208427401120AA585826E
:1055B30008858309780812083E740B120AA58582B0
:1055C30008858309780812083EE513F50878081260
:1055D30008427900EEFCEFFD1250E7120CF8740656
:1055E30012086C02530B1257E71263C412400FE503
:1055F3000BF0120F50741012086C7F0E02064C123F
:105603000DA68A0E8B0FA80EA90FE822120DB28ADF
:10561300088B09A808A909900373E06822A3A312C1
:10562300612E1210AC2290038012563022E0FCA3AC
:10563300E0FDAA08AB09227901AC08AD0912612388
:1056430012580D22AC0BA913126123120D647402BC
:1056530022125821E0F8A3E0F5838882A32274F094
:1056630012037474F01209008A0C8B0DECFAEDFB33
:10567300750F08900400E07002A3E060161267251E
:105683008A828B83E5827002E5836007A3E070035F
:105693000257E21257E73400125826F50B88828925
:1056A300831257F0E0FBECFEEBFF88828983A3A310
:1056B3001257F0A3A3E0FAE4CAFBECF508EBF509F3
:1056C30088828983A3A3A3A3A3A3A3E0F50EE50A7A
:1056D300A2E45003750F10A2E550067408250FF5D8
:1056E3000F748F550A700FE50C2417F582E50D1220
:1056F3005C76650F60087901121D300257E2530A88
:1057030070E50AA2E450221257E7125C762408FCE3
:10571300A3E03400FD7408120AA5AA82AB83121D0C
:10572300487A08E50AC2E4F50AE50AA2E55029EA3F
:10573300F81257E7125C7628F8A3E03400F97408EE
:1057430028FCE439FD851882851983AA82AB83126C
:105753001D48E50AC2E5F50AAC0EA90BEEFAEFFB0C
:10576300120D6AE9FA74036A6075900373E06E7050
:1057730003A3E06F605EEA7054E50AF50F780F1239
:1057830008421257FE12086CE97054780A12084254
:105793007401120AA585820C85830D780C12083ECC
:1057A300740B120AA585820C85830D780C12083EB2
:1057B300E50BF50A780A120842A90EAC08AD09EE0A
:1057C300FAEFFB120CF8740612086C801274046A68
:1057D300700D80B7780A1208421257FE12086C74D3
:1057E30010024F6AE50C241DF582E50D22A3A3A345
:1057F300E0FC88828983A3A3A3A32279011258130F
:1058030012582112563012580D22120D2274012201
:10581300E50C126135E50D22EE240BF582EF340021
:10582300F58322F583124BB4A3E0F50A88828983BA
:10583300A3A3E02274E912037474F5120900EAFECB
:10584300EBFF8C088D0989167422120AA5E0F51165
:105853007423120AA5E0F512A3E0F5137425120AC6
:10586300A5E0F514A3E0F5157427120AA5E0F510D9
:10587300A911120D708A0E8B0F7401120AA57408F8
:10588300F0E510A2E450037410F0E510A2E5500413
:10589300E02408F0851882851983AA82AB83120F4E
:1058A300AA8A0C8B0DEA7001EB70030259C5124FE3
:1058B30050E50C241AF582E50D1245397403120ADA
:1058C300A5AC82AD83AA0EAB0F120ABEE9601E120D
:1058D3005F8FF07403120AA5A882A983E50C24182C
:1058E300F582E50D1263C4E8F0A3E98025E510A273
:1058F300E45020E50E6E7003E50F6F7016125F8F94
:10590300F0E50C2418F582E50D1263C4E512F0A34B
:10591300E513F01259CF1259D67402850A82850B0A
:1059230083F0A3E5101259DEE511F0EE850A8285B6
:105933000B83A3A3A3F0EF850A82850B83A3A3A301
:10594300A31259DEA3A3A3E508F0E509850A82851E
:105953000B83A3A3A3A3A3A3F0AA0EAB0F120D5E05
:10596300E92516850A82850B83A3A3A3A3A3A3A377
:10597300F0750800E510A2E45014AC12AD13E50A6B
:105983002408FAE50B3400FB121D48750808E510DE
:10599300A2E55018AC14AD15E50A2508F8E50B345B
:1059A30000F9740828FAE439FB121D48850C828536
:1059B3000D83A3A3E50EF0A3E50FF0AA0CAB0D1224
:1059C3000BEA740B12086C7F0F02064C1258131269
:1059D300582122E0F50AA3E0F50B22F0850A82851F
:1059E3000B83A3A32274F21203748A088B09ECFEBF
:1059F300EDFF890A7900120DB28A0C8B0DA80CA950
:105A03000D900373E0687003A3E06970047901806B
:105A130068750B01900373E065087004A3E06509E2
:105A23006012A90AEEFCEFFDAA08AB09120FFEE90A
:105A3300F50B80437900EEFAEFFB120DA6EA700135
:105A4300EB602B8A828B83A3A3A3A3A3A3E05418A5
:105A5300601C7508FE7509FF780812083E8A828B60
:105A630083A3A31206C412737D12086C8009790103
:105A7300EEFAEFFB120C80A90B024AD374F4120363
:105A83007475088075090B7A10126A457001EB7002
:105A930003124D7490035EE014F0700C90243CE408
:105AA3009390035EF0120DBE7E007F008077850821
:105AB30082850983A3A3A3A3E0606064FF605CE520
:105AC300082404F582E509125BCB704F85088285B3
:105AD3000983A3A3A3A3A3E0640370197902850830
:105AE300828509831252B1850882850983A3A31293
:105AF30050EE120CFE850882850983A3A3A3A3A3FA
:105B0300E064016016850882850983123ED3E4852B
:105B13000882850983A3A3A3A3A3F0123776E5081C
:105B23002407122E799024381271B040817E007FB1
